:0300000002013EBC
:0C013E00787FE4F6D8FD7581360201855B
:011F88000256
:011F89000750
:011F8A000056
:011F8B000055
:011F8C0087CD
:011F8D000053
:021F8E0055AA52
:101F90001414141414141414141414141414141401
:081FA000141414141414141499
:101FB0000000000000000000000000000000000021
:081FC000000000000000000019
:101FD0000C0E0C0C0C0C0C0C0E0E0E0C0C0C0C0C39
:081FE0000C0C0C0C0C0C0C0C99
:101F0000FFFFFFFFFFFFFFFFFFFFFFFFFFFFFFFFE1
:101F1000FFFFFFFFFFFFFFFFFFFFFFFFFFFFFFFFD1
:101F2000FFFFFFFFFFFFFFFFFFFFFFFFFFFFFFFFC1
:03006B0002004947
:10004900C0E0C0F0C083C082C0D075D010122600B5
:0B005900D0D0D082D083D0F0D0E032B5
:03008B0002006E02
:10006E00C0E0C0F0C083C082C0D075D01812250089
:0B007E00D0D0D082D083D0F0D0E03290
:03009B0002031E3F
:10031E00C0E0C0F0C083C082C0D075D008123000DB
:0B032E00D0D0D082D083D0F0D0E032DD
:0300030002000EEA
:10000E00C0E0C0F0C083C082C0D075D000C000C0B8
:10001E0001C002C003C004C005C006C0071225807F
:10002E00D007D006D005D004D003D002D001D00026
:0B003E00D0D0D082D083D0F0D0E032D0
:04000600752C022231
:1002EC00E4F535FF1224D012234053E67C120006AD
:1002FC001203651203741221F0E52FB401047F017F
:10030C0080027F00EF60EFE4F52F12009E1201CA0D
:02031C0080E47B
:0C033900012F00012D00012E00013000FA
:10035300E4FDFCC3ED9FEC9E50070DBD00010C8036
:01036300F2A7
:010364002276
:0F03650053D6F053D7F0D2A3D2A2D2A1D2A02266
:1001CA00E5266401703BE527B40104D2A0801AE554
:1001DA0027B40204D2A18011E527B40304D2A28075
:1001EA0008E5276404704DD2A3752801E4F529F5C2
:1001FA002AF52BF526E525652760031202B3852724
:10020A0025E5286401702DE52BC39403501AE52CCB
:10021A007008FDAF251202B7052BE52CB4011512A3
:10022A0002B3E4F529F52A22E4F528F529F52AF599
:05023A002B1202B322AB
:0402B3007D01AF25F5
:1002B700EF6031C39406502CEDC394025026EF240F
:1002C700FE601014601314601624037017ED24FFEA
:1002D70092A022ED24FF92A122ED24FF92A222ED0B
:0502E70024FF92A32298
:0303450001210093
:10009E00E4F536AEDCAFDDEE7003EF6006EE600A1F
:1000AE00EF6007E4F520F521FF22EE601065206079
:1000BE000C752201E4F523F524F526F527EF6010E3
:1000CE006521600C752201E4F523F524F526F5274C
:1000DE00C3E5249405E5239400404EE4F522F52370
:1000EE00F524EE6010BE0208752601752704800502
:1000FE00E4F526F527EF6031BF0108752601752757
:10010E00038026BF0208752601752702801BBF04D7
:10011E00087526017527018010BF06087526017522
:0F012E0027058005E4F526F5278E208F21AF27C2
:01013D00229F
:0A03480001310201320A023303E81A
:0D008E0043A802758901758CF8758ACD2292
:0803740012008ED2AFD28C22E0
:03000B0002023FAF
:04023F00C0E0C0D08B
:10024300D53106752F01753102D53206752D01752D
:10025300320AE534153470021533144533700975C9
:1002630030017533037534E8E522B401080524E54C
:100273002470020523E528B40129052AE52A700222
:100283000529E52AB4F40AE529B40105752C008093
:1002930012E52AB4E80AE529B40305752C018003A5
:0B02A300752C02758CF8758ACDD28C8A
:0502AE00D0D0D0E032C9
:10014A000202ECE493A3F8E493A34003F68001F2DD
:10015A0008DFF48029E493A3F85407240CC8C333B6
:10016A00C4540F4420C8834004F456800146F6DF85
:10017A00E4800B0102040810204080900339E47ED9
:10018A00019360BCA3FF543F30E509541FFEE4937A
:10019A00A360010ECF54C025E060A840B8E493A341
:1001AA00FAE493A3F8E493A3C8C582C8CAC583CA6C
:1001BA00F0A3C8C582C8CAC583CADFE9DEE780BE24
:0103520000AA
:00000001FF
