:0300000002305F6C
:0C305F00787FE4F6D8FD7581240230A6CD
:101DA6009001A012092900000000E49001A4F0129D
:101DB6003E88123EB5123F49123F59123BCC7D0177
:101DC6007F07123B08123DB4123F2E123E9F123E71
:101DD60051123CB6123BEE123E42123F40123AAE50
:101DE6009001AA120929000000007F02122858E477
:101DF600FD7F0C12262B7D017F0112262B7D017F94
:101E06000B12262B123DF612372B3018047F018059
:101E1600027F00EF6071C2189001A0E0FCA3E0FD14
:101E2600A3E0FEA3E02401FFE43EFEE43DFDE43C26
:101E3600FC9001A012091D1209A612356AE47B0561
:101E4600FAF9F89001A0E0FCA3E0FDA3E0FEA3E010
:101E5600FF120856AC00AD01AE02AF03E4FBFAF97F
:101E6600F8C312090C7003123BA6300414900189C2
:101E7600E0FCE41203779001AA12091D7F021228E2
:101E86005830160312377A3012047F0180027F0021
:101E9600EF6008C2121221751223D83013047F0195
:101EA60080027F00EF6005C213122B0C3000047F06
:101EB6000180027F00EF6008C200121AB21212BB44
:101EC6003009047F0180027F00EF600EC2093004F2
:101ED6000312176E122EA612343B9002E1E0640143
:0B1EE6006003021E10122036021E10C6
:1015370041002301C112C113C100C109C1184401EF
:101547009600000000C10D44019C0000000041010D
:101557007F0041002800C10541019B0041001200A6
:10156700C117C114C111C115C10C42001B000044B1
:1015770000130000000042001D000042000F0000A1
:10158700605000290000000000000000000000007B
:101597000000000000000000000000000000000044
:1015A7000000000000000000000000000000000034
:1015B7000000000000000000000000000000000024
:1015C7000000000000000000000000000000000014
:1015D7000000000041000D0041000E004100110015
:1015E70041019A004100040041019400C10BC10A66
:1015F700C102C107C101420180000AC10FC10E41EA
:10160700018FFFC106C1084401900000000044009B
:101617000900000000440017000000004401820098
:101627000000004400000000000044002400000007
:1016370000C1104400050000000044001F00000026
:101647000042017D000041019500C104C103C1169C
:103D6E00E4FDFCC3ED9FEC9E50070DBD00010C80E1
:013D7E00F252
:013D7F002221
:10335F0090028AA3E0FAA3E0F5828A837F01120923
:10336F00A4900296A3E0FAA3E0F91209A0900290AC
:10337F00A3E0FAA3E0F91209A090029CA3E0FAA33C
:10338F00E0F91209A0900290A3E0FAA3E0F9120964
:10339F00A0900299A3E0FAA3E0F91209A09002907D
:1033AF00A3E0FAA3E0F91209A090029FA3E0FAA309
:1033BF00E0F91209A0900290A3E0FAA3E0F9020944
:0133CF00A05D
:1036790090028AA3E0FAA3E0F5828A837F01120906
:10368900A4900299A3E0FAA3E0F91209A09002908C
:10369900A3E0FAA3E0F91209A090029CA3E0FAA31F
:1036A900E0F91209A0900290A3E0FAA3E0F9120947
:1036B900A0900296A3E0FAA3E0F91209A090029063
:0936C900A3E0FAA3E0F90209A054
:10316D00E49001B7F0900296A3E0FAA3E0F91209FA
:10317D00A090028AA3E0FAA3E0F5828A83E4FF120D
:10318D0009A4900290A3E0FAA3E0F91209A090021D
:10319D009CA3E0FAA3E0F91209A0900290A3E0FA33
:1031AD00A3E0F91209A09002A2A3E0FAA3E0F9129C
:1031BD0009A0EF60089001B77401F08005E490015B
:1031CD00B7F090029FA3E0FAA3E0F91209A09002D4
:0F31DD0090A3E0FAA3E0F91209A09001B7E0FF78
:0131EC0022C0
:1034A60090028AA3E0FAA3E0F5828A837F011209DB
:1034B600A4900299A3E0FAA3E0F91209A090029061
:1034C600A3E0FAA3E0F91209A090029CA3E0FAA3F4
:1034D600E0F91209A0900290A3E0FAA3E0F912091C
:1034E600A090029FA3E0FAA3E0F91209A09002902F
:1034F600A3E0FAA3E0F91209A0900296A3E0FAA3CA
:05350600E0F90209A03C
:1036D20090028AA3E0FAA3E0F5828A837F011209AD
:1036E200A4900296A3E0FAA3E0F91209A090029036
:1036F200A3E0FAA3E0F91209A090029CA3E0FAA3C6
:10370200E0F91209A0900290A3E0FAA3E0F91209ED
:10371200A090029FA3E0FAA3E0F91209A090029000
:09372200A3E0FAA3E0F90209A0FA
:05326B009001B7EFF037
:1032700090028AA3E0FAA3E0F5828A837F01120913
:10328000A49001B7E0A3F0E4A3F09001B8E054806B
:1032900070059002998003900296A3E0FAA3E0F9EA
:1032A0001209A090029CA3E0FAA3E0F91209A090F1
:1032B0000290A3E0FAA3E0F91209A090029FA3E014
:1032C000FAA3E0F91209A0900290A3E0FAA3E0F9B2
:1032D0001209A09001B8E025E0F0A3E004F0E0C3FB
:0432E000940840A668
:0132E40022C7
:1032E500E49001B8F090028AA3E0FAA3E0F5828A9F
:1032F50083E4FF1209A4E49001B7F09001B8E0253A
:10330500E0F090029CA3E0FAA3E0F91209A0900274
:1033150090A3E0FAA3E0F91209A09002A2A3E0FAB3
:10332500A3E0F91209A0EF60079001B8E04401F0AD
:1033350090029FA3E0FAA3E0F91209A0900290A3DE
:10334500E0FAA3E0F91209A09001B7E004F0E0C3A8
:09335500940840A79001B8E0FFC4
:01335E00224C
:0E2FD1009001B1EFF0A3EBF0A3EAF0A3E9F05A
:102FDF0012335F9001B1E025E04401FF12326B1212
:102FEF00316DEF70639001B5E07002A3E060529015
:102FFF000289E0FB70057F64FE8008EBB401077F58
:10300F000A7E00123D6E1232E59001B2E0FBA3E0A2
:10301F00FAA3E0F9EF12071A9001B3E475F0011269
:10302F0007B59001B6E024FFF09001B5E034FFF052
:10303F00E07002A3E070051236D280051234A6802C
:0F304F00A4123679E4FEFF221236797E007F014B
:01305E00224F
:0E2F3D009001B1EFF0A3EBF0A3EAF0A3E9F0EE
:102F4B0012367912335F9001B1E025E0FF12326B3C
:102F5B0012316DEF70689001B5E07002A3E0605024
:102F6B00900289E0FB70057F64FE8008EBB40107DB
:102F7B007F0A7E00123D6E9001B2E0FBA3E0FAA344
:102F8B00E0F91206D4FF12326B12316DEF702F90F5
:102F9B0001B6E024FFF09001B5E034FFF0E07002E1
:102FAB00A3E0600C9001B3E475F0011207B580A6A5
:102FBB007F3C7E00123D6E123679E4FEFF22123604
:052FCB00797E007F018A
:012FD00022DE
:02165700C126AA
:103CB60075BA0375AAB843918043878043A8907567
:053CC6009850C2992294
:0300230002391D82
:10391D00C0E0C083C082C0D0309820C29890000D06
:10392D00E0C394505019E02429F582E43400F58366
:10393D00E599F090000DE004F08004C226C299D004
:08394D00D0D082D083D0E0321B
:08000300D2268F992026FD2270
:1027470067657420646174613A00257820000D0A7A
:102757000067657420757365722074696D652065FF
:1027670072726F723A25640D0A00757365725F7431
:10277700696D65723A25640D0A00000000000000CB
:102787000000000000000000000000000000000042
:102797000000000000000000000000000000000032
:1027A7000000000000000000000000000000000022
:1027B7000000000000000000000000000000000012
:1027C700000000000000000000001B2A0141040077
:1027D70000000000000000000000000000000000F2
:1027E700000000000000092A004400000100002347
:1027F700112A0145AF0000000000000000000000A2
:1028070000000000000000000000000000000000C1
:1028170000000000000000000000000000000000B1
:10282700072A0149030000230A2A0149050000007D
:102837000000230B2A0149080100000000002309BA
:102847002A0149080300000023072A01490900005B
:01285700235D
:10165900605002340000000000000000000000009B
:101669000000000000000000000000000000000071
:101679000000000000000000000000000000000061
:101689000000000000000000000000000000000051
:101699000000000000000000000000000000000041
:0816A900000000004102840072
:0E38DF00900212EBF0A3EAF0A3E9F0A3EDF0E3
:1038ED00E4A3F0F0900215E0FFA3E0FEC39F501F8C
:1038FD00900212E0FBA3E0FAA3E0F98E827583003B
:0F390D001206EDFF120003900216E004F080D5C1
:01391C002288
:0E2C99009001D2EBF0A3EAF0A3E9F0A3EDF076
:102CA700E4A3F0A3F078D87C017D017BFF7A277934
:102CB70081FE7F281206AE9001D5E0FF90000DE05F
:102CC700D39F5006E0C3945040187B017A007929BE
:102CD7009002087450F0E4FD1237C5E490000DF03F
:102CE700FF2290000DE06012E06012E02428F582D8
:102CF700E43400F583E0642360037F002290000D35
:102D0700E0FF9001D6E0FEC39F502874292EF5827C
:102D1700E43400F583E0FF9001D2E0FBA3E0FAA3DF
:102D2700E0F98E82758300EF12072C9001D6E0043C
:102D3700F080CAE490000DF07B017A0079299002B7
:0D2D470008EEF0E4FD1237C59001D6E0FF64
:012D5400225C
:1012BB00E49001A6F0A3F0A3F078A97C017D017B5B
:1012CB00FF7A2779A9FE7F281206AEE49001D1F0B0
:1012DB00900284E0FF2434F9E43402FA7B01C374F6
:1012EB00509FFD122C99EF7003021536900284E08B
:1012FB002FF0E09001A8F07B017A0179A990020808
:10130B007428F0E4FD1237C590020774FFF0A37444
:10131B0027F0A37447F07B017A0179A9120E9D7B0C
:10132B00017A0179A9123D1FAD077B017A0179A9D9
:10133B001231EDE49001A5F0900284E0FF9001A53D
:10134B00E0C39F505D7B017A0179A9900208742854
:10135B00F0E4FD1237C59001A5E02434F582E434A6
:10136B0002F583E0FF9001D1F090020774FFF0A328
:10137B007427F0A37451F0A3E4F0A3EFF07B017A90
:10138B000179A9120E9D7B017A0179A9123D1FAD3E
:10139B00077B017A0179A91231ED9001A5E004F0E8
:1013AB0080967B017A0179A99002087428F0E4FDFC
:1013BB001237C590020774FFF0A37427F0A374557E
:1013CB00F07B017A0179A9120E9D7B017A0179A933
:1013DB00123D1FAD077B017A0179A91231EDE49023
:1013EB0001A5F0900284E0FF9001A5E0FEC39F40B1
:1013FB000302153674342EF582E43402F583E0646F
:10140B002A600302150CEE700302150C2433F582CF
:10141B00E43402F583E0FD9001A7F0EE2DFDE433FB
:10142B00FCD3ED9F7480F86C98400302150CE0FF21
:10143B009001A5E02F2433F582E43402F583E064B8
:10144B0023600302150C74332EF9E43402FA7B018A
:10145B001230EB9001A7E0FF9001A5E02FF0900276
:10146B0084E0FF9001A5E0FEC39F500302152DEE13
:10147B00B507177B017A027934900208EFF0E4FD8F
:10148B001237C5E4900284F08077E49001A6F090C7
:10149B0001A5E0FF900284E0FDC39FFFE49400CF21
:1014AB002401CF3400FE9001A6E0C39FEE6480F8C8
:1014BB00748098502FE0FF9001A5E0FE2F2433F5A8
:1014CB0082E43402F583E0FC74342FF582E43402B9
:1014DB00F583ECF0C3ED9E04900284F09001A6E03E
:1014EB0004F080AB900284E0FF2434F9E43402FA78
:1014FB007B019001A8E0C39F900208F0E4FD123736
:10150B00C59001A5E0C3945040187B017A02793451
:10151B00900284E0900208F0E4FD1237C5E49002DB
:0B152B0084F09001A5E004F00213EE34
:011536002292
:0B30EB009001D2EBF0A3EAF0A3E9F0A3
:1030F6001206D4FF9000011206ED642A7068900152
:10310600D2E0FBA3E0FAA3E0F98F827583001206F2
:10311600ED642370519000031206EDB441030222C0
:10312600AC9001D2E0FBA3E0FAA3E0F99000031211
:1031360006EDB44403023B5A9001D2E0FBA3E0FA49
:10314600A3E0F99000031206EDB4450302191D90A1
:1031560001D2E0FBA3E0FAA3E0F99000031206ED2A
:06316600B44903122A42E5
:01316C002240
:1022AC0078D57C017D017BFF7A2779D17E007F1C5C
:1022BC001206AEE49001F2F0FF900023E09001D7FB
:1022CC00F0E49001F1F09001F1E0FEC394044003BE
:1022DC000223C2EE701690017DE0FCA3E0FDE41237
:1022EC00037290028512091D7F5080599001F1E014
:1022FC00FBB40118900182E0FCA3E0FDA3E0FEA377
:10230C00E0FF90028512091D7F5A8039EBB4021848
:10231C00900000E0FCA3E0FDA3E0FEA3E0FF900230
:10232C008512091D7F4F801D9001F1E0B4031690BA
:10233C000024E0FCA3E0FDA3E0FEA3E0FF900285F7
:10234C0012091D7F4A9001F1E0FE75F005A424DA14
:10235C00F582E43401F583EFF0900285E0FDEE7533
:10236C00F005A424DBF582E43401F583EDF0900252
:10237C0086E0FDEE75F005A424DCF582E43401F56D
:10238C0083EDF0900287E0FDEE75F005A424DDF5F9
:10239C0082E43401F583EDF0900288E0FDEE75F0F7
:1023AC0005A424DEF582E43401F583EDF09001F10F
:1023BC00E004F00222D2E49001EEF0A3F0A3742327
:0C23CC00F07B017A0179D57D1C0238DF1E
:103B5A0078D57C017D017BFF7A2779ED7E007F0A8B
:103B6A001206AE900023E09001DBF07B017A017926
:063B7A00D57D0A0238DFD0
:0B191D009001D5EBF0A3EAF0A3E9F085
:10192800E4A3F078D97C017D017BFF7A2779F7FE63
:101938007F121206AE9001D5E0FBA3E0FAA3E0F90E
:101948009000041206ED9001D8F0D3940A506FE08D
:10195800B40B005067901964F8282873021985029F
:10196800198D02198D02198D02198D0219AA0219F1
:10197800AF0219B40219B90219C40219BE30177B93
:1019880012389D807620170512350B806E9001D88D
:10199800E0FF123E5F9001D8E004FF7D0112262B84
:1019A8008059123DE68054123C6D804F123ED6801D
:1019B8004A123ECB8045200842123CA0803D90014F
:1019C800D8E0FFC394104046EFD394135040EF245F
:1019D800EF601214601714601C2403701E30171B6C
:1019E80012389D801620171312350B800E30140BF9
:1019F800123F258006201403123F1C9001D5E0FBFE
:101A0800A3E0FAA3E0F91206D404FD021AAE90018D
:101A1800D8E064AF6003021AB1900023E09001DBC4
:101A2800F0A217E4339001DEF0A214E433A3F0909F
:101A38000012E09001E0F0A207E433A3F0A206E46C
:101A480033A3F09002E1E09001E3F09002E2E0FAC3
:101A5800A3E0FB7C007D3CFFAE021207609001E42E
:101A6800EFF07C007D3CAF03AE02120760A3EDF0FF
:101A78009002E4E0FAA3E0FB7C007D3CFFAE02129A
:101A880007609001E6EFF07C007D3CAF03AE0212E8
:101A98000760A3EDF0E4A3F0A3F0A37423F07B01A7
:091AA8007A0179D97D121238DFB0
:011AB1002212
:0B2A42009001D5EBF0A3EAF0A3E9F04F
:102A4D00E4A3F0A3120929000000009001DD120992
:102A5D0029000000009001D5E0FBA3E0FAA3E0F906
:102A6D009000041206EDFF64037003022B0BEFB40C
:102A7D000503021EF19001D5E0FBA3E0FAA3E0F9F6
:102A8D009000041206EDB40703023C0F9001D5E04F
:102A9D00FBA3E0FAA3E0F99000041206ED640870C0
:102AAD005D9000051206EDB40106201651023D920F
:102ABD009001D5E0FBA3E0FAA3E0F9900005120622
:102ACD00EDB40206300437023DA39001D5E0FBA31F
:102ADD00E0FAA3E0F99000051206EDB40306200418
:102AED001D023D5B9001D5E0FBA3E0FAA3E0F99058
:0E2AFD0000051206EDB40406301603123F5118
:012B0B0022A7
:0B1EF1009001E1EBF0A3EAF0A3E9F0A0
:101EFC00E4A3F0A3F078E67C017D017BFF7A2879DE
:101F0C0009FE7F1E1206AE9001E1E0FBA3E0FAA3EE
:101F1C00E04A4B70030220359001E1E0FBA3E0FAAC
:101F2C00A3E0F99000051206ED7003023A509001FF
:101F3C00E1E0FBA3E0FAA3E0F99000051206ED64E2
:101F4C000160030220359000061206EDFF7E007C36
:101F5C00007D3C12074E9000071206ED2FFFEC3E61
:101F6C00FE9002E2F0A3EFF09001E4EEF0A3EFF0AC
:101F7C0064784E60309001E4E07004A3E064F0609B
:101F8C00247B017A0179E6900208741EF0E4FD12BC
:101F9C0037C590020774FFF0A37427F0A37458F0B0
:101FAC009001E4805B9001E4E0FEA3E0FF64784ED6
:101FBC00700790019504F0800CEF64F04E70069061
:101FCC0001957402F09001E1E0FBA3E0FAA3E0F9C3
:101FDC001235C5900195E0FF12361F123C0F7B01A4
:101FEC007A0179E6900208741EF0E4FD1237C59070
:101FFC00020774FFF0A37427F0A37471F09002E24F
:10200C00E0FFA3E090020ACFF0A3EFF07B017A018E
:10201C0079E6120E9D7B017A0179E6123D1FAD0720
:09202C007B017A0179E61231ED25
:012035002288
:103B800078A57C017D017BFF7A2879277E007F085C
:103B90001206AE900023E09001A7F07B017A017934
:063BA000A57D080238DFDC
:0B35C500900204EBF0A3EAF0A3E9F091
:1035D00078077C027D017BFF7A28792F7E007F0BA4
:1035E0001206AE900023E0900209F0900204E0FB86
:1035F000A3E0FAA3E0F99000051206ED90020CF0AA
:103600009000061206ED90020DF09000071206EDF4
:0F36100090020EF07B017A0279077D0B0238DF02
:1038100078E17C017D017BFF7A28793A7E007F0C7C
:103820001206AE900023E09001E3F0900187E09053
:1038300001E7F0900009E0FCA3E0FDA3E0FEA3E0B7
:10384000FF1203ABAC06EC9001E8F0A3EFF07B01B4
:093850007A0179E17D0C0238DFF8
:103A800078E17C017D017BFF7A2879467E007F0A00
:103A90001206AE900023E09001E3F090018AE090DE
:0E3AA00001E7F07B017A0179E17D0A0238DF4F
:103BA60078A57C017D017BFF7A2879507E007F080D
:103BB6001206AE900023E09001A7F07B017A01790E
:063BC600A57D080238DFB6
:103BEE0053D4BF53D5BF53D47F53D57FD296D297DC
:103BFE007B017A007979900208743CF0E4FD02377B
:013C0E00C5F0
:0E31ED00900204EBF0A3EAF0A3E9F0A3EDF0EA
:1031FB00E4A3F090019AE02DFFE433FED3EF94C8E3
:10320B00EE648094805058E4900208F0900207E03E
:10321B00FFA3E0C39F5033900204E0FBA3E0FAA3AB
:10322B00E0F9900208E0FEF5827583001206EDFDD1
:10323B0090019AE0FCEE2C24B5F582E43400F58382
:10324B00EDF0900208E004F080C290019AE02FF0BC
:0F325B00200B0C900004740AF09001947403F09F
:01326A002241
:1016B1004102F3004102F5004102F4004102F6004B
:1016C1004102EF004102F0004102F1004102F2004B
:0D004600D2A9438920758CC0D2AFD28C2284
:0E3E51001200469002F47403F09002F6F02284
:03000B00022503C8
:0F250300C0E0C083C082C0D075D000C006C00742
:1025120090000EE0C3943C50799002EFE0FF605EC1
:102522009002F2E014F0706AEFB409249002EFE432
:10253200F0A3E0FF90000EE0FE04F074792EF58225
:10254200E43400F583EFF09002F0E4F0C20A804236
:102552009002F4E09002F2F09002F0E0309705442D
:1025620080F08003547FF09002EFE004F0E0640911
:10257200700302261E9002F0E0C313F0801420972D
:10258200119002EF7401F09002F4E0049002F2F074
:10259200D20A900004E0700302261E900194E01417
:1025A200F070799002F6E0900194F0900004E0FF60
:1025B20014F0EF24F6603A24097055D29690019AED
:1025C200E0FF900011E06F601BE0FF04F074B52F94
:1025D200F582E43400F583E09002F1F09000047497
:1025E2000AF08038900011E4F090019AF0C20B805A
:1025F2002BD20BC296900011E07021E0FF04F07420
:10260200B52FF582E43400F583E09002F1F0800CFE
:0C2612009002F1E0FF139296EFC313F06A
:0D261E00D007D006D0D0D082D083D0E032DB
:05000E000000000000ED
:1016D1004B02BA3F065B4F666D7D077F6F0041028B
:0616E100B8004102B9004F
:0B3E9400EF1FAC0670011E4C70F62200
:0D3E7B0043D43853D5C7D293D294D29522A8
:0C3E8800123E7B123EE1123C87023EF528
:0E395500123EEB7F027E00123E94C293AF0141
:10396300E4FDAB07C294EB30E004D2958002C2952C
:103973007F017E00123E94D2947F017E00123E941A
:09398300EBC313FB0DEDB408DBEE
:01398C002218
:0A3EE100C2937F02123963D29322CC
:0A3EEB00C2937F40123963D2932284
:102BD4009001B6EFF09001B8EBF0A3EAF0A3E9F0AE
:052BE4009001B7EDF0C7
:102BE900E49001BCF0FAEDC394074003022C9890DD
:102BF90001B7E0FF7003022C98C374079FFFE494A8
:102C090000FEEF25E0FFEE33FE9001BBE0D39FEE1F
:102C19006480F874809850779001B7E025E024BE6D
:102C2900F9123955E49001BCF09001BBE0FFA3E033
:102C3900FEC39F50589001B6E0B40126EEB40422B9
:102C49009001B8E0FBA3E0FAA3E0F98E8275830056
:102C59001206ED24BAF582E43402F583E04480FAE1
:102C6900801E9001B8E0FBA3E0FAA3E0F98E82751B
:102C790083001206ED24BAF582E43402F583E0FA02
:0F2C8900AF021239639001BCE004F0809CD2933B
:012C98002219
:103C8700E4FA123EEBC2937FC0123963E4FF1239A4
:083C9700630AEAB40CF6D293B3
:013C9F002202
:0A3EF500C2937F8B123963D293222F
:052858009001A9EFF062
:10285D00E49001AEF078AF7C017D017BFF7A0079C9
:10286D000EFE7F051206AEE49001B4F0A3F09001C8
:10287D00A9E0B40134E4FFFE7D207C41A3E0F8A380
:10288D00E0F9A3E0FAA3E0FB1202F440028039E480
:10289D00FFFE7DC87C429001AAE0F8A3E0F9A3E019
:1028AD00FAA3E0FB12014E80399001A9E0B4023D7C
:1028BD00E4FFFE7D7A7C44A3E0F8A3E0F9A3E0FAFF
:1028CD00A3E0FB1202F4400C9001B47403F0A37466
:1028DD00E7F080199001AAE0FCA3E0FDA3E0FEA3C0
:1028ED00E0FF1203AB9001B4EEF0A3EFF09001B452
:1028FD00E0FAA3E0FB7C007D64FFAE02120760905E
:10290D0001B3EFF07C007D64AF03AE021207607E71
:10291D00007F0ACFCDCFCECCCE1207609001B1EFA4
:10292D00F09001B4E0FEA3E0FF7C007D0A12076089
:10293D009001AFEDF09001A9E0FF7B017A0179AF35
:0B294D009001BB7405F07D01022BD44B
:02262B00AA07FC
:10262D00E4F9900205F0EAC3940D4003022746ED4C
:10263D00C394024003022746EAD394065048ED6442
:10264D00017026EAC39402400DEAD3940550079019
:10265D0002B8E054C3F09002B8E0FF7401A802087C
:10266D008002C333D8FC4F80129002B8E0FF740192
:10267D00A802088002C333D8FCF45F9002B8F07949
:10268D00C89002B88075EAC3940C5076ED64017061
:10269D004B9002B9E0FFEA24F9FE7401A806088008
:1026AD0002C333D8FC4F9002B9F0EAB40813E0FF2F
:1026BD00EA24FAFE7401A806088002C333D8FC8010
:1026CD002FEA640970309002B9E0FFEA24F8FE7435
:1026DD0001A806088002C333D8FC80149002B9E02B
:1026ED00FFEA24F9FE7401A806088002C333D8FC62
:1026FD00F45F9002B9F079CA9002B9E0900205F04A
:10270D00801AEAB40C16ED9002B8B40107747FF08C
:10271D00A3F080067402F0E4A3F079C8123955EAEB
:10272D00640C600590020580099002B8E0FF123933
:09273D0063A3E0FF123963D2939B
:012746002270
:050016000000000000E5
:0516E7004202FF0000BB
:0E3E0600E4FFFE0FBF00010EEF64024E70F5E8
:013E1400228B
:0B3E9F0053DA9F53DB9FD2B5D2B6224E
:103CCB00EF700753DABF43DB4022EFB4010653DA40
:053CDB00BF53DBBF2216
:103CE000EF700753DADF43DB2022EFB4010653DA2B
:053CF000DF53DBDF22C1
:03001E00D2B62235
:03004000C2B62223
:033F7400D2B522A1
:033F7700C2B522AE
:0A3EFF0030B6047F0180027F00222C
:102958009001A97423F0E4A3F0A3F078AC7C017D86
:10296800017BFF7A007916FE7F051206AE90028978
:102978007401F0A374FFF0A3743CF0A374CBF0A32C
:1029880074FFF0A3743CF0A374E0F0A374FFF0A309
:10299800743EF0A37406F090029674FFF0A37400DE
:1029A800F0A3741EF0A374FFF0A37400F0A37440A6
:1029B800F0A374FFF0A3743FF0A37474F0A374FF42
:1029C800F0A3743FF0A37477F0A374FFF0A3743EF0
:1029D800F0A374FFF07B017A0179A99001B5E4F0C6
:1029E800A304F07F4D122F3DEF70137B017A01791C
:1029F800AC9001B5F0A37405F07F4D122FD1900172
:102A0800ACE030E015A3E0FEA3E0FDEDFF9001AAE5
:102A1800EEF0A3EFF04E701180009002FFE0FFA3EC
:102A2800E09001AACFF0A3EFF09001AAE0FEA3E0A6
:092A3800FF9002FFEEF0A3EFF0A5
:012A41002272
:103BCC00C0BE75BE0353F50FE4F5F975FBC075F275
:103BDC003F75F1FF75FA91F5D5F5D6F5D7F5C9D046
:023BEC00BE22F7
:103B0800C0BE75BE03ED700F04A807088002C3335A
:103B1800D8FCF452F58011EDB4010D7401A8070822
:0B3B28008002C333D8FC42F5D0BE225F
:103A2000D3ED94FFEC943F5026C0BE75BE03EF2447
:103A3000FB600A14601014600D24037010AF058F32
:103A4000D5ECF5D68007AF058FD7ECF5C9D0BE22EF
:03004300023EAAD0
:0B3EAA00C0BE75BE0353BCFED0BE328C
:1016EC004802C923282AF82F4437784402C5080C2D
:0216FC000F13CA
:103D34009000127402F0E490001BF0A3F0FDFC7FED
:043D440007023A2018
:063F6E00E4900012F022B5
:0E3E5F00EFD394045007900012EFF0D215221A
:1023D800E49001A5F0A3F0A312092900000000125F
:1023E8003E249001A712091D900005E0FCA3E0FD22
:1023F800A3E0FEA3E02402FFE43EFEE43DFDE43C4E
:10240800FC9001A7E0F8A3E0F9A3E0FAA3E0FBC37E
:1024180012090C5003022502900012E0FFC3940138
:102428004018EF25E024C7F582E43402F583E0FF85
:10243800A3E09001A5CFF0A3EFF030177030156D31
:10244800900012E0FF900028E06F6006D211EFF0D4
:10245800C2053011439001A5E0FEA3E0FF90001BE8
:10246800E0FCA3E0FDC39FEC9E500DE02464F090D7
:10247800001BE03400F0801BD3ED9FEC9E401090D1
:10248800001CE0249CF090001BE034FFF08004C2A4
:1024980011C21590001B803B900012E024C4F58205
:1024A800E43402F583E090019BF0D2052220174A1C
:1024B800301547C205C390001CE0946490001BE0EF
:1024C80094004019300C33A3E0249CF090001BE0EA
:1024D80034FFF0E0FCA3E0FD7F07023A20300C1A3D
:1024E800C215E490001BF0A3F0FDFC7F07123A2010
:0A24F800C20C900012E0900028F0E2
:0125020022B6
:102EA600E49001A5F0A3F0300403022F3C90001239
:102EB600E024FE6010146013146016240370777EFD
:102EC600237F8C80107E2B7F5C800A7E2F7FA880DC
:102ED600047E377FDC30055990019BE0FD90017F31
:102EE600E0F9D39D401BD390001CE09F90001BE0AF
:102EF6009E4031A3E0249CF090001BE034FFF0805C
:102F06002390019BE0FDE9C39D5019C390001CE08E
:102F16009F90001BE09E500CA3E02464F090001BE1
:102F2600E03400F090001BE0FCA3E0FD7F07123ABE
:062F360020E490017FF091
:012F3C002272
:1016FE004102F70A4102F8144102F9644202FA0368
:0A170E00E84202FC27104102FE0031
:093F1300D2AB758902758D4722BD
:083F4900123F13D2AFD28E2209
:03001B00021C3B89
:101C3B00C0E0C0F0C083C082C0D075D000C000C06F
:0D1C4B0001C002C003C004C005C006C007F0
:101C58009002F7E014F07048D212740AF090019CD8
:101C6800E0FCA3E0FDA3E0FEA3E02401FFE43EFEC8
:101C7800E43DFDE43CFC90019C12091D74FFFFFE4D
:101C8800FDFC90019CE0F8A3E0F9A3E0FAA3E0FBD7
:101C9800C312090C700A90019C1209290000000067
:101CA8009002F8E014F07005D2137414F09002F961
:101CB800E014F07005D2007464F09002FA74FFF535
:101CC800F01207B545F0700CD2099002FA7403F0CF
:101CD800A374E8F09002FC74FFF5F01207B545F024
:101CE8007041D2189002FC7427F0A37410F03007EA
:101CF80013900181E004F07006900180E004F03058
:101D08000F02D20E900196E0FCA3E0FDA3E0FEA333
:101D1800E02401FFE43EFEE43DFDE43CFC90019636
:101D280012091D9002D6E0B4010E9002D8E004F02A
:101D380070069002D7E004F0D390001EE094009063
:101D4800001DE09400403C9002FEE014F0E0700BAF
:101D5800B28490000FA3E09002FEF090001EE024F1
:101D6800FFF090001DE034FFF0E0FEA3E0FF4E70AE
:101D78000A9002FEF0C285C2848008BE0705BFD063
:031D880002C2850F
:101D8B00D007D006D005D004D003D002D001D000AC
:0B1D9B00D0D0D082D083D0F0D0E03256
:0F3E150090019CE0FCA3E0FDA3E0FEA3E0FF22F0
:0F3E2400900196E0FCA3E0FDA3E0FEA3E0FF22E7
:073F5900D2AFD2AAD28A22E6
:03001300023D4863
:103D4800C0E0C083C08290017FE004F0D082D083BD
:033D5800D0E03286
:033F860000000038
:101718004102D1004102D2004102D3004102D5006A
:0E3E3300E4FFFE0FBF00010EEF640A4E70F5B3
:013E4100225E
:0B3EB50053DAF353DBF3D2B3D2B22296
:103CF500EF700753DAFB43DB0422EFB4010653DA16
:053D0500FB53DBFB2273
:103D0A00EF700753DAF743DB0822EFB4010653DA00
:053D1A00F753DBF72266
:033F7A00D2B2229E
:033F7D00C2B222AB
:033F8000D2B32297
:033F8300C2B322A4
:0A3F090030B2047F0180027F002225
:0B2E00009001ABEBF0A3EAF0A3E9F0B7
:102E0B00A37417F0E4900289F0A374FFF0A3743C51
:102E1B00F0A374F5F0A374FFF0A3743DF0A3740A50
:102E2B00F0A374FFF0A3743EF0A37433F0900296FA
:102E3B0074FFF0A3743FF0A3747AF0A374FFF0A3B4
:102E4B00743FF0A3747DF0A374FFF0A3743FF0A361
:102E5B007480F0A374FFF0A3743FF0A37483F0A30A
:102E6B0074FFF0A3743FF0A37409F07B017A01792E
:102E7B00AE9001B5E4F0A304F07F30122F3DEF705C
:102E8B00199001ABE0FBA3E0FAA3E0F99001B5E4E4
:0A2E9B00F0A37403F07F30122FD172
:012EA500220A
:101AB200E49001A5F09001A7F078A87C017D017B5C
:101AC200FF7A3F7986FE7F031206AE3002037FFF64
:101AD200227B017A0179A8122E009001AAE0FF90E0
:101AE20001A6F09001A9E09001A7F0EF7003E06079
:101AF2000A9001A6E06019A3E06015E49002D4F018
:101B0200A3F09002D1F0A3F0A3F0123DD67F002201
:101B12009001A6E0FF601A9002D4E0FEEF6E601121
:101B22009002D67401F0E4A3F0A3F09002DAF0A3DD
:101B3200F09001A7E0FF60189002D5E0FEEF6E6022
:101B42000FA37401F0E4A3F0A3F09002DAF0A3F083
:101B5200C39002D8E094F49002D7E09401500302BB
:101B62001C259001A7E0FF6406601AEF640260156D
:101B7200EF64046010E49002D6F0A3F0A3F09002A8
:101B8200D1F0A38004E49002D7F0A3F09001A6E084
:101B9200601BB4020C9002DA7401F0A37404F080AA
:101BA20007E49002DAF0A3F0E49002D1F09001A7EA
:101BB200E0FF606FB4010C9002DA7401F0A37403C9
:101BC200F08060EFB402169002D2E004F0E0C39419
:101BD2001440509002DA7401F0A30480369001A7F9
:101BE200E0FFB404159002D3E004F0E0C394144083
:101BF200329002DA7401F0A38019EFB4061E90024B
:101C0200D1E004F0E0C3942840199002DA7401F0A4
:101C1200A37405F0E49002D6F0A38004E49002DA03
:101C2200F0A3F09001A6E09002D4F09001A7E0901A
:081C320002D5F09002DBE0FF97
:011C3A002287
:103DD600E49002D6F0A3F0A3F09002DAF0A3F0226A
:10172800C122C1234402A5000000004402A9000010
:1017380000004202AD0000C124C1254402AF0000F0
:0D17480000004102B3004402B40000001E86
:0100210022BC
:10372B00E49001A5F0209146123E6D9001A5E0C3F7
:10373B00940A503A3013047F0180027F00EF60053A
:10374B00C213122B0C3018047F0180027F00EF6034
:10375B00DAC2189001A5E004F0900013E0FCA3E09E
:0E376B00FDA3E0FEA3E0FFEC4D4E4F70BE222A
:01377900222D
:10350B00123E2490000512091D123C6D123ECB1287
:10351B003AAE123E24A804A905AA06AB07900005F3
:10352B00E0FCA3E0FDA3E0FEA3E02401FFE43EFEEC
:10353B00E43DFDE43CFCC312090C40D630080630D8
:10354B000806309103123CA0123D34D217D20CD294
:0F355B0015E4FD7F0B12262B7D017F0302262B2B
:10389D00123E2490001F12091D123ADBC217123F6F
:1038AD006E123E6D123DE6123ED6120021D215C2A9
:1038BD0008E4FD7F0C12262B7D017F0B12262BC2F7
:1038CD00019002E1E0B40103123A50301403123FAB
:0238DD002522A2
:102175009002DAE0B4010BA3E0B40506123B80122D
:102185003DD61233D09002DAE0640160030222A545
:10219500A3E014700302226C14700302224714603A
:1021A5002C24FE700302228B046003022295301654
:1021B5000790018AE04401F020170612350B022230
:1021C5009520170302229512389D022295201703A8
:1021D500022295120026900012E0FFC394045003DA
:1021E500E0800BEF6404600302229590001204F076
:1021F500D215900012E004FF7D0112262B30163A0D
:10220500900012E0FDB4010990018AE04402F080DB
:1022150029EDB4020990018AE04404F0801C900085
:1022250012E0FDB4030990018AE04408F0800BED4B
:10223500B4040790018AE04410F0301453123F258E
:10224500804E30160790018AE04420F03017419007
:102255000195E0C39402500AE004F0E0FF12361F36
:10226500801F123A50801A30160790018AE04440C8
:10227500F030171CB214201405123F258003123FBD
:102285001C123C2F800A30160790018AE04480F02A
:102295009002DAE0B40109A3E064056003123DD6BB
:0722A500301403122D552235
:1009A6009001A512092900000000123E249001A51D
:1009B60012091DE47F02FEFDFC9001A5E0F8A3E00C
:1009C600F9A3E0FAA3E0FBD312090C503A74FF7FB7
:1009D600FDFEFDFC9002A5E0F8A3E0F9A3E0FAA372
:1009E600E0FBC312090C401F9001A5E0FCA3E0FD4B
:1009F600A3E0FEA3E02402FFE43EFEE43DFDE43C6A
:100A0600FC9002A512091D9002A5E0FCA3E0FDA33F
:100A1600E0FEA3E0FF9001A5E0F8A3E0F9A3E0FA69
:100A2600A3E0FBC312090C404A122958AC06AD07D5
:100A3600E412037290000912091D9001A5E0FCA3BF
:100A4600E0FDA3E0FEA3E02402FFE43EFEE43DFD5C
:100A5600E43CFC9002A512091D20041790017DE0DC
:100A6600FCA3E0FDE41203729001AA12091D7F02A5
:100A7600122858201703020B6A202302D2233022A1
:100A860002C222900005E0FCA3E0FDA3E0FEA3E085
:100A9600243CFFE43EFEE43DFDE43CFC9001A5E081
:100AA600F8A3E0F9A3E0FAA3E0FBD312090C505730
:100AB600E47FB4FEFDFC9001A5E0F8A3A3A3E01239
:100AC600090C5040900009E0FCA3E0FDA3E0FEA362
:100AD600E0FF900017E0F8A3E0F9A3E0FAA3E0FB3B
:100AE6001202F4501F900009E0FCA3E0FDA3E0FE13
:100AF600A3E0FF1203ABAD07AC0690017DECF0A3BB
:100B0600EDF08056020BDC900009E0FCA3E0FDA3AB
:100B1600E0FEA3E0FF1203ABAD07AC06E4120372DE
:100B2600900017E0F8A3E0F9A3E0FAA3E0FB1200B7
:100B36005DE4FBFAF978401202571203AB90017D8F
:100B4600EEF0A3EFF0900009E0FCA3E0FDA3E0FEC9
:100B5600A3E0FF1203ABAD07AC06E41203729000EC
:100B660017020E1F301703020E22302303020C1841
:100B7600E47F847E03FDFC9001A5E0F8A3E0F9A3E1
:100B8600E0FAA3E0FBC312090C505C900009E0FCFC
:100B9600A3E0FDA3E0FEA3E0FF1203ABAD07AC06A6
:100BA600E4120372900017E0F8A3E0F9A3E0FAA3B9
:100BB600E0FB1202F4501F900009E0FCA3E0FDA345
:100BC600E0FEA3E0FF1203ABAD07AC06E41203722E
:100BD60090001712091D900017E0FCA3E0FDA3E0AA
:100BE600FEA3E0FF020CCFD223D222E49002ADF0A6
:100BF600A3F09001A5E0FCA3E0FDA3E0FEA3E024A2
:100C060084FFEE3403FEE43DFDE43CFC9002A902C1
:100C16000E1F302203020D0690001FE0FCA3E0FD2C
:100C2600A3E0FEA3E02458FFEE3402FEE43DFDE41B
:100C36003CFC9001A5E0F8A3E0F9A3E0FAA3E0FBF1
:100C4600C312090C4003020CDD900017E0FCA3E080
:100C5600FDA3E0FEA3E0FF900009E0F8A3E0F9A3FE
:100C6600E0FAA3E0FB1202F4502390017DE0FCA31E
:100C7600E0FDE4120372900017E0F8A3E0F9A3E0A8
:100C8600FAA3E0FB12005DE4FBFAF9803790000955
:100C9600E0FCA3E0FDA3E0FEA3E0FF1203AB90019E
:100CA6007EE02FFD90017DE03EFCE4120372900091
:100CB60017E0F8A3E0F9A3E0FAA3E0FB12005DE475
:100CC600FBFA794078401202571203AB90017DEE91
:100CD600F0A3EFF0020E22D222E49002ADF0A3F0D0
:100CE6009001A5E0FCA3E0FDA3E0FEA3E02484FFC1
:100CF600EE3403FEE43DFDE43CFC9002A9020E1F27
:100D0600900009E0FCA3E0FDA3E0FEA3E0FF1203D0
:100D1600ABD39002AEE09F9002ADE09E5005EEF0A0
:100D2600A3EFF0900009E0FCA3E0FDA3E0FEA3E042
:100D3600FF1203ABAD07AC06E4120372900017E096
:100D4600F8A3E0F9A3E0FAA3E0FB1202F450469000
:100D56000009E0FCA3E0FDA3E0FEA3E0FF1203AB65
:100D6600AD07AC06E412037290001712091D90003D
:100D760009E0FCA3E0FDA3E0FEA3E0FF1203AB90B5
:100D8600017EE02FFF90017DE03EC313FEEF13FFCF
:100D9600EEF0A3EFF09002A9E0FCA3E0FDA3E0FED5
:100DA600A3E0FF9001A5E0F8A3E0F9A3E0FAA3E031
:100DB600FBC312090C40659002ADE0FCA3E0FDE424
:100DC600120372900017E0F8A3E0F9A3E0FAA3E09B
:100DD600FB12005DE4FBFAF978401202571203ABEE
:100DE60090017DEEF0A3EFF0FDAC06E412037290E5
:100DF600001712091DE49002ADF0A3F09002A9E0DD
:100E0600FCA3E0FDA3E0FEA3E02484FFEE3403FE92
:100E1600E43DFDE43CFC9002A912091DC390017E4D
:100E2600E0940290017DE094005006E4F0A3740281
:010E3600F0CB
:010E37002298
:102D55009001A5740AF0A3120929000000002017AC
:102D650003022DFF123E249001A612091D302438BE
:102D75009001A5E0FFE4FCFDFE9002AFE0F8A3E0C2
:102D8500F9A3E0FAA3E02FFFEE3AFEED39FDEC38AA
:102D9500FC9001A6E0F8A3E0F9A3E0FAA3E0FBD3D9
:102DA50012090C500122C22490017DE0FEA3E0FF30
:102DB500C3944BEE9400500C900012E06401602A1D
:102DC5007401801FC3EF9496EE9400500C9000128E
:102DD500E0640260157402800A900012E0640460E9
:102DE500097404F0D215D224D22530250D90001295
:0A2DF500E004FF7D0112262BC22529
:012DFF0022B1
:1033D0009001A51209290000000030175D123E245B
:1033E0009001A512091D900005E0FCA3E0FDA3E0FB
:1033F000FEA3E0240AFFE43EFEE43DFDE43CFC9035
:1034000001A5E0F8A3E0F9A3E0FAA3E0FBC31209E9
:103410000C40273009243091089002B3E004F0807A
:1034200005E49002B3F09002B3E0C39414400B3073
:0A343000170812389DE49002B3F073
:01343A00226F
:093F1C00D2147D017F0A02262B5C
:093F2500C214E4FD7F0A02262B00
:10176E009001A51209290000000090017FE0900170
:10177E0088F0E490017FF0900186E0701330170539
:10178E0012389DD204900186E004F0C203021916AD
:10179E00900186E0FFB4011F900013E0F8A3E0F97A
:1017AE00A3E0FAA3E0FBE8494A4B600302191620B6
:1017BE009137D203021916EFB4020512350B8029A8
:1017CE00900186E0FDB4032C900013E0F8A3E0F93D
:1017DE00A3E0FAA3E0FBE8494A4B60030219162086
:1017EE00910D900187E054FEF0900186021898D278
:1017FE0003021916ED64046003021916123E2490BA
:10180E0001A512091D900005E0FCA3E0FDA3E0FE7A
:10181E00A3E0240AFFE43EFEE43DFDE43CFC90011F
:10182E00A5E0F8A3E0F9A3E0FAA3E0FBC312090CCC
:10183E00405D9002B4E0FCA3E0FDA3E0FEA3E0FF58
:10184E00900005E0F8A3E0F9A3E0FAA3E02FFFEA89
:10185E003EFEE93DFDE83CFC9001A5E0F8A3E0F971
:10186E00A3E0FAA3E0D312090C5024900188E0FF04
:10187E00C3940A4009EFD3940D5003021916900138
:10188E0089E0C394FF4003021916E004F0807990BA
:10189E0002B4E0FCA3E0FDA3E0FEA3E0FF90000590
:1018AE00E0F8A3E0F9A3E0FAA3E02FFFEA3EFEE999
:1018BE003DFDE83CFC9001A5E0F8A3E0F9A3E0FAB9
:1018CE00A3E0FBD312090C403F200107900187E0F3
:1018DE0054FBF0900189E0C3941E5007900187E0FD
:1018EE0054FDF0900009E0FCA3E0FDA3E0FEA3E0B0
:1018FE00FF1203ABD3EF9400EE6480948040079008
:0E190E000187E054F7F0D203300303123DA32B
:01191C0022A8
:103D9200D204E4900186F0A374FFF0E4900189F06C
:013DA20022FE
:103DA300C204300303123810C20330170312389DC4
:013DB30022ED
:103D5B00D216E490018AF0123E2490018B12091DB9
:033D6B00023C0F08
:10377A009001A5120929000000B4123E24C004C019
:10378A0005C006AB079001A5E0FCA3E0FDA3E0FE9F
:10379A00A3E0FF90018BE0F8A3E0F9A3E0FAA3E02D
:1037AA002FFFEA3EFEE93DFDE83CFCD002D001D005
:0A37BA0000C312090C4003123F5136
:0137C40022E2
:083F5100C216123A80023C0F77
:0F1755004102E6004802E701030206040C0809FE
:073F600053D4FD53D5FD22EF
:103DB40043D60F53D7F0C2A0C2A1C2A2C2A3023FEE
:013DC400609E
:103CA000D208123E2490019012091D7F247EFF7DD0
:063CB000FF7CFF02398DCC
:0E3E6D007FDC7E007D007C0012398DC20822B1
:10398D009001EB12091DE47FEC7E0FFDFC9001EB25
:10399D00E0F8A3E0F9A3E0FAA3E0FB1207CBE47B88
:1039AD00687A01F9F812385990001312091DD202E4
:0139BD0022E7
:10356A009001A5E4F0A3743CF0A31209290000001D
:10357A0000201746300843123E249001A712091D65
:10358A009001A5E0FEA3E0FFE4FCFD900190E0F8C5
:10359A00A3E0F9A3E0FAA3E02FFFEA3EFEED39FD2E
:1035AA00EC38FC9001A7E0F8A3E0F9A3E0FAA3E065
:0A35BA00FBC312090C4003123E6D22
:0135C40022E4
:102B0C00900013E0FCA3E0FDA3E0FEA3E0FFEC4D7E
:102B1C004E4F7003022BC6E4FFFEFDFC900013E049
:102B2C00F8A3E0F9A3E0FAA3E0FBD31208F69002B5
:102B3C00E6E0402504F0E05407F0900013E0FCA31D
:102B4C00E0FDA3E0FEA3E0FFEF24FFFFEE34FFFE69
:102B5C00ED34FFFDEC34FF802414F0E05407F090CA
:102B6C000013E0FCA3E0FDA3E0FEA3E0FFE4FAF910
:102B7C00F8EF2401FFEA3EFEE93DFDE83CFC900045
:102B8C001312091D9002E6E024E7F582E43402F505
:102B9C0083E0FF30E004D2A08002C2A0EF30E10459
:102BAC00D2A18002C2A1EF30E204D2A28002C2A262
:102BBC00EF30E303D2A322C2A32230020AC2A0C286
:072BCC00A1C2A2C2A3C202D4
:012BD30022DF
:093F2E0053D2DF53D3DFC2852218
:0839BE007FD27D507C0A7E00DF
:1039C600AB05AA047C007D0A12074E90001DEEF09E
:1039D600A3EFF0AC02AD037E137F88120760900060
:0939E6000FEEF0A3EFF0D28522F0
:103AAE001239BE90001DE07002A3E070F67D307CEE
:103ABE00097FD27E001239C690001DE07002A3E08D
:0D3ACE0070F67D307C087FCD7E000239C689
:103ADB007D307C087FD27E001239C690001DE070CD
:103AEB0002A3E070F61239BE90001DE07002A3E055
:0D3AFB0070F67D407C0C7FCD7E000239C648
:100026007FCD1239C090001DE07002A3E070F67D0E
:0A003600307C087FCD7E000239C641
:103C0F007D307C087FD27E001239C690001DE07097
:103C1F0002A3E070F67D307C097FD27E000239C6A8
:103C2F007D307C087FD27E001239C690001DE07077
:103C3F0002A3E070F67D307C087FD27E000239C689
:0E37C500900204EBF0A3EAF0A3E9F0A3EDF00C
:1037D300E4FFA3E0D394FF40020F22E4FEFF900234
:1037E30008E0FDC3EF9DEE9400501F900207E0FD3B
:1037F300900204E0FBA3E0FAA3E0F98F828E83ED4D
:0C38030012072C0FBF00010E80D47F00C4
:01380F002296
:02176400C1279B
:093F370053AC7F8FAC43AC88222F
:0B3EC0008FABAF058FAFD2BAD2AF229C
:103DC500E4AFADEF75F004A4FFAEF0ADAEEF4DFF7F
:013DD50022CB
:030053000239EF80
:1039EF00C0E0C0F0C083C082C0D075D000C005C099
:1039FF0006C007123DC5900301EEF0A3EFF0D227EA
:103A0F00D007D006D005D0D0D082D083D0F0D0E070
:013A1F003274
:033F890000000035
:0F3E420043D61053D7EFC2A47D1F7F01023EC0AD
:103C6D00D2A4D20790018F74FFF0900180E4F0A3ED
:0A3C7D00740FF07D017F0602262B74
:103DE600C2A4C207E4FD7F0612262BC227C20F22F9
:073F6700C227E4FF023F370F
:103D8000900301E0FEA3E0FFE4900301F0A3F0C282
:013D9000270B
:013D9100220F
:10343B0078A57C017D017BFF7A3F79897E007F0334
:10344B001206AE300754300F2B302728123D80C3A5
:10345B00EF943CEE9402500D90018FE0C364809486
:10346B00804002D20190018FE004F0B40306C20F3A
:10347B00C20EE4F0300F08300E05123F67C20EC3C8
:10348B00900181E09414900180E094004006D20FEB
:0A349B00E4F0A3F0300103123DE657
:0134A5002204
:093F400043D62053D7DFC2A522AD
:0B3ECB00D2A5D2067D017F0702262B46
:0B3ED600C2A5C206E4FD7F0702262BF8
:103C4F000000000000000000000000000000000065
:0E3C5F00000000000000000000000000000057
:071766004402DC000000005A
:103DF600E49002E0F0A3F0A3F0A3F0A3F0A3F02276
:102036009001A51209290000EA609001A912092958
:102046000000000078AD7C017D017BFF7A3C794F72
:102056007E007F1E1206AE123E159001A912091DC2
:10206600E4FFFEFD7CF09001A9E0F8A3E0F9A3E00F
:10207600FAA3E0FBD312090C5043E4FFFEFD7CF00B
:102086009002DCE0F8A3E0F9A3E0FAA3E0FB120972
:102096000C402A9001A5E0FCA3E0FDA3E0FEA3E02E
:1020A600FFA3E0F8A3E0F9A3E0FAA3E02FFFEA3EDE
:1020B600FEE93DFDE83CFC9002DC12091D9002E0C1
:1020C600E0B4012F9001A5E0FCA3E0FDA3E0FEA390
:1020D600E0FFA3E0F8A3E0F9A3E0FAA3E02FFFEA0C
:1020E6003EFEE93DFDE83CFC9002DC12091DE49051
:1020F60002E0F09002DCE0FCA3E0FDA3E0FEA3E03A
:10210600FF9001A9E0F8A3E0F9A3E0FAA3E0FBC37E
:1021160012090C4059D39002E5E094009002E4E0E5
:102126009400400CA3E024FFF09002E4E034FFF0BA
:102136009002E4E07002A3E0700630170312389DA7
:102146009002DCE0FCA3E0FDA3E0FEA3E0FF90012B
:10215600A5E0F8A3E0F9A3E0FAA3E0FBEF2BFFEE7E
:0E2166003AFEED39FDEC38FC9002DC12091D4A
:012174002248
:103A5000E49002E0F0A3F0A3F0A3F0A3F0A3F090B1
:103A60000195E0B40106E4FD7F08800B900195E02C
:103A7000B40207E4FD7F0912262BE4900195F022A1
:10361F00900204EFF0D39402504FE0FFC3940040A8
:10362F0048EF7003023A509002E07401F0A3F0905B
:10363F000204E0B4010F9002E2E4F0A37478F07D8D
:10364F00017F088014900204E0B402109002E2E4BB
:10365F00F0A374F0F07D017F0912262B9002E2E0B7
:0A366F00FFA3E0A3CFF0A3EFF022C9
:10005600020417E86480F8E933E83360110460F0BD
:10006600ED33EC337009E8FCE9FDEAFEEBFF220410
:1000760060DED3EB9FEA9EE99DE8C2E78CF0C2F70B
:1000860095F0400CE8CCF8E9CDF9EACEFAEBCFFBD7
:100096001203E285D0F05804700320D5B3E804704B
:1000A600075002B2D502042192D5EC0460F7E4CCE5
:1000B600C0E0C398F8603B94186008400DD0E0FBA0
:1000C6000203F9E4FBFAC9FC8028E830E406E4C937
:1000D600FBE4CAFCE830E305E4C9CACBFCE85407F4
:1000E6006010F8C3E913F9EA13FAEB13FBEC13FCFF
:1000F600D8F130F52FC3E49CFCEF9BFFEE9AFEEDA2
:1001060099FDD0E0FBEF4E4D4C701222DB0302044A
:100116001EEC2CFCEF33FFEE33FEED33FDED30E746
:10012600EB0203F9EF2BFFEE3AFEED39FDD0E0FBD3
:1001360050130BBB0003020421ED13FDEE13FEEF7B
:0801460013FFEC13FC0203F9A6
:10014E00EC4D6011E8497017ED33EC3304600DE4AB
:10015E00FCFFFEFD22E933E8330470F802041712A7
:10016E0003E258046009E4CC2481500628500902A9
:10017E00042128400302041EC0E0EB4A7044B980FB
:10018E0006D0E0FB02040DEF4E701CBD8008EBFFA5
:10019E00EAFEE9FD80EBE98DF0A4FEE5F002023700
:1001AE00E9CDF9EAFEEBFFEF89F0A4FCE5F0CE898C
:1001BE00F0A42EFFE435F0CD89F0A42DFEE435F049
:1001CE008067EF4E7005BD80D780C3EF8BF0A4AC77
:1001DE00F0EE8BF0A42CFCE435F0F8EF8AF0A42CB2
:1001EE00E5F038FCE433CB8DF0A42CFCE5F03BF8C5
:1001FE00EE8AF0A42CFCE5F038F8E433CF89F0A4B5
:10020E002CFCE5F038CF3400CE89F0A42FFFE5F0BA
:10021E003EFEE433C98DF0A42EFEE5F039CD8AF012
:10022E00A42FFFE5F03EFEE43DFD33D0E0FB50078A
:10023E000BBB000F020421EC2CFCEF33FFEE33FE60
:06024E00ED33FD0203F98F
:10025400020421EC5D046005E859047003020417EC
:100264001203E2580460F6EC4860F2EC7004FDFE00
:10027400FF22C860DB2481C85009C398600250067D
:1002840002041E9850CAF582E9294B4A7005AB82D4
:1002940002040D75F0007C1A7880C3EF9BEE9AED92
:1002A40099400DC3EF9BFFEE9AFEED99FDE842F0F5
:1002B400DC23ACF0D0E0FFD0E0FED0E0FDAB822048
:1002C400E7101BEB60BAEC2CFCEF33FFEE33FEEDD2
:1002D40033FD0203F9E803F830E705C0F075F000D8
:1002E400EF2FFFEE33FEED33FD40B830E7C280AAB6
:1002F40074F8CC6480CCC86480C8F58204604FC3B1
:10030400EB9FF5F0EA9E42F0E99D42F0E89C45F04F
:10031400603C501DE5825FFFE582D313CB5BCBF4D9
:100324002B5582FB50280ABA002409B90020088002
:100334001DE5825BFBE582D313CF5FCFF4C3132F9C
:100344005582FF50090EBE00050DBD00010CC3EB24
:100354009FF5F0EA9E42F0E99D42F0E89C45F0608A
:0903640007CC4820E701B3EC22AC
:10036D0075F020800E75F010800575F0087D007E0B
:10037D00007F003392D530D5031208E8EC334010DE
:10038D00EF33FFEE33FEED33FDEC33FCD5F0ED2214
:0E039D00E5F0247EA2D513CC92E7CDCEFF2250
:1003AB00EDD2E7CD33EC3392D524814006E4FFFE4A
:1003BB00FDFC22FCE4CFCECDCC24E0501174FF80A9
:1003CB00EDC3CC13CCCD13CDCE13CECF13CF047046
:0703DB00F030D5DE0208E856
:100E3800E5082407F582E43402F583E005082290EA
:100E48000204302003900207E475F00112095A02E7
:100E580006D42019E97F2ED2198018EF540F249058
:100E6800D43440D4FF301D0BEF24BFB41A00500314
:100E78002461FFE50960021509050CE50C700205FF
:100E88000B30200E900204E475F00112095AEF02AB
:100E9800071A023B337403D2208003E4C220F5080A
:100EA800900204120971E4F509F50BF50CE50960E7
:100EB800077F20120E7B80F5750AFFC21AC219C27D
:100EC8001BC21CC21EC21FC221120E47FF700D306A
:100ED80020057F00120E8CAF0CAE0B22B4255FC22A
:100EE800D5C21D120E47FF24D0B40A00501A75F05F
:100EF8000A780930D50508B6FF0106C6A426F620EB
:100F0800D5047002D21C80D924CFB41A00EF500443
:100F1800C2E5D21D02117ED21A80C6D21980C0D273
:100F28001B80BCD2D580BAD21E80B47F20120E7B23
:100F3800201B077401B5090040F1120E38FF120E8C
:100F48007B020EB5D221D21F8095120E38FB120EED
:100F580038FA120E38F94A4B7006797C7A127BFF00
:100F6800201B2EE509602A7E008E827583001206FA
:100F7800ED60060EEE650A70F0C2D5EBC0E0EAC07F
:100F8800E0E9C0E0EE1211DFD0E0F9D0E0FAD0E0FD
:100F9800FB1206D4FF60AAEBC0E0EAC0E0E9C0E0BB
:100FA800120E7BD0E02401F9D0E03400FAD0E0FB47
:100FB800E50A0460DCD50AD98087D21B80A2121109
:100FC800C160F7E50A70010412042CA90A600DE556
:100FD8000A600914F50A121269EF60F3EA30E702B1
:100FE800F404C3995079EAF4250A0430E701E404CB
:100FF800F50A800D1211C160C1EA050A250A12041A
:101008002CEA900233F030E701E4250A04D50A04FB
:10101800201E01141211DFE4C0E01212699002339D
:10102800E0601320E70714F0120E63802204F0D06A
:10103800E014C0E07F00120E63E50A6007120E5A42
:10104800150A800B301E03120E5AD0E0020EB5D0DE
:10105800E00480C41211C1609EE50A0412042C90B9
:101068000233EAF0E50A201E02600104240412118A
:01107800DF98
:1010790074FF04C0E0121269120E63E50A201E0211
:101089006003120E5AD0E0B50AE87F45120E6D9042
:101099000233E07F2B30E7047F2DF404C0E0120E09
:1010A9007BD0E075F00A84C0F0120E64D0E0120E15
:1010B90064020EB5791080027908C21FC221800826
:1010C900D2D5790A8004790AC2D5E50A047002F5F5
:1010D9000AE4FAFDFEFF120E38FC7B08201A1312EF
:1010E9000E38FD7B1030190A120E38FE120E38FF29
:1010F9007B20EC3382D592D55013C3E43019069F77
:10110900FFE49EFEE4201A039DFDE49CFCE4CBF879
:10111900C21AEC700CCFCECDCCE824F8F870F3806D
:1011290017C3EF33FFEE33FEED33FDEC33FCEB3346
:10113900FB994002FB0FD8E9EB301A05F8D0E0C45F
:1011490048B21AC0E00AEC4D4E4F78207B0070C2BD
:10115900EAB50A0040BCC0E01211E1D0F0D0E020AD
:101169001A04C4C0E0C4B21AC0F0120E64D0F0D59B
:10117900F0EB020EB512097A0F525310BD580F2326
:101189004C0F1F4210C14F10C94410C9490F3843B1
:1011990010CF550FFC46105C450FC647129C500FE7
:1011A900272D0F2B2E0F4E2B0F2F230F4C2012857F
:1011B9002A0EE74800000F46E50AB4FF03750A0640
:1011C900120E38FC120E38FD120E38FE120E38FFC0
:1011D90090022C020469790AA2D5201C14301E0938
:1011E900B910020404B9080104A2D5201F02500154
:1011F90004201B68921BB509005034C0E07F2030E1
:101209001C197F30A21B721F721E500F121238C296
:101219001BC21FC21EC2217F30800F301E03E9C0CE
:10122900E0120E7B301E03D0E0F9D0E0B509CC30D6
:101239001E177F30B9100C120E7B7F58301D077FA7
:10124900788003B90803120E7B301B057F2D020E2F
:101259007B7F202021F87F2B201FF322921B80CF38
:101269007F00B40700500B242CF582E43402F58387
:10127900E0FF22286E756C6C2900D21A120E3830E4
:101289001AF8C21A780930D50108F6020EE72D506E
:10129900434958120E382403B405004001E4901262
:1012A9009793120E6C743A120E6CD21C75090402D3
:0212B90010BD66
:1003E200E9D2E7C933E833F892D5EDD2E7CD33EC61
:0703F20033FC5002B2D522DA
:1003F900EC30E7100FBF000C0EBE00080DBD000465
:100409000BEB6014A2D5EB13FCED92E7FD2274FF10
:10041900FCFDFEFF22E480F8A2D574FF13FC7D8069
:03042900E480EF7D
:10042C00F920E73624F950037907E4F42402FBE5BC
:10043C0082158270021583DBF6E024FB501BE96009
:10044C0014E4F0E582158270021583E004F0B40A1E
:0D045C0008E4F0D9EE7401F00A22C2D522A6
:10046900ED33EC3392D5FA602AB4FF33EDC2E77B62
:10047900FF60067A04798EE4227A04799720D504FC
:100489007A047992224E614E002B494E46002D493D
:100499004E4600E47A08F0A3DAFC7B00740722C018
:1004A90083C082ECC0E0EDC0E0EEC0E0EFC0E0EA5E
:1004B90075F010A4CAABF075F04DA42BFBE435F030
:1004C900FCEA2410FAEB34C5FBEC34D9FCEDC2E7A5
:1004D900FF75F056A4F42411C5F0F434C58FF0A4C7
:1004E9002AE5F03BE43CF020E71412059ED0E0FF3A
:1004F900D0E0FED0E0FDD0E0FC1202578014F404F5
:1005090012059ED0E0FFD0E0FED0E0FDD0E0FC1265
:10051900014ED082D083E0FAEDD2E7CD33EC33241B
:1005290082FBE4C3CF33CFCE33CECD33CD33DBF330
:100539007B0775F00A846004F0A31B0AE5F0F0A3B9
:100549008FF0740AA4FFACF08EF0740AA42CFEACF0
:10055900F050010C8DF0740AA42CFDE435F0F0A3E1
:05056900DBDE74072237
:10056E003F8000004120000042C80000447A000095
:10057E00461C400047C35000497424004B18968017
:10058E004CBEBC205A0E1BCA6753C21C749DC5AE0E
:10059E00FB60065407601C23231205CCEB54386015
:1005AE00091205B81205C712014EECF8EDF9EEFA74
:1005BE00EFCB22EB1205C780F1543803241C9005B3
:1005CE006EFE93FC0EEE93FD0EEE930ECE93FF2277
:10306B00021DA6E493A3F8E493A34003F68001F2B8
:10307B0008DFF48029E493A3F85407240CC8C33366
:10308B00C4540F4420C8834004F456800146F6DF35
:10309B00E4800B0102040810204080901537E47E79
:1030AB00019360BCA3FF543F30E509541FFEE4932A
:1030BB00A360010ECF54C025E060A840B8E493A3F1
:1030CB00FAE493A3F8E493A3C8C582C8CAC583CA1C
:1030DB00F0A3C8C582C8CAC583CADFE9DEE780BED4
:01176D00007B
:1005DE00E709F608DFFA8046E709F208DFFA803EFF
:1005EE0088828C83E709F0A3DFFA8032E309F608EC
:1005FE00DFFA8078E309F208DFFA807088828C8354
:10060E00E309F0A3DFFA806489828A83E0A3F60807
:10061E00DFFA805889828A83E0A3F208DFFA804CE1
:10062E0080D280FA80C680D4806980F280338010B8
:10063E0080A680EA809A80A880DA80E280CA803321
:10064E0089828A83ECFAE493A3C8C582C8CCC58399
:10065E00CCF0A3C8C582C8CCC583CCDFE9DEE78069
:10066E000D89828A83E493A3F608DFF9ECFAA9F0E8
:10067E00EDFB2289828A83ECFAE0A3C8C582C8CC3E
:10068E00C583CCF0A3C8C582C8CCC583CCDFEADE57
:10069E00E880DB89828A83E493A3F208DFF980CCB9
:1006AE0088F0EF60010E4E60C388F0ED2402B404B2
:1006BE000050B9F582EB2402B4040050AF23234559
:0606CE00822390062E734A
:1006D400BB010689828A83E0225002E722BBFE0224
:0906E400E32289828A83E4932257
:1006ED00BB010CE58229F582E5833AF583E02250C2
:1006FD0006E92582F8E622BBFE06E92582F8E2220C
:0D070D00E58229F582E5833AF583E4932225
:10071A00BB010689828A83F0225002F722BBFE01BE
:02072A00F322B8
:10072C00F8BB010DE58229F582E5833AF583E8F003
:10073C00225006E92582C8F622BBFE05E92582C8AF
:02074C00F22297
:10074E00EF8DF0A4A8F0CF8CF0A428CE8DF0A42EBF
:02075E00FE2279
:10076000BC000BBE0029EF8DF084FFADF022E4CC7D
:10077000F875F008EF2FFFEE33FEEC33FCEE9DEC46
:10078000984005FCEE9DFE0FD5F0E9E4CEFD22ED8C
:10079000F8F5F0EE8420D21CFEADF075F008EF2FD6
:1007A000FFED33FD4007985006D5F0F222C398FDC7
:0507B0000FD5F0EA2264
:1007B500C5F0F8A3E028F0C5F0F8E58215827002CF
:0607C5001583E038F0226C
:1007CB00E88FF0A4CC8BF0A42CFCE98EF0A42CFCCD
:1007DB008AF0EDA42CFCEA8EF0A4CDA8F08BF0A44B
:1007EB002DCC3825F0FDE98FF0A42CCD35F0FCEBAA
:1007FB008EF0A4FEA9F0EB8FF0A4CFC5F02ECD396F
:0F080B00FEE43CFCEAA42DCE35F0FDE43CFC22DB
:10081A0075F008758200EF2FFFEE33FECD33CDCC95
:10082A0033CCC58233C5829BED9AEC99E582984018
:10083A000CF582EE9BFEED9AFDEC99FC0FD5F0D6F5
:10084A00E4CEFBE4CDFAE4CCF9A88222B800C1B91F
:10085A000059BA002DEC8BF084CFCECDFCE5F0CB5D
:10086A00F97818EF2FFFEE33FEED33FDEC33FCEB96
:10087A0033FB10D703994004EB99FB0FD8E5E4F951
:10088A00FA227818EF2FFFEE33FEED33FDEC33FC3E
:10089A00C933C910D7059BE99A4007EC9BFCE99A32
:1008AA00F90FD8E0E4C9FAE4CCFB2275F010EF2F77
:1008BA00FFEE33FEED33FDCC33CCC833C810D70777
:1008CA009BEC9AE899400AED9BFDEC9AFCE899F8B2
:0E08DA000FD5F0DAE4CDFBE4CCFAE4C8F92245
:10385900C2D5E830E70FB2D5E4C39BFBE49AFAE49A
:1038690099F9E498F8EC30E717B2D512388F1208B5
:1038790056E4C39BFBE49AFAE499F9E498F88003C7
:1038890012085630D50DE4C39FFFE49EFEE49DFD6A
:04389900E49CFC228D
:0E08E800C3E49FFFE49EFEE49DFDE49CFC2221
:1008F600EB9FF5F0EA9E42F0E99D42F0EC6480C879
:0609060064809845F02218
:10090C00EB9FF5F0EA9E42F0E99D42F0E89C45F041
:01091C0022B8
:0C091D00ECF0A3EDF0A3EEF0A3EFF0224D
:10092900A8828583F0D083D082120940120940122F
:100939000940120940E473E493A3C583C5F0C58354
:10094900C8C582C8F0A3C583C5F0C583C8C582C818
:01095900227B
:10095A00F8E0FBA3A3E0F925F0F0E5821582700226
:07096A001583E0FA38F022CA
:09097100EBF0A3EAF0A3E9F02287
:10097A00D083D082F8E4937012740193700DA3A30C
:10098A0093F8740193F5828883E473740293686020
:06099A00EFA3A3A380DF20
:0609A0008A838982E473E2
:103B3300EFB40A07740D123B3E740A309811A8992A
:103B4300B8130CC2983098FDA899C298B811F630F2
:073B530099FDC299F59922CA
:103D1F00E4FFFE1206D4600C0FEF70010E09E9707C
:053D2F00F20A80EF2202
:00000001FF
