:03000000022EE2EB
:0C2EE200787FE4F6D8FD75817D022F2971
:101E180090012612099700000000120046123CE0CB
:101E2800123D7C123D84123C58123B11123D621245
:101E38003D0C120026123B9F123BC3123C94123DEC
:101E48006B123A3C12390D90012B120997000000D1
:101E5800007F021223D2E4FD7F0C12219F7D017FB7
:101E68000112219F7D017F0B12219F123C481236DF
:101E7800D43010047F0180027F00EF6008C2101286
:101E88001B981222BB3011047F0180027F00EF6093
:101E980008C211122764122AC03000047F01800290
:101EA8007F00EF6008C200121782121132300A0454
:101EB8007F0180027F00EF600EC20A300503121214
:101EC800CD122F6E1234083016047F0180027F0075
:101ED800EF609EC216900126E0FCA3E0FDA3E0FEA1
:101EE800A3E02401FFE43EFEE43DFDE43CFC900158
:101EF8002612097290022EE0B4010512387F80067E
:101F0800201703123A3CE47B05FAF9F8900126E021
:101F1800FCA3E0FDA3E0FEA3E0FF120886AC00AD41
:101F280001AE02AF03E4FBFAF9F8C312093C7003EF
:101F38001239DA122D2D900269E0B40103121CD96E
:0C1F4800201403021E791235C9021E7914
:100EC30041002101C110C111C100C10AC116440171
:100ED3002100000000047A000000000178000127CF
:100EE30000C106017900012600C115C112C10FC15D
:100EF30013C10C420017000044001100000000421F
:100F03000019000042000E000020502800000000DD
:100F130000000000000000000000000000000000CE
:100F230000000000000000000000000000000000BE
:100F330000000000000000000000000000000000AE
:100F4300000000000000000000000000000000009E
:100F53000000000000000000000000000125004127
:100F6300001000410125004100060041011F00C19E
:100F73000BC103C108C1014200E0000AC10EC10D4B
:100F83004100EEFFC107C10944011B0000000060DE
:100F93002000260000000000000000000000000008
:100FA300000000000000000000000000000000003E
:100FB30000000041000D0042000B0000420015003C
:100FC300004200E20000420004000044002200004E
:100FD300000042001F000044000000000000C11791
:100FE3004400070000000044001B00000000440010
:100FF300DC0000000044011700000000C1024101B1
:101003002000C105C104C114602800EF00000000E6
:1010130000000000000000000000000000000000CD
:1010230000000000000000000000000000000000BD
:0410330000000000B9
:02103700C125D1
:1000260075BA0375AAB843918043878043A8907533
:050036009850C2992260
:030023000237BBE6
:1037BB00C0E0C0D075D000C000C007309816C298CA
:1037CB007825E6FFC39450500F74282FF8A69978EC
:1037DB0025068004C225C299D007D000D0D0D0E0F6
:0137EB0032AB
:08000300D2258F992025FD2272
:103BC30053D2EF53D3EF53D2F753D3F7D284D283E5
:013BD30022CF
:0E30FB00900189EBF0A3EAF0A3E9F0A3EDF059
:10310900E4A3F0900125E02DFFE433FED3EF94967C
:10311900EE648094805058E490018DF090018CE029
:10312900FFA3E0C39F5033900189E0FBA3E0FAA31A
:10313900E0F990018DE0FEF58275830012071DFD0F
:10314900900125E0FCEE2C2446F582E43400F58359
:10315900EDF090018DE004F080C2900125E02FF0A0
:0F316900200B0C900006740AF090011F7403F005
:013178002234
:10103900410278004102790041027A0041027700B9
:0D000E00D2A9438920758CC0D2AFD28C22BC
:0A3D0C0012000E90027A7403F022F8
:03000B0002297C4B
:0D297C00C0E0C083C082C0D075D000C0078D
:10298900900006E07003022A1390011FE014F07012
:102999007990027AE090011FF0900006E0FF14F0B0
:1029A900EF24F6603A24097055D284900125E0FF9E
:1029B900900010E06F601BE0FF04F074462FF58271
:1029C900E43400F583E0900277F0900006740AF091
:1029D9008038900010E4F0900125F0C20B802BD2D2
:1029E9000BC284900010E07021E0FF04F074462FC0
:1029F900F582E43400F583E0900277F0800C9002D0
:0A2A090077E0FF139284EFC313F08F
:0B2A1300D007D0D0D082D083D0E032BA
:1024D20067657420757365722074696D6520657215
:1024E200726F723A25640D0A00757365725F7469C2
:1024F2006D65723A25640D0A0000000000000000BC
:1025020000000000000000000000000000000000C9
:1025120000000000000000000000000000000000B9
:1025220000000000000000000000000000000000A9
:102532000000000000000000000000000000000099
:102542000000000000000000001B2A0141040000FE
:102552000000000000000000000000000000000079
:102562000000000000092A004400000100002311BD
:102572002A0145AF0000000000000000000000003A
:102582000000000000000000000000000000000049
:102592000000000000000000000000000000000732
:1025A2002A0149030000230A2A014905000000000C
:1025B20000230B2A01490801000000000023092A18
:0825C200014908030000002399
:10104900605001B90000000000000000000000002D
:101059000000000000000000000000000000000087
:101069000000000000000000000000000000000077
:101079000000000000000000000000000000000067
:101089000000000000000000000000000000000057
:08109900000000004102090003
:0E365800900197EBF0A3EAF0A3E9F0A3EDF0E8
:10366600E4A3F0F090019AE0FFA3E0FEC39F501F91
:10367600900197E0FBA3E0FAA3E0F98E8275830040
:0F36860012071DFF12000390019BE004F080D596
:013695002212
:0E2B6200900157EBF0A3EAF0A3E9F0A3EDF029
:102B7000E4A3F0A3F0785D7C017D017BFF7A2479EA
:102B8000FBFE7F281206DE90015AE0FF7825E6FE64
:102B9000D39F5006EEC3945040157E007F507D00B9
:102BA0007B007A007928120A14E47825F6FF22784F
:102BB00025E6600A600B2427F9E7642360037F00A1
:102BC0002290015BE0FFC3782596502274282FF8ED
:102BD000E6FE900157E0FBA3E0FAA3E0F98F8275CF
:102BE0008300EE12075C90015BE004F080D3E47890
:102BF00025F6FEFDFB7A007928120A1490015BE0AD
:012C0000FFD4
:012C010022B0
:10113200E490012BF0A3F0A3F0782E7C017D017BDB
:10114200FF7A257923FE7F281206DEE4900156F00D
:10115200900209E0FF24B9F9E43401FA7B01C37477
:10116200509FFD122B62EF70030212CC900209E035
:101172002FF0E090012DF0E490012AF0900209E0B6
:10118200FF90012AE0FEC39F40030212CC74B92EE5
:10119200F582E43401F583E0642A60030212A3EECF
:1011A20070030212A324B8F582E43401F583E0FD52
:1011B20090012CF0EE2DFDE433FCD3ED9F7480F80A
:1011C2006C9840030212A3E0FF90012AE02F24B89A
:1011D200F582E43401F583E0642360030212A37410
:1011E200B82EF9E43401FA7B01122FF990012CE0B8
:1011F200FF90012AE02FF0900209E0FF90012AE01F
:10120200FEC39F50030212C3EEB507157E007D0098
:101212007B017A0179B9120A14E4900209F00212F0
:10122200A3E490012BF090012AE0FF900209E0FD77
:10123200C39FFFE49400CF2401CF3400FE90012B22
:10124200E0C39FEE6480F8748098502FE0FF900115
:101252002AE0FE2F24B8F582E43401F583E0FC7421
:10126200B92FF582E43401F583ECF0C3ED9E0490CE
:101272000209F090012BE004F080AB900209E0FF3C
:10128200FD90012DE0C39DF582E49400F58374B9CD
:101292002FF9E43401FA7B017D00AE83AF82120A9A
:1012A2001490012AE0C394504017900209E0FF7E97
:1012B200007D007B017A0179B9120A14E4900209D7
:0A12C200F090012AE004F002117E12
:0112CC0022FF
:0B2FF900900157EBF0A3EAF0A3E9F011
:10300400120704FF90000112071D642A70689001E2
:1030140057E0FBA3E0FAA3E0F98F8275830012075F
:103024001D6423705190000312071DB44103021F55
:1030340054900157E0FBA3E0FAA3E0F990000312D7
:10304400071DB4440302398E900157E0FBA3E0FA54
:10305400A3E0F990000312071DB44503021467901E
:103064000157E0FBA3E0FAA3E0F990000312071D67
:06307400B44903122826F6
:01307A002233
:101F5400785A7C017D017BFF7A25794B7E007F1CBA
:101F64001206DEE4900177F0FF900021E090015C1E
:101F7400F0E4900176F0900176E0FEC3940440030F
:101F8400022068EE701690001FE0FCA3E0FDE4124E
:101F940003A290020A1209727F508057900176E0E2
:101FA400B401169000E2E0FCA3E0FDE41203A29069
:101FB400020A1209727F5A803A900176E0B402163E
:101FC400900004E0FCA3E0FDE41203A290020A12D4
:101FD40009727F4F801D900176E0B40316900022B1
:101FE400E0FCA3E0FDA3E0FEA3E0FF90020A1209D7
:101FF400727F4A900176E0FE75F005A4245FF582B5
:10200400E43401F583EFF090020AE0FDEE75F0058B
:10201400A42460F582E43401F583EDF090020BE032
:10202400FDEE75F005A42461F582E43401F583ED39
:10203400F090020CE0FDEE75F005A42462F582E454
:102044003401F583EDF090020DE0FDEE75F005A48A
:102054002463F582E43401F583EDF0900176E00425
:10206400F0021F7AE4900173F0A3F0A37423F07BD1
:0A207400017A01795A7D1C023658EA
:10398E00785A7C017D017BFF7A2579677E007F0A5C
:10399E001206DE900021E0900160F07B017A017941
:0639AE005A7D0A023658A2
:0B14670090015AEBF0A3EAF0A3E9F0BB
:10147200E4A3F0785E7C017D017BFF7A257971FE21
:101482007F121206DE90015AE0FBA3E0FAA3E0F914
:1014920090000412071D90015DF0D3940A506FE092
:1014A200B40B0050679014AEF82828730214CF02D0
:1014B20014D70214D70214D70214D70214F4021458
:1014C200F90214FE02150302150E02150830157BEF
:1014D20012371180762015051233A6806E90015DB9
:1014E200E0FF123A7890015DE004FF7D0112219F36
:1014F2008059123C388054123AC6804F123D018006
:101502004A123CF68045200942123A92803D9001EF
:101512005DE0FFC394104046EFD394135040EF2494
:10152200EF601214601714601C2403701E30151B28
:1015320012371180162015131233A6800E30120BAB
:10154200123D598006201203123D5090015AE0FBD1
:10155200A3E0FAA3E0F912070404FD0215F59001D5
:101562005DE064AF60030215F8900021E090016035
:10157200F0A215E433900163F0A212E433A3F078F1
:1015820026E6A3F0A208E433A3F0A207E433A3F013
:10159200900269E0900168F090026AE0FAA3E0FB31
:1015A2007C007D3CFFAE02120790900169EFF07C57
:1015B200007D3CAF03AE02120790A3EDF090026CE7
:1015C200E0FAA3E0FB7C007D3CFFAE0212079090A4
:1015D200016BEFF07C007D3CAF03AE02120790A3DB
:1015E200EDF0E4A3F0A3F0A37423F07B017A017978
:0615F2005E7D1212365866
:0115F80022D0
:0B28260090015AEBF0A3EAF0A3E9F0E8
:10283100E4A3F0A3120997000000009001621209BD
:10284100970000000090015AE0FBA3E0FAA3E0F931
:1028510090000412071DFF64036079EFB4050302C1
:102861001A5790015AE0FBA3E0FAA3E0F9900004A3
:1028710012071D6408705D90000512071DB4010662
:10288100201451023BD490015AE0FBA3E0FAA3E0EB
:10289100F990000512071DB40206300537023BE529
:1028A10090015AE0FBA3E0FAA3E0F99000051207BA
:1028B1001DB4030620051D023B7A90015AE0FBA3DB
:1028C100E0FAA3E0F990000512071DB404063014E4
:0428D10003123D8C25
:0128D50022E0
:0B1A5700900166EBF0A3EAF0A3E9F0B9
:101A6200E4A3F0A3F0786B7C017D017BFF7A2579FA
:101A720083FE7F1E1206DE900166E0FBA3E0FAA35E
:101A8200E04A4B7003021B97900166E0FBA3E0FA69
:101A9200A3E0F990000512071D70030238AF900110
:101AA20066E0FBA3E0FAA3E0F990000512071D64CB
:101AB200016003021B9790000612071DFF7E007C47
:101AC200007D3C12077E90000712071D2FFFEC3E9F
:101AD200FE90026AF0A3EFF0900169EEF0A3EFF03E
:101AE20064784E602E900169E07004A3E064F060B7
:101AF200227E007F1E7D007B017A01796B120A141F
:101B020090018C74FFF0A37424F0A374D2F09001BE
:101B1200698059900169E0FEA3E0FF64784E700786
:101B220090012004F0800CEF64F04E7006900120CA
:101B32007402F0900166E0FBA3E0FAA3E0F912342C
:101B420063900120E0FF1234BD1239FC7E007F1E3B
:101B52007D007B017A01796B120A1490018C74FF6B
:101B6200F0A37424F0A374EBF090026AE0FFA3E008
:101B720090018FCFF0A3EFF07B017A01796B120A0B
:101B8200A57B017A01796B123B52AD077B017A0189
:051B9200796B1230FB2D
:011B9700222B
:1039B400782B7C017D017BFF7A2579A17E007F082D
:1039C4001206DE900021E090012DF07B017A01794E
:0639D4002B7D08023658AD
:0B346300900189EBF0A3EAF0A3E9F070
:10346E00788C7C017D017BFF7A2579A97E007F0B0C
:10347E001206DE900021E090018EF0900189E0FBB3
:10348E00A3E0FAA3E0F990000512071D900191F058
:10349E0090000612071D900192F090000712071D72
:0F34AE00900193F07B017A01798C7D0B023658E7
:1036960078707C017D017BFF7A2579B47E007F0CF2
:1036A6001206DE900021E0900172F09000E6E090B4
:1036B6000176F090000BE0FCA3E0FDEC900177F0C2
:0E36C600A3EDF07B017A0179707D0C0236587D
:1038DF0078667C017D017BFF7A2579C07E007F0AA7
:1038EF001206DE900021E0900168F09000E9E09070
:0E38FF00016CF07B017A0179667D0A02365871
:0910A100C121C12242027B0000C2
:103C180075DF0375DEB843A880439A0175DCB022CE
:030083000225CA89
:1025CA00C0E0C0F0C083C082C0D075D000C000C0D7
:0D25DA0001C002C003C004C005C006C00758
:1025E700E5DC20E00302267A53DCFE90000DE0FFD5
:1025F700C39420400302268174262FF582E4340019
:10260700F583E5DDF090000DE004F0E0FFB4011183
:1026170090027BE4F0A3F0900026E06442605E80C5
:1026270059EFB4020A900027E0644D6050804B9048
:10263700000DE0FFC394044044EFB4041590002854
:10264700E0FEA3E0FDED2404FFE43E90027BF0A34F
:10265700EFF090027BE0FEA3E0FFD39420EE94001E
:10266700501890000DE07C00B50712ECB5060ED2AD
:0D26770022800AC22153DCFD8003123AF9D3
:10268400D007D006D005D004D003D002D001D000AA
:0B269400D0D0D082D083D0F0D0E03254
:083D7400D2218FDD2021FD2288
:103AF90090000DE0FF7E007D007B017A007926129F
:083B09000A14E490000DF02203
:0B005600900131EBF0A3EAF0A3E9F009
:10006100E4FEEEC39D501A900131E0FBA3E0FAA338
:10007100E0F98E8275830012071DFF123D740E8018
:01008100E19D
:01008200225B
:103B8D00E4FDFCC3ED9FEC9E50070DBD00010C80C4
:013B9D00F235
:013B9E002204
:10326D00900231A3E0FAA3E0F5828A837F01120A6E
:10327D001290023DA3E0FAA3E0F9120A0E90023774
:10328D00A3E0FAA3E0F9120A0E900243A3E0FAA319
:10329D00E0F9120A0E900237A3E0FAA3E0F9120A40
:1032AD000E900240A3E0FAA3E0F9120A0E90023745
:1032BD00A3E0FAA3E0F9120A0E900246A3E0FAA3E6
:1032CD00E0F9120A0E900237A3E0FAA3E0F9020A20
:0132DD000EE2
:10351700900231A3E0FAA3E0F5828A837F01120AC1
:1035270012900240A3E0FAA3E0F9120A0E900237C4
:10353700A3E0FAA3E0F9120A0E900243A3E0FAA36C
:10354700E0F9120A0E900237A3E0FAA3E0F9120A93
:103557000E90023DA3E0FAA3E0F9120A0E9002379B
:09356700A3E0FAA3E0F9020A0E48
:10307B00E490013AF090023DA3E0FAA3E0F9120AC2
:10308B000E900231A3E0FAA3E0F5828A83E4FF12EB
:10309B000A12900237A3E0FAA3E0F9120A0E90028B
:1030AB0043A3E0FAA3E0F9120A0E900237A3E0FA69
:1030BB00A3E0F9120A0E900249A3E0FAA3E0F91279
:1030CB000A0EEF600890013A7401F08005E490015C
:1030DB003AF0900246A3E0FAA3E0F9120A0E90022E
:0F30EB0037A3E0FAA3E0F9120A0E90013AE0FFD2
:0130FA0022B3
:1032DE00900231A3E0FAA3E0F5828A837F01120AFD
:1032EE0012900240A3E0FAA3E0F9120A0E90023700
:1032FE00A3E0FAA3E0F9120A0E900243A3E0FAA3A8
:10330E00E0F9120A0E900237A3E0FAA3E0F9120ACE
:10331E000E900246A3E0FAA3E0F9120A0E900237CD
:10332E00A3E0FAA3E0F9120A0E90023DA3E0FAA37D
:05333E00E0F9020A0E97
:10357000900231A3E0FAA3E0F5828A837F01120A68
:103580001290023DA3E0FAA3E0F9120A0E9002376E
:10359000A3E0FAA3E0F9120A0E900243A3E0FAA313
:1035A000E0F9120A0E900237A3E0FAA3E0F9120A3A
:1035B0000E900246A3E0FAA3E0F9120A0E90023739
:0935C000A3E0FAA3E0F9020A0EEF
:0531790090013AEFF0A7
:10317E00900231A3E0FAA3E0F5828A837F01120A5E
:10318E001290013AE0A3F0E4A3F090013BE05480EA
:10319E007005900240800390023DA3E0FAA3E0F98F
:1031AE00120A0E900243A3E0FAA3E0F9120A0E905F
:1031BE000237A3E0FAA3E0F9120A0E900246A3E04A
:1031CE00FAA3E0F9120A0E900237A3E0FAA3E0F98F
:1031DE00120A0E90013BE025E0F0A3E004F0E0C3FC
:0431EE00940840A65B
:0131F20022BA
:1031F300E490013BF0900231A3E0FAA3E0F5828A68
:1032030083E4FF120A12E490013AF090013BE025B7
:10321300E0F0900243A3E0FAA3E0F9120A0E900251
:1032230037A3E0FAA3E0F9120A0E900249A3E0FAE9
:10323300A3E0F9120A0EEF600790013BE04401F0AE
:10324300900246A3E0FAA3E0F9120A0E900237A314
:10325300E0FAA3E0F9120A0E90013AE004F0E0C3A9
:09326300940840A790013BE0FF34
:01326C00223F
:0E2E5400900134EFF0A3EBF0A3EAF0A3E9F055
:102E620012326D900134E025E04401FF12317912F3
:102E7200307BEF7063900138E07002A3E060529003
:102E82000230E0FB70057F64FE8008EBB401077F2F
:102E92000A7E00123B8D1231F3900135E0FBA3E074
:102EA200FAA3E0F9EF12074A900136E475F0011235
:102EB20007E5900139E024FFF0900138E034FFF09B
:102EC200E07002A3E0700512357080051232DE80D8
:0F2ED200A4123517E4FEFF221235177E007F0190
:012EE10022CE
:0E2C9900900134EFF0A3EBF0A3EAF0A3E9F012
:102CA70012351712326D900134E025E0FF123179A9
:102CB70012307BEF7068900138E07002A3E060503B
:102CC700900230E0FB70057F64FE8008EBB40107DB
:102CD7007F0A7E00123B8D900135E0FBA3E0FAA34B
:102CE700E0F9120704FF12317912307BEF702F9051
:102CF7000139E024FFF0900138E034FFF0E0700282
:102D0700A3E0600C900136E475F0011207E580A698
:102D17007F3C7E00123B8D123517E4FEFF221235F1
:052D2700177E007F0192
:012D2C002284
:05001E000000000000DD
:1010AA004B024E3F065B4F666D7D077F6F00410224
:0610BA004C0041024D0054
:0B3CD500EF1FAC0670011E4C70F622C1
:103B670043D20653D3F943D61053D7EFD281D2A409
:033B7700D28222D5
:0C004600123B67123D16123AE0023D2A00
:0E374C00123D207F027E00123CD5C281AF01EB
:10375A00E4FDAB07C2A4EB30E004D2828002C2824D
:10376A007F017E00123CD5D2A47F017E00123CD597
:09377A00EBC313FB0DEDB408DBF9
:013783002223
:0A3D1600C2817F0212375AD28122C7
:0A3D2000C2817F4012375AD281227F
:10269F00900137EFF0900139EBF0A3EAF0A3E9F0E6
:0526AF00900138EDF080
:1026B400E490013DF0FAEDC39407400302276390D0
:1026C4000138E0FF7003022763C374079FFFE4949B
:1026D40000FEEF25E0FFEE33FE90013CE0D39FEED9
:1026E4006480F87480985077900138E025E024BE27
:1026F400F912374CE490013DF090013CE0FFA3E077
:10270400FEC39F5058900137E0B40126EEB4042272
:10271400900139E0FBA3E0FAA3E0F98E827583000F
:1027240012071D244EF582E43402F583E04480FA56
:10273400801E900139E0FBA3E0FAA3E0F98E8275D4
:10274400830012071D244EF582E43402F583E0FA77
:0F275400AF0212375A90013DE004F0809CD28111
:012763002253
:103AE000E4FA123D20C2817FC012375AE4FF123738
:083AF0005A0AEAB40CF6D28177
:013AF80022AB
:0A3D2A00C2817F8B12375AD281222A
:0523D20090012AEFF06C
:1023D700E490012FF078307C017D017BFF7A007952
:1023E7001EFE7F051206DEE4900135F0A3F0900192
:1023F7002AE0B40134E4FFFE7D207C41A3E0F8A38A
:10240700E0F9A3E0FAA3E0FB12032440028039E4D9
:10241700FFFE7DC87C4290012BE0F8A3E0F9A3E022
:10242700FAA3E0FB12017E803990012AE0B4023D55
:10243700E4FFFE7D7A7C44A3E0F8A3E0F9A3E0FA89
:10244700A3E0FB120324400C9001357403F0A3743E
:10245700E7F0801990012BE0FCA3E0FDA3E0FEA3C9
:10246700E0FF1203DB900135EEF0A3EFF0900135AA
:10247700E0FAA3E0FB7C007D64FFAE0212079090B8
:102487000134EFF07C007D64AF03AE021207907E4B
:10249700007F0ACFCDCFCECCCE120790900132EF7E
:1024A700F0900135E0FEA3E0FF7C007D0A12079063
:1024B700900130EDF090012AE0FF7B017A0179303D
:0B24C70090013C7405F07D0102269F8F
:02219F00AA078D
:1021A100E4F990018AF0EAC3940D40030222BAEDEA
:1021B100C3940240030222BAEAD394065048ED6464
:1021C100017026EAC39402400DEAD39405500790AA
:1021D100024CE054C3F090024CE0FF7401A80208E5
:1021E1008002C333D8FC4F801290024CE0FF74018F
:1021F100A802088002C333D8FCF45F90024CF07946
:10220100C890024C8075EAC3940C5076ED6401705D
:102211004B90024DE0FFEA24F9FE7401A806088004
:1022210002C333D8FC4F90024DF0EAB40813E0FF2B
:10223100EA24FAFE7401A806088002C333D8FC80A0
:102241002FEA6409703090024DE0FFEA24F8FE7431
:1022510001A806088002C333D8FC801490024DE027
:10226100FFEA24F9FE7401A806088002C333D8FCF2
:10227100F45F90024DF079CA90024DE090018AF02E
:10228100801AEAB40C16ED90024CB40107747FF089
:10229100A3F080067402F0E4A3F079C812374CEA87
:1022A100640C600590018A800990024CE0FF1237AE
:0922B1005AA3E0FF12375AD28152
:0122BA002201
:102C0200625F73756D3A307825782C745F73756DD9
:102C12003A307825780D0A00706D313A25642C70AF
:102C22006D32353A25642C706D31303A25642C486A
:102C320043484F3A25660D0A0073656E736F722022
:102C420062756666206572720D0A00736574207380
:102C5200656E736F72206D6F646520737563636553
:102C620073730D0A00636865636B2073756D20656D
:102C720072720D0A006F7574206F66206275666647
:102C82002072616E67650D0A00424DE1000001701D
:072C9200424DE20000017158
:1010C0006020020E00000000000000000000000090
:1010D0000000000000000000000000000000000010
:0410E000000000000C
:093D3E0043DA0453DBFBD2B2228C
:103B9F00123C18123D3EC217E490022FF090022EF5
:023BAF00F02202
:033DB400D2B22266
:05003E00C2B2C217224E
:0C3CB10090022E7401F0C217E4A3F02270
:10387F0090022FE0FF700512003E800AEFB4010A9C
:10388F00123DB490022FE004F022EFC39402400FD8
:10389F00201703023A3CE490022FF090022EF02200
:103A3C00782A7C017D017BFF7A2C798B7E007F07B5
:0E3A4C001206DE7B017A01792A7D0702005600
:1039DA00782A7C017D017BFF7A2C79927E007F0711
:1039EA001206DE30170B7B017A01792A7D07120055
:0139FA005676
:0139FB0022A9
:0E207E00900130EBF0A3EAF0A3E9F0A3EDF03F
:10208C00E4A3F0A3F0A3F0A3F0A3F0900130E0FBE5
:10209C00A3E0FAA3E04A4B6007A3E0C39404500901
:1020AC009001347402F0022199900133E0FD24FE7A
:1020BC00FFE434FFFE900130E0FBA3E0FAA3E0F96B
:1020CC008F828E8312071DFE7C0074FF2DF582EC2F
:1020DC0034FFF58312071DFDEDFF900135EEF0A3E3
:1020EC00EFF0E4FF900133E024FEFEEFC39E50249A
:1020FC00900130E0FBA3E0FAA3E0F98F8275830036
:10210C0012071DFD900138E02DF0900137E03400EE
:10211C00F00F80D0900137E0FEA3E0FF900135E096
:10212C006E7003A3E06F60607E007F287D007B01F2
:10213C007A0079EF120A1490018C74FFF0A3742CBE
:10214C00F0A37402F0900135E0FFA3E090018FCF73
:10215C00F0A3EFF0900137E0FFA3E0900191CFF0F6
:10216C00A3EFF07B017A0079EF120AA57B017A00CC
:10217C0079EF123B52AD077B017A0079EF1230FBFD
:10218C009001347401F08005E4900134F090013436
:02219C00E0FF62
:01219E00221E
:1015F9001207046442600302173690000112071DA6
:10160900644D600302173690000A12071DFE900010
:101619000B12071DFDEDFF9000E2EEF0A3EFF09035
:10162900000C12071DFE90000D12071DFDEDFF9025
:10163900000BEEF0A3EFF090000E12071DFE9000D4
:101649000F12071DFDEDFF900004EEF0A3EFF090DF
:10165900001C12071DFE90001D12071DFDEEFCE483
:101669001203A2E4FBFA797A7844120287900022E5
:1016790012097290000BE0FEA3E0FFC39402EE94FE
:101689000090001F5008E4F0A37402F08005EEF00A
:10169900A3EFF07F0A7ED77D237C3C900022E0F8FF
:1016A900A3E0F9A3E0FAA3E0FB12008D9000001279
:1016B90009727E007F287D007B017A0079EF120A8A
:1016C9001490018C74FFF0A3742CF0A3741AF09099
:1016D90000E2E0FFA3E090018FCFF0A3EFF09000CC
:1016E9000BE0FFA3E0900191CFF0A3EFF09000048D
:1016F900E0FFA3E0900193CFF0A3EFF0900022E088
:10170900FCA3E0FDA3E0FEA3E0FF9001951209729E
:101719007B017A0079EF120AA57B017A0079EF1231
:101729003B52AD077B017A0079EF0230FB7E007FE7
:10173900287D007B017A0079EF120A1490018C74DC
:10174900FFF0A3742CF0A3743BF07B017A0079EFCE
:10175900120AA57B017A0079EF123B52AD077B0192
:101769007A0079EF1230FBE490000BF0A3F09000BF
:08177900221209970000000094
:011781002245
:102A1E0090012DEBF0A3EAF0A3E9F090012DE0FB7D
:102A2E00A3E0FAA3E0F912207EEF704B90012DE0A7
:102A3E00FBA3E0FAA3E0F990000412071D64E17015
:102A4E001ED217FE7F28FD7B017A0079EF120A1441
:102A5E0090018C74FFF0A3742CF0A3744D8034900D
:102A6E00012DE0FBA3E0FAA3E0F990000312071D8D
:102A7E00641C703D0215F97E007F287D007B017A73
:102A8E000079EF120A1490018C74FFF0A3742CF0ED
:102A9E00A37467F07B017A0079EF120AA57B017AA5
:102AAE000079EF123B52AD077B017A0079EF1230BD
:022ABE00FB22F9
:102AC000E490012AF0A3F0A3F0202203022B6190EE
:102AD000000DE0D39420403A7E007F287D007B01EA
:102AE0007A0079EF120A1490018C74FFF0A3742C11
:102AF000F0A37477F07B017A0079EF120AA57B01CD
:102B00007A0079EF123B52AD077B017A0079EF0230
:102B100030FBE490012AF090000DE0FF90012AE0E4
:102B2000FEC39F502074262EF582E43400F583E026
:102B3000FD740E2EF582E43402F583EDF090012A47
:102B4000E004F080D290012BE4F0A3EFF0123AF908
:102B5000C2227B017A02790E90012BA3E0FD122A9A
:012B60001E56
:012B61002251
:0F3C580075B50275CF0375CEFFE4F5BFF5BE223B
:10378400D3ED94FFEC943F502DEF146012146017A6
:1037940014601C2403701FAF058FBCECF5BD22AF71
:1037A400058FBEECF5BF22AF058FB1ECF5B222AFA9
:0737B400058FB3ECF5B42210
:0300430002005266
:01005200327B
:0C3CBD00024402AD02E9036B080D101375
:103BB10078267602E4900017F0A3F0FDFC7F010265
:023BC100378447
:053DAF00E47826F62275
:103A7800EFD394045013EFC39400400D7826EFF66B
:0A3A8800D21304FF7D0112219F22DA
:1022BB00E490012AF0A3F0123C6790011712097207
:1022CB0090011BE0FCA3E0FDA3E0FEA3E02402FFD2
:1022DB00E43EFEE43DFDE43CFC900117E0F8A3E096
:1022EB00F9A3E0FAA3E0FBC312093C50030223D18C
:1022FB007826E6FFC39401401AEF25E024BBF58254
:10230B00E4343CF583E493FF74019390012ACFF0FE
:10231B00A3EFF03015653013627826E6FF78276659
:10232B006006D20FA607C206300F4390012AE0FECB
:10233B00A3E0FF900017E0FCA3E0FDC39FEC9E50D1
:10234B000DE02405F0900017E03400F0801BD3ED76
:10235B009FEC9E4010900018E024FBF0900017E0DB
:10236B0034FFF08004C20FC213900017803378261D
:10237B00E6903CC4937879F6D206222015483013A8
:10238B0045C206C3900018E09405900017E0940036
:10239B004019300C31A3E024FBF0900017E034FF20
:1023AB00F0E0FCA3E0FD7F01023784300C18C21370
:1023BB00E4900017F0A3F0FDFC7F01123784C20CF0
:0623CB007826E67827F6F3
:0123D10022E9
:102F6E00300503022FF87826E624FE601014601355
:102F7E00146016240370737E027F4980107E027FD8
:102F8E00B2800A7E027FEE80047E037F703006568A
:102F9E007879E6FD7878E6F9D39D401BD39000183A
:102FAE00E09F900017E09E4030A3E024FBF09000DD
:102FBE0017E034FFF080227879E6FDE9C39D5019C1
:102FCE00C3900018E09F900017E09E500CA3E024E1
:102FDE0005F0900017E03400F0900017E0FCA3E03D
:0A2FEE00FD7F01123784E47878F6C5
:012FF80022B6
:1010E400010D0A010E14010F64021003E802122715
:0510F4001041027F0025
:093D4700D2AB758902758D47228B
:083D7C00123D47D2AFD28E22A6
:03001B0002190BBC
:10190B00C0E0C0F0C083C082C0D075D000C000C0A2
:0D191B0001C002C003C004C005C006C00723
:10192800780D16E67035D210760A787A12094DEFDE
:101938002401FFE43EFEE43DFDE43CFC787A120914
:101948006674FFFFFEFDFC787A120959C312093C40
:101958007009787A12097E00000000780E16E67089
:1019680004D2117614780F16E67004D200766478E3
:101978001008E616187001161486064E7009D20A69
:10198800781076030876E8781208E61618700116BB
:101998001486064E703ED2167812762708761030D6
:1019A80008139000E1E004F070069000E0E004F015
:1019B800300E02D20D900121E0FCA3E0FDA3E0FE71
:1019C800A3E02401FFE43EFEE43DFDE43CFC90017D
:1019D8002112097290025EE0B4010E900260E004E8
:1019E800F0700690025FE004F0D390001AE09400D3
:1019F800900019E09400403C90027FE014F0E07001
:101A08000BB29790000EA3E090027FF090001AE0CE
:101A180024FFF0900019E034FFF0E0FEA3E0FF4E51
:101A2800700A90027FF0C296C2978008BE0705BF71
:041A3800D002C29680
:101A3C00D007D006D005D004D003D002D001D000FE
:0B1A4C00D0D0D082D083D0F0D0E032A8
:063DA300787A12094D229E
:0F3C6700900121E0FCA3E0FDA3E0FEA3E0FF221B
:083D8400D2AF439A04D2DA2207
:03003B00023C760E
:0F3C7600C0D075D000C000787806D000D0D03212
:033DC300000000FD
:1010F9004102590041025A0041025B0041025D0070
:0E3C8500E4FFFE0FBF00010EEF640A4E70F563
:013C9300220E
:0B3CE00053DAFC53DBFCD2B0D2B1225F
:103B2800EF700753DAFD43DB0222EFB4010653DAE4
:053B3800FD53DBFD223E
:103B3D00EF700753DAFE43DB0122EFB4010653DACF
:053B4D00FE53DBFE2227
:033DB700D2B12264
:033DBA00C2B12271
:033DBD00D2B0225F
:033DC000C2B0226C
:0A3D340030B1047F0180027F0022FD
:0B28D600900130EBF0A3EAF0A3E9F062
:1028E100A37417F0E4900230F0A374FFF0A3743BDB
:1028F100F0A37428F0A374FFF0A3743BF0A3743D1C
:10290100F0A374FFF0A3743CF0A37485F090023D32
:1029110074FFF0A3743DF0A374B7F0A374FFF0A3A8
:10292100743DF0A374BAF0A374FFF0A3743DF0A357
:1029310074BDF0A374FFF0A3743DF0A374C0F0A3C1
:1029410074FFF0A3743DF0A37434F07B017A017934
:1029510033900138E4F0A304F07F30122C99EF702A
:1029610019900130E0FBA3E0FAA3E0F9900138E40B
:0A297100F0A37403F07F30122E541F
:01297B002239
:10178200E490012AF090012CF0782D7C017D017B00
:10179200FF7A3D79C3FE7F031206DE3003037FFF2B
:1017A200227B017A01792D1228D690012FE0FF9039
:1017B200012BF090012EE090012CF0EF7003E0601D
:1017C2000A90012BE06019A3E06015E490025CF03E
:1017D200A3F0900259F0A3F0A3F0123C287F00225C
:1017E20090012BE0FF601A90025CE0FEEF6E601148
:1017F20090025E7401F0E4A3F0A3F0900262F0A301
:10180200F090012CE0FF601890025DE0FEEF6E6048
:101812000FA37401F0E4A3F0A3F0900262F0A3F02E
:10182200C3900260E094F490025FE09401500302DE
:1018320018F590012CE0FF6406601AEF640260154F
:10184200EF64046010E490025EF0A3F0A3F0900253
:1018520059F0A38004E490025FF0A3F090012BE022
:10186200601BB4020C9002627401F0A37404F08055
:1018720007E4900262F0A3F0E4900259F090012C88
:10188200E0FF606FB4010C9002627401F0A3740374
:10189200F08060EFB4021690025AE004F0E0C394C4
:1018A2001440509002627401F0A304803690012C1F
:1018B200E0FFB4041590025BE004F0E0C39414402E
:1018C200329002627401F0A38019EFB4061E9002F6
:1018D20059E004F0E0C3942840199002627401F0C8
:1018E200A37405F0E490025EF0A38004E490026227
:1018F200F0A3F090012BE090025CF090012CE090BC
:08190200025DF0900263E0FFBA
:01190A0022BA
:103C2800E490025EF0A3F0A3F0900262F0A3F02209
:013DC6000AF2
:10110900C123C12444026E00000000410272004460
:0611190002730000001E3D
:1036D400208039D209123BF63011047F0180027F29
:1036E40000EF6005C2111227643016047F018002C6
:1036F4007F00EF60E3C216900011E0FCA3E0FDA39D
:0D370400E0FEA3E0FFEC4D4E4F70CD222201
:1033A600123C67900007120972123AC6123CF612D6
:1033B600390D123C67A804A905AA06AB07900007B9
:1033C600E0FCA3E0FDA3E0FEA3E02402FFE43EFE52
:1033D600E43DFDE43CFCC312093C40D6300906300E
:1033E6000906308003123A92123BB1D215D20CD2A2
:1033F60013E4FD7F0B12219F7D017F0312219FC2E3
:023406000222A0
:10371100123C6790001B12097212393AC215123D10
:10372100AF123BF6123C38123D01D213E4FD7F0C7F
:1037310012219F7D017F0B12219F301203123D59EF
:0B374100300503123BE5C201D202225A
:101B9800E490012AF0900262E0B4010BA3E0B405DE
:101BA800061239B4123C282005031233439002620E
:101BB800E064016003021CD2A3E0147003021C99C4
:101BC800147003021C7414602C24FE7003021CB8E9
:101BD800046003021CC23014079000E9E04401F0DD
:101BE8002015061233A6021CC2201503021CC212BD
:101BF8003711021CC2201503021CC2123AAC782607
:101C0800E6FF90012AF0C394045005E004F0801127
:101C1800EFB4040890012A7401F08005E490012AC9
:101C2800F090012AE0FF123A783014387826E6FD61
:101C3800B401099000E9E04402F08028EDB40209FB
:101C48009000E9E04404F0801B7826E6FDB403091F
:101C58009000E9E04408F0800BEDB404079000E937
:101C6800E04410F0301253123D59804E3014079062
:101C780000E9E04420F0301541900120E0C39402CF
:101C8800500AE004F0E0FF1234BD801F1238AF8024
:101C98001A3014079000E9E04440F030151CB212E5
:101CA800201205123D598003123D50123A1C800A39
:101CB8003014079000E9E04480F0900262E0B4013B
:101CC80009A3E064056003123C28301203122DC1F9
:011CD80022E9
:102D2D00300503022DC0123C67900117120972E4A1
:102D3D007B0AFAF9F8900117E0FCA3E0FDA3E0FE91
:102D4D00A3E0FF120886AC00AD01AE02AF03E4FBB9
:102D5D00FAF9F8C312093C701690001FE0FCA3E0CD
:102D6D00FDE41203A290012B1209727F028041E44F
:102D7D007B0AFAF9F8900117E0FCA3E0FDA3E0FE51
:102D8D00A3E0FF120886AC00AD01AE02AF03E47BF9
:102D9D0005FAF9F8C312093C7019900000E0FCA384
:102DAD00E0FDA3E0FEA3E0FF90012B1209727F016D
:042DBD001223D222E9
:102DC100123C67900117120972302339903DC6E415
:102DD10093FFE4FCFDFE90026EE0F8A3E0F9A3E0AE
:102DE100FAA3E02FFFEE3AFEED39FDEC38FC90013D
:102DF10017E0F8A3E0F9A3E0FAA3E0FBD312093C42
:102E0100500122C22390001FE0FEA3E0FFC3944BB8
:102E1100EE9400500B7826E6640160277601801D50
:102E2100C3EF9496EE9400500B7826E6640260138B
:102E3100760280097826E6640460087604D213D20B
:102E410023D22430240C7826E604FF7D0112219F31
:022E5100C22499
:012E5300225C
:1033430030155F123C67900117120972900007E075
:10335300FCA3E0FDA3E0FEA3E0240AFFE43EFEE4B9
:103363003DFDE43CFC900117E0F8A3E0F9A3E0FA8B
:10337300A3E0FBC312093C4029300A2630800890A1
:103383000272E004F08005E4900272F0900272E0B1
:10339300C39414400D30150A123711D202E490027F
:0233A30072F0C6
:0133A5002205
:093D5000D2127D017F0A02219FBD
:093D5900C212E4FD7F0A02219F61
:1012CD0090012A120997000000007878E69000E757
:1012DD00F0E4F69000E5E07013301505123711D2E9
:1012ED00059000E5E004F0C2040214609000E5E012
:1012FD00FFB4011F900011E0F8A3E0F9A3E0FAA3F9
:10130D00E0FBE8494A4B6003021460208037D204A9
:10131D00021460EFB402051233A680299000E5E0B7
:10132D00FDB4032C900011E0F8A3E0F9A3E0FAA3BB
:10133D00E0FBE8494A4B600302146020800D9000E9
:10134D00E6E054FEF09000E50213EDD204021460C5
:10135D00ED64046003021460123C6790012A1209C7
:10136D0072900007E0FCA3E0FDA3E0FEA3E0240AD9
:10137D00FFE43EFEE43DFDE43CFC90012AE0F8A3D1
:10138D00E0F9A3E0FAA3E0FBC312093C4057900239
:10139D0073E0FCA3E0FDA3E0FEA3E0FF900007E0F7
:1013AD00F8A3E0F9A3E0FAA3E02FFFEA3EFEE93D42
:1013BD00FDE83CFC90012AE0F8A3E0F9A3E0FAA3D4
:1013CD00E0D312093C501E9000E7E0FFC3940C409F
:1013DD0006EFD3940E407C9000E8E0C394FF507369
:1013ED00E004F0806E900273E0FCA3E0FDA3E0FE4C
:1013FD00A3E0FF900007E0F8A3E0F9A3E0FAA3E073
:10140D002FFFEA3EFEE93DFDE83CFC90012AE0F8A5
:10141D00A3E0F9A3E0FAA3E0FBD312093C4034208A
:10142D0001079000E6E054FBF09000E8E0C3941E45
:10143D0050079000E6E054FDF090000BE0FEA3E0B5
:10144D00D39400EE6480948040079000E6E054F75A
:09145D00F0D204300403123BE557
:011466002263
:103BD400D205E49000E5F0A374FFF0E49000E8F06F
:013BE40022BE
:103BE500C205300403123696C2043015031237118C
:013BF50022AD
:103B7A00D214E49000E9F0123C679000EA1209724C
:033B8A000239FC01
:1035C90090012A120997000000B4123C67C004C098
:1035D90005C006AB0790012AE0FCA3E0FDA3E0FECD
:1035E900A3E0FF9000EAE0F8A3E0F9A3E0FAA3E082
:1035F9002FFFEA3EFEE93DFDE83CFCD002D001D0B8
:0A36090000C312093C4003123D8C7F
:013613002294
:083D8C00C2141238DF0239FCF9
:083D940001030206040C0809FA
:04111F004102800009
:073D9C0053D2FE53D3FE22B7
:103B110043D40C53D5F343D60353D7FCC293C2927B
:073B2100C2A0C2A1023D9CFD
:103A9200200916D209123C6790011B1209727F2479
:0A3AA2007EFF7DFF7CFF1237EC224F
:103BF60030090D7FDC7E007D007C001237ECC209A7
:013C0600229B
:1037EC00900170120972E47FEC7E0FFDFC90017069
:1037FC00E0F8A3E0F9A3E0FAA3E0FB1207FBE47BFB
:10380C00687A01F9F8123614900011120972D20379
:01381C002289
:10276400900011E0FCA3E0FDA3E0FEA3E0FFEC4D2C
:102774004E4F7003022818E4FFFEFDFC900011E0A8
:10278400F8A3E0F9A3E0FAA3E0FBD3120926900230
:1027940080E0402504F0E05407F0900011E0FCA331
:1027A400E0FDA3E0FEA3E0FFEF24FFFFEE34FFFE15
:1027B400ED34FFFDEC34FF802414F0E05407F09076
:1027C4000011E0FCA3E0FDA3E0FEA3E0FFE4FAF9BE
:1027D400F8EF2401FFEA3EFEE93DFDE83CFC9000F1
:1027E40011120972900280E0903D9493FF30E0044E
:1027F400D2938002C293EF30E104D2928002C2925B
:10280400EF30E204D2A08002C2A0EF30E303D2A1F1
:1028140022C2A12230030AC293C292C2A0C2A1C2A0
:0128240003B0
:012825002290
:093D620053D4BF53D5BFC2962211
:08381D007FD27D507C0A7E0081
:10382500AB05AA047C007D0A12077E900019EEF014
:10383500A3EFF0AC02AD037E137F881207909000D2
:093845000EEEF0A3EFF0D2962282
:10390D0012381D900019E07002A3E070F67D307C36
:10391D00097FD27E00123825900019E07002A3E0D5
:0D392D0070F67D307C087FCD7E00023825CD
:10393A007D307C087FD27E00123825900019E07015
:10394A0002A3E070F612381D900019E07002A3E09D
:0D395A0070F67D407C0C7FCD7E000238258C
:103AAC007FCD12381F900019E07002A3E070F67DF4
:0A3ABC00307C087FCD7E0002382523
:1039FC007D307C087FD27E00123825900019E07053
:103A0C0002A3E070F67D307C097FD27E000238255F
:103A1C007D307C087FD27E00123825900019E07032
:103A2C0002A3E070F67D307C087FD27E0002382540
:0711230042027D0000C1261D
:063DA9008FAC43AC802248
:0C3CC900EF42ABAF058FAFD2BAD2AF22F2
:103C0700E4AFADEF75F010A4FFAEF0ADAEEF4DFF32
:013C1700228A
:0300530002384E22
:10384E00C0E0C0F0C083C082C0D075D000C005C03B
:10385E0006C007123C0790027DEEF0A3EFF0D226D1
:10386E00D007D006D005D0D0D082D083D0F0D0E013
:01387E003217
:0F3C940043D60453D7FBC2A27D1F7F08023CC951
:103AC600D2A2D2089000EE74FFF09000E0E4F0A3DA
:0A3AD600740FF07D017F0602219FAE
:103C3800C2A2C208E4FD7F0612219FC226C20E223C
:0E3CA300C226E490027DF0A3F07F03023DA94B
:0B3CEB00C22690027DE0FEA3E0FF2255
:10340800E4FFFE300854300E2B302628123CEBC364
:10341800EF94F5EE9408500D9000EEE0C3648094AC
:10342800804002D2019000EEE004F0B40306C20E20
:10343800C20DE4F0300E08300D05123CA3C20DC3D6
:103448009000E1E094149000E0E094004006D20E71
:0A345800E4F0A3F0300103123C3849
:013462002247
:093D6B0043D60853D7F7C2A32286
:0B3CF600D2A3D2077D017F0702219FAF
:0B3D0100C2A3C207E4FD7F0702219F60
:103A5A00000000000000000000000000000000005C
:0E3A6A0000000000000000000000000000004E
:07112A004402640000000014
:103C4800E4900268F0A3F0A3F0A3F0A3F0A3F0229D
:101CD90090012A1209970000EA6090012E120997D3
:101CE9000000000078327C017D017BFF7A3A795A45
:101CF9007E007F1E1206DE123DA390012E1209728C
:101D0900E4FFFEFD7CF090012EE0F8A3E0F9A3E0EA
:101D1900FAA3E0FBD312093C5043E4FFFEFD7CF03B
:101D2900900264E0F8A3E0F9A3E0FAA3E0FB12094A
:101D39003C402A90012AE0FCA3E0FDA3E0FEA3E0D9
:101D4900FFA3E0F8A3E0F9A3E0FAA3E02FFFEA3E3E
:101D5900FEE93DFDE83CFC900264120972900268BC
:101D6900E0B4012F90012AE0FCA3E0FDA3E0FEA36B
:101D7900E0FFA3E0F8A3E0F9A3E0FAA3E02FFFEA6C
:101D89003EFEE93DFDE83CFC900264120972E490D4
:101D99000268F0900264E0FCA3E0FDA3E0FEA3E08A
:101DA900FF90012EE0F8A3E0F9A3E0FAA3E0FBC35A
:101DB90012093C4059D390026DE0940090026CE006
:101DC9009400400CA3E024FFF090026CE034FFF093
:101DD90090026CE07002A3E070063015031237110F
:101DE900900264E0FCA3E0FDA3E0FEA3E0FF900104
:101DF9002AE0F8A3E0F9A3E0FAA3E0FBEF2BFFEE5A
:0E1E09003AFEED39FDEC38FC900264120972CD
:011E170022A8
:1038AF00E4900268F0A3F0A3F0A3F0A3F0A3F090CC
:1038BF000120E0B40106E4FD7F08800B900120E0B9
:1038CF00B40207E4FD7F0912219FE4900120F0224A
:1034BD00900189EFF0D39402504FE0FFC394004088
:1034CD0048EF70030238AF9002687401F0A3F090DA
:1034DD000189E0B4010F90026AE4F0A37478F07DE5
:1034ED00017F088014900189E0B4021090026AE413
:1034FD00F0A374F0F07D017F0912219F90026AE024
:0A350D00FFA3E0A3CFF0A3EFF0222C
:10008600020447E86480F8E933E83360110460F05D
:10009600ED33EC337009E8FCE9FDEAFEEBFF2204E0
:1000A60060DED3EB9FEA9EE99DE8C2E78CF0C2F7DB
:1000B60095F0400CE8CCF8E9CDF9EACEFAEBCFFBA7
:1000C60012041285D0F05804700320D5B3E80470EA
:1000D600075002B2D502045192D5EC0460F7E4CC85
:1000E600C0E0C398F8603B94186008400DD0E0FB70
:1000F600020429E4FBFAC9FC8028E830E406E4C9D6
:10010600FBE4CAFCE830E305E4C9CACBFCE85407C3
:100116006010F8C3E913F9EA13FAEB13FBEC13FCCE
:10012600D8F130F52FC3E49CFCEF9BFFEE9AFEED71
:1001360099FDD0E0FBEF4E4D4C701222DB0302041A
:100146004EEC2CFCEF33FFEE33FEED33FDED30E7E6
:10015600EB020429EF2BFFEE3AFEED39FDD0E0FB72
:1001660050130BBB0003020451ED13FDEE13FEEF1B
:0801760013FFEC13FC02042945
:10017E00EC4D6011E8497017ED33EC3304600DE47B
:10018E00FCFFFEFD22E933E8330470F80204471247
:10019E00041258046009E4CC248150062850090248
:1001AE00045128400302044EC0E0EB4A7044B9806B
:1001BE0006D0E0FB02043DEF4E701CBD8008EBFF45
:1001CE00EAFEE9FD80EBE98DF0A4FEE5F0020267A0
:1001DE00E9CDF9EAFEEBFFEF89F0A4FCE5F0CE895C
:1001EE00F0A42EFFE435F0CD89F0A42DFEE435F019
:1001FE008067EF4E7005BD80D780C3EF8BF0A4AC47
:10020E00F0EE8BF0A42CFCE435F0F8EF8AF0A42C81
:10021E00E5F038FCE433CB8DF0A42CFCE5F03BF894
:10022E00EE8AF0A42CFCE5F038F8E433CF89F0A484
:10023E002CFCE5F038CF3400CE89F0A42FFFE5F08A
:10024E003EFEE433C98DF0A42EFEE5F039CD8AF0E2
:10025E00A42FFFE5F03EFEE43DFD33D0E0FB50075A
:10026E000BBB000F020451EC2CFCEF33FFEE33FE00
:06027E00ED33FD0204292E
:10028400020451EC5D046005E8590470030204475C
:10029400120412580460F6EC4860F2EC7004FDFE9F
:1002A400FF22C860DB2481C85009C398600250064D
:1002B40002044E9850CAF582E9294B4A7005AB8274
:1002C40002043D75F0007C1A7880C3EF9BEE9AED32
:1002D40099400DC3EF9BFFEE9AFEED99FDE842F0C5
:1002E400DC23ACF0D0E0FFD0E0FED0E0FDAB822018
:1002F400E7101BEB60BAEC2CFCEF33FFEE33FEEDA2
:1003040033FD020429E803F830E705C0F075F00076
:10031400EF2FFFEE33FEED33FD40B830E7C280AA85
:1003240074F8CC6480CCC86480C8F58204604FC380
:10033400EB9FF5F0EA9E42F0E99D42F0E89C45F01F
:10034400603C501DE5825FFFE582D313CB5BCBF4A9
:100354002B5582FB50280ABA002409B900200880D2
:100364001DE5825BFBE582D313CF5FCFF4C3132F6C
:100374005582FF50090EBE00050DBD00010CC3EBF4
:100384009FF5F0EA9E42F0E99D42F0E89C45F0605A
:0903940007CC4820E701B3EC227C
:10039D0075F020800E75F010800575F0087D007EDB
:1003AD00007F003392D530D503120918EC3340107D
:1003BD00EF33FFEE33FEED33FDEC33FCD5F0ED22E4
:0E03CD00E5F0247EA2D513CC92E7CDCEFF2220
:1003DB00EDD2E7CD33EC3392D524814006E4FFFE1A
:1003EB00FDFC22FCE4CFCECDCC24E0501174FF8079
:1003FB00EDC3CC13CCCD13CDCE13CECF13CF047016
:07040B00F030D5DE020918F4
:100A4000E508248CF582E43401F583E00508229062
:100A50000189301F0390018CE475F0011209C8026E
:100A600007042018E97F2ED2188018EF540F249025
:100A7000D43440D4FF301C0BEF24BFB41A00500311
:100A80002461FFE50960021509050CE50C700205FB
:100A90000B301F0E900189E475F0011209C8EF02B6
:100AA000074A0239677403D21F8003E4C21FF508A6
:100AB0009001891209DFE4F509F50BF50CE50960F1
:100AC000077F20120A8380F5750AFFC219C218C277
:100AD0001AC21BC21DC21EC220120A4FFF700D3067
:100AE0001F057F00120A94AF0CAE0B22B4255FC223
:100AF000D5C21C120A4FFF24D0B40A00501A75F058
:100B00000A780930D50508B6FF0106C6A426F620E6
:100B1000D5047002D21B80D924CFB41A00EF500440
:100B2000C2E5D21C020D86D21980C6D21880C0D26E
:100B30001A80BCD2D580BAD21D80B47F20120A831D
:100B4000201A077401B5090040F1120A40FF120A89
:100B500083020ABDD220D21E8095120A40FB120ADF
:100B600040FA120A40F94A4B700679847A0E7BFFEC
:100B7000201A2EE509602A7E008E827583001207F6
:100B80001D60060EEE650A70F0C2D5EBC0E0EAC04B
:100B9000E0E9C0E0EE120DE7D0E0F9D0E0FAD0E0F5
:100BA000FB120704FF60AAEBC0E0EAC0E0E9C0E086
:100BB000120A83D0E02401F9D0E03400FAD0E0FB3F
:100BC000E50A0460DCD50AD98087D21A80A2120D0A
:100BD000C960F7E50A70010412045CA90A600DE51A
:100BE0000A600914F50A120E71EF60F3EA30E702A9
:100BF000F404C3995079EAF4250A0430E701E404C7
:100C0000F50A800D120DC960C1EA050A250A120411
:100C10005CEA9001B8F030E701E4250A04D50A0443
:100C2000201D0114120DE7E4C0E0120E719001B80E
:100C3000E0601320E70714F0120A6B802204F0D062
:100C4000E014C0E07F00120A6BE50A6007120A6236
:100C5000150A800B301D03120A62D0E0020ABDD0D3
:100C6000E00480C4120DC9609EE50A0412045C9081
:100C700001B8EAF0E50A201D026001042404120D07
:010C8000E78C
:100C810074FF04C0E0120E71120A6BE50A201D0206
:100C91006003120A62D0E0B50AE87F45120A759036
:100CA10001B8E07F2B30E7047F2DF404C0E0120A85
:100CB10083D0E075F00A84C0F0120A6CD0E0120A09
:100CC1006C020ABD791080027908C21EC220800818
:100CD100D2D5790A8004790AC2D5E50A047002F5F1
:100CE1000AE4FAFDFEFF120A40FC7B0820191312E8
:100CF1000A40FD7B1030180A120A40FE120A40FF1A
:100D01007B20EC3382D592D55013C3E43018069F73
:100D1100FFE49EFEE42019039DFDE49CFCE4CBF876
:100D2100C219EC700CCFCECDCCE824F8F870F3806A
:100D310017C3EF33FFEE33FEED33FDEC33FCEB3342
:100D4100FB994002FB0FD8E9EB301905F8D0E0C45C
:100D510048B219C0E00AEC4D4E4F78207B0070C2BA
:100D6100EAB50A0040BCC0E0120DE9D0F0D0E020A5
:100D71001904C4C0E0C4B219C0F0120A6CD0F0D595
:100D8100F0EB020ABD1209E80B5A530CC5580B2BA4
:100D91004C0B27420CC94F0CD1440CD1490B404399
:100DA1000CD7550C04460C64450BCE470EA4500BD2
:100DB1002F2D0B332E0B562B0B37230B54200E8D5F
:100DC1002A0AEF4800000B4EE50AB4FF03750A0634
:100DD100120A40FC120A40FD120A40FE120A40FFAC
:100DE1009001B1020499790AA2D5201B14301D0982
:100DF100B910020404B9080104A2D5201E02500151
:100E010004201A68921AB509005034C0E07F2030DE
:100E11001B197F30A21A721E721D500F120E40C292
:100E21001AC21EC21DC2207F30800F301D03E9C0CF
:100E3100E0120A83301D03D0E0F9D0E0B509CC30CF
:100E41001D177F30B9100C120A837F58301C077FA1
:100E5100788003B90803120A83301A057F2D020A2C
:100E6100837F202020F87F2B201EF322921A80CF2F
:100E71007F00B40700500B24B1F582E43401F583FF
:100E8100E0FF22286E756C6C2900D219120A4030DD
:100E910019F8C219780930D50108F6020AEF2D5068
:100EA100434958120A402403B405004001E4900E5E
:100EB1009F93120A74743A120A74D21B75090402C0
:020EC1000CC55E
:10041200E9D2E7C933E833F892D5EDD2E7CD33EC30
:0704220033FC5002B2D522A9
:10042900EC30E7100FBF000C0EBE00080DBD000434
:100439000BEB6014A2D5EB13FCED92E7FD2274FFE0
:10044900FCFDFEFF22E480F8A2D574FF13FC7D8039
:03045900E480EF4D
:10045C00F920E73624F950037907E4F42402FBE58C
:10046C0082158270021583DBF6E024FB501BE960D9
:10047C0014E4F0E582158270021583E004F0B40AEE
:0D048C0008E4F0D9EE7401F00A22C2D52276
:10049900ED33EC3392D5FA602AB4FF33EDC2E77B32
:1004A900FF60067A0479BEE4227A0479C720D5046C
:1004B9007A0479C2224E614E002B494E46002D49DD
:1004C9004E4600E47A08F0A3DAFC7B00740722C0E8
:1004D90083C082ECC0E0EDC0E0EEC0E0EFC0E0EA2E
:1004E90075F010A4CAABF075F04DA42BFBE435F000
:1004F900FCEA2410FAEB34C5FBEC34D9FCEDC2E775
:10050900FF75F056A4F42411C5F0F434C58FF0A496
:100519002AE5F03BE43CF020E7141205CED0E0FFD9
:10052900D0E0FED0E0FDD0E0FC1202878014F40494
:100539001205CED0E0FFD0E0FED0E0FDD0E0FC1205
:10054900017ED082D083E0FAEDD2E7CD33EC3324BB
:1005590082FBE4C3CF33CFCE33CECD33CD33DBF300
:100569007B0775F00A846004F0A31B0AE5F0F0A389
:100579008FF0740AA4FFACF08EF0740AA42CFEACC0
:10058900F050010C8DF0740AA42CFDE435F0F0A3B1
:05059900DBDE74072207
:10059E003F8000004120000042C80000447A000065
:1005AE00461C400047C35000497424004B189680E7
:1005BE004CBEBC205A0E1BCA6753C21C749DC5AEDE
:1005CE00FB60065407601C23231205FCEB543860B5
:1005DE00091205E81205F712017EECF8EDF9EEFAB4
:1005EE00EFCB22EB1205F780F1543803241C900553
:1005FE009EFE93FC0EEE93FD0EEE930ECE93FF2217
:102EEE00021E18E493A3F8E493A34003F68001F2C4
:102EFE0008DFF48029E493A3F85407240CC8C333E5
:102F0E00C4540F4420C8834004F456800146F6DFB3
:102F1E00E4800B0102040810204080900EC3E47E72
:102F2E00019360BCA3FF543F30E509541FFEE493A8
:102F3E00A360010ECF54C025E060A840B8E493A36F
:102F4E00FAE493A3F8E493A3C8C582C8CAC583CA9A
:102F5E00F0A3C8C582C8CAC583CADFE9DEE780BE52
:0111310000BD
:10060E00E709F608DFFA8046E709F208DFFA803ECE
:10061E0088828C83E709F0A3DFFA8032E309F608BB
:10062E00DFFA8078E309F208DFFA807088828C8323
:10063E00E309F0A3DFFA806489828A83E0A3F608D7
:10064E00DFFA805889828A83E0A3F208DFFA804CB1
:10065E0080D280FA80C680D4806980F28033801088
:10066E0080A680EA809A80A880DA80E280CA8033F1
:10067E0089828A83ECFAE493A3C8C582C8CCC58369
:10068E00CCF0A3C8C582C8CCC583CCDFE9DEE78039
:10069E000D89828A83E493A3F608DFF9ECFAA9F0B8
:1006AE00EDFB2289828A83ECFAE0A3C8C582C8CC0E
:1006BE00C583CCF0A3C8C582C8CCC583CCDFEADE27
:1006CE00E880DB89828A83E493A3F208DFF980CC89
:1006DE0088F0EF60010E4E60C388F0ED2402B40482
:1006EE000050B9F582EB2402B4040050AF23234529
:0606FE00822390065E73EA
:10070400BB010689828A83E0225002E722BBFE02F3
:09071400E32289828A83E4932226
:10071D00BB010CE58229F582E5833AF583E0225091
:10072D0006E92582F8E622BBFE06E92582F8E222DB
:0D073D00E58229F582E5833AF583E49322F5
:10074A00BB010689828A83F0225002F722BBFE018E
:02075A00F32288
:10075C00F8BB010DE58229F582E5833AF583E8F0D3
:10076C00225006E92582C8F622BBFE05E92582C87F
:02077C00F22267
:10077E00EF8DF0A4A8F0CF8CF0A428CE8DF0A42E8F
:02078E00FE2249
:10079000BC000BBE0029EF8DF084FFADF022E4CC4D
:1007A000F875F008EF2FFFEE33FEEC33FCEE9DEC16
:1007B000984005FCEE9DFE0FD5F0E9E4CEFD22ED5C
:1007C000F8F5F0EE8420D21CFEADF075F008EF2FA6
:1007D000FFED33FD4007985006D5F0F222C398FD97
:0507E0000FD5F0EA2234
:1007E500C5F0F8A3E028F0C5F0F8E582158270029F
:0607F5001583E038F0223C
:1007FB00E88FF0A4CC8BF0A42CFCE98EF0A42CFC9D
:10080B008AF0EDA42CFCEA8EF0A4CDA8F08BF0A41A
:10081B002DCC3825F0FDE98FF0A42CCD35F0FCEB79
:10082B008EF0A4FEA9F0EB8FF0A4CFC5F02ECD393E
:0F083B00FEE43CFCEAA42DCE35F0FDE43CFC22AB
:10084A0075F008758200EF2FFFEE33FECD33CDCC65
:10085A0033CCC58233C5829BED9AEC99E5829840E8
:10086A000CF582EE9BFEED9AFDEC99FC0FD5F0D6C5
:10087A00E4CEFBE4CDFAE4CCF9A88222B800C1B9EF
:10088A000059BA002DEC8BF084CFCECDFCE5F0CB2D
:10089A00F97818EF2FFFEE33FEED33FDEC33FCEB66
:1008AA0033FB10D703994004EB99FB0FD8E5E4F921
:1008BA00FA227818EF2FFFEE33FEED33FDEC33FC0E
:1008CA00C933C910D7059BE99A4007EC9BFCE99A02
:1008DA00F90FD8E0E4C9FAE4CCFB2275F010EF2F47
:1008EA00FFEE33FEED33FDCC33CCC833C810D70747
:1008FA009BEC9AE899400AED9BFDEC9AFCE899F882
:0E090A000FD5F0DAE4CDFBE4CCFAE4C8F92214
:10361400C2D5E830E70FB2D5E4C39BFBE49AFAE4E1
:1036240099F9E498F8EC30E717B2D512364A120843
:1036340086E4C39BFBE49AFAE499F9E498F88003DE
:1036440012088630D50DE4C39FFFE49EFEE49DFD81
:04365400E49CFC22D4
:0E091800C3E49FFFE49EFEE49DFDE49CFC22F0
:10092600EB9FF5F0EA9E42F0E99D42F0EC6480C848
:0609360064809845F022E8
:10093C00EB9FF5F0EA9E42F0E99D42F0E89C45F011
:01094C002288
:0C094D00E6FC08E6FD08E6FE08E6FF22D6
:0D095900E6FB08E6F908E6FA08E6CBF8220E
:0C096600ECF608EDF608EEF608EFF622BD
:0C097200ECF0A3EDF0A3EEF0A3EFF022F8
:10097E00D083D082E493F608740193F60874029340
:09098E00F608740393F674047377
:10099700A8828583F0D083D0821209AE1209AE12E5
:1009A70009AE1209AEE473E493A3C583C5F0C5830A
:1009B700C8C582C8F0A3C583C5F0C583C8C582C8AA
:0109C700220D
:1009C800F8E0FBA3A3E0F925F0F0E58215827002B8
:0709D8001583E0FA38F0225C
:0909DF00EBF0A3EAF0A3E9F02219
:1009E800D083D082F8E4937012740193700DA3A39E
:1009F80093F8740193F5828883E4737402936860B2
:060A0800EFA3A3A380DFB1
:060A0E008A838982E47373
:10396700EFB40A07740D123972740A309811A899C6
:10397700B8130CC2983098FDA899C298B811F630C0
:0739870099FDC299F5992298
:103B5200E4FFFE120704600C0FEF70010E09E9701A
:053B6200F20A80EF22D1
:100A1400EF4E6012EF60010EEDBB010B89828A83F9
:100A2400F0A3DFFCDEFA2289F05007F709DFFCA906
:0C0A3400F022BBFEFCF309DFFCA9F0225D
:00000001FF
