:0300000002305972
:0C305900787FE4F6D8FD7581250230A0D8
:1024C40090019312085B00000000123E0F123E3C84
:1024D400123ED0123EE8123BA77D017F07123B0952
:1024E400123D68123EB5123E26123DE6123C5312CE
:1024F4003BC9123DD7123EC7123A5690019C1208AE
:102504005B000000007F021225E0E4FD7F0C12272F
:10251400CA7D017F011227CA7D017F0B1227CA12CF
:1025240036D1121E853018047F0180027F00EF60CF
:1025340044C218900193E0FCA3E0FDA3E0FEA3E0F5
:102544002401FFE43EFEE43DFDE43CFC90019312D3
:10255400084F1209A61235C430041490017DE0FC22
:10256400E412037790019C12084F7F021225E03099
:1025740016031237203012047F0180027F00EF60BF
:1025840008C2121221231223993013047F018002FE
:102594007F00EF6005C213122A573000047F0180C8
:1025A400027F00EF6008C200121D271218E03009F4
:1025B400047F0180027F00EF600EC2093004031221
:1025C4001731122EA01228B112226690027CE06408
:0C25D400016003022529121FDC022529EA
:1015160041001F01C112C113C100C109C118440114
:101526008900000000C10D44018F00000000410148
:10153600770041002000C10541018E0041000E00E8
:10154600C117C114C111C115C10C420017000044D6
:10155600000F00000000420019000042000B0000CE
:1015660060500021000000000000000000000000A4
:101576000000000000000000000000000000000065
:101586000000000000000000000000000000000055
:101596000000000000000000000000000000000045
:1015A6000000000000000000000000000000000035
:1015B600000000004100090041000A0041000D0042
:1015C60041018D004100000041018800C10BC10AA4
:1015D600C119C102C107C101420178000AC10FC188
:1015E6000E410183FFC106C10844018400000000CA
:1015F6004400050000000044001300000000C11074
:101606004400010000000044001B000000004201ED
:09161600750000C104C103C116F6
:103D3300E4FDFCC3ED9FEC9E50070DBD00010C801C
:013D4300F28D
:013D4400225C
:10335900900248A3E0FAA3E0F5828A837F0112086C
:10336900D6900254A3E0FAA3E0F91208D290024ED3
:10337900A3E0FAA3E0F91208D290025AA3E0FAA353
:10338900E0F91208D290024EA3E0FAA3E0F912087C
:10339900D2900257A3E0FAA3E0F91208D290024EA4
:1033A900A3E0FAA3E0F91208D290025DA3E0FAA320
:1033B900E0F91208D290024EA3E0FAA3E0F902085C
:0133C900D231
:10361F00900248A3E0FAA3E0F5828A837F011208A3
:10362F00D6900257A3E0FAA3E0F91208D290024E07
:10363F00A3E0FAA3E0F91208D290025AA3E0FAA38A
:10364F00E0F91208D290024EA3E0FAA3E0F91208B3
:10365F00D2900254A3E0FAA3E0F91208D290024EDE
:09366F00A3E0FAA3E0F90208D27D
:10316700E49001A9F0900254A3E0FAA3E0F9120851
:10317700D2900248A3E0FAA3E0F5828A83E4FF1223
:1031870008D690024EA3E0FAA3E0F91208D2900203
:103197005AA3E0FAA3E0F91208D290024EA3E0FA8C
:1031A700A3E0F91208D2900260A3E0FAA3E0F912B3
:1031B70008D2EF60089001A97401F08005E490013E
:1031C700A9F090025DA3E0FAA3E0F91208D29002F9
:0F31D7004EA3E0FAA3E0F91208D29001A9E0FF9D
:0131E60022C6
:1034A100900248A3E0FAA3E0F5828A837F01120823
:1034B100D6900257A3E0FAA3E0F91208D290024E87
:1034C100A3E0FAA3E0F91208D290025AA3E0FAA30A
:1034D100E0F91208D290024EA3E0FAA3E0F9120833
:1034E100D290025DA3E0FAA3E0F91208D290024E55
:1034F100A3E0FAA3E0F91208D2900254A3E0FAA3E0
:05350100E0F90208D210
:10367800900248A3E0FAA3E0F5828A837F0112084A
:10368800D6900254A3E0FAA3E0F91208D290024EB1
:10369800A3E0FAA3E0F91208D290025AA3E0FAA331
:1036A800E0F91208D290024EA3E0FAA3E0F912085A
:1036B800D290025DA3E0FAA3E0F91208D290024E7C
:0936C800A3E0FAA3E0F90208D224
:053265009001A9EFF04B
:10326A00900248A3E0FAA3E0F5828A837F0112085C
:10327A00D69001A9E0A3F0E4A3F09001AAE054805B
:10328A0070059002578003900254A3E0FAA3E0F974
:10329A001208D290025AA3E0FAA3E0F91208D290D7
:1032AA00024EA3E0FAA3E0F91208D290025DA3E06D
:1032BA00FAA3E0F91208D290024EA3E0FAA3E0F9C9
:1032CA001208D29001AAE025E0F0A3E004F0E0C3DE
:0432DA00940840A66E
:0132DE0022CD
:1032DF00E49001AAF0900248A3E0FAA3E0F5828AF5
:1032EF0083E4FF1208D6E49001A9F09001AAE0252B
:1032FF00E0F090025AA3E0FAA3E0F91208D290028C
:10330F004EA3E0FAA3E0F91208D2900260A3E0FA0C
:10331F00A3E0F91208D2EF60079001AAE04401F090
:10332F0090025DA3E0FAA3E0F91208D290024EA337
:10333F00E0FAA3E0F91208D29001A9E004F0E0C38B
:09334F00940840A79001AAE0FFD8
:013358002252
:0E2FCB009001A3EFF0A3EBF0A3EAF0A3E9F06E
:102FD9001233599001A3E025E04401FF1232651232
:102FE9003167EF70639001A7E07002A3E06052902F
:102FF9000247E0FB70057F64FE8008EBB401077FA0
:103009000A7E00123D331232DF9001A4E0FBA3E0F7
:10301900FAA3E0F9EF12071A9001A5E475F001127D
:1030290007B59001A8E024FFF09001A7E034FFF074
:10303900E07002A3E0700512367880051234A18091
:0F304900A412361FE4FEFF2212361F7E007F0105
:013058002255
:0E2F37009001A3EFF0A3EBF0A3EAF0A3E9F002
:102F450012361F1233599001A3E025E0FF123265B6
:102F5500123167EF70689001A7E07002A3E060503E
:102F6500900247E0FB70057F64FE8008EBB4010723
:102F75007F0A7E00123D339001A4E0FBA3E0FAA393
:102F8500E0F91206D4FF123265123167EF702F9007
:102F950001A8E024FFF09001A7E034FFF0E0700203
:102FA500A3E0600C9001A5E475F0011207B580A6B9
:102FB5007F3C7E00123D3312361FE4FEFF2212369F
:052FC5001F7E007F01EA
:012FCA0022E4
:02161F00C129DF
:103C530075BA0375AAB843918043878043A89075CA
:053C63009850C29922F7
:030023000238435D
:10384300C0E0C083C082C0D075D000C007309821CB
:10385300C298900009E0FFC39450501974212FF5CA
:1038630082E43400F583E599F0900009E004F080E8
:1038730004C229C299D007D0D0D082D083D0E032FD
:08000300D2298F992029FD226A
:103506001B2A01410400000000000000000000002A
:10351600000000000000000000000000092A00442E
:10352600000001000023122A0145AF000000000040
:10353600000000000000000000072A014906000004
:1035460023072A0149020000230B2A01490801002A
:0F3556000000000023092A014908030000002398
:10162100605001F100000000000000000000000017
:1016310000000000000000000000000000000000A9
:101641000000000000000000000000000000000099
:101651000000000000000000000000000000000089
:101661000000000000000000000000000000000079
:0C16710000000000410241004102420064
:0E3883009001EBEBF0A3EAF0A3E9F0A3EDF067
:10389100E4A3F0F09001EEE0FFA3E0FEC39F501F10
:1038A1009001EBE0FBA3E0FAA3E0F98E82758300BF
:0F38B1001206EDFF1200039001EFE004F080D546
:0138C00022E5
:0E2BE4009001C5EBF0A3EAF0A3E9F0A3EDF039
:102BF200E4A3F0A3F0900009E0FFD39D5006EFC3D9
:102C0200945040187B017A0079219001CF7450F0E2
:102C1200E4FD12376BE4900009F0FF22900009E016
:102C2200601060112420F582E43400F583E064230F
:102C320060037F00229001C8E0FF900009E0FED30C
:102C42009F9001CA4004EFF08002EEF09001CAE0CA
:102C5200FF9001C9E0FEC39F502874212EF582E443
:102C62003400F583E0FF9001C5E0FBA3E0FAA3E0A6
:102C7200F98E82758300EF12072C9001C9E004F0EF
:102C820080CA7B017A0079219001CFEEF0E4FD1237
:0C2C9200376BE4900009F09001CAE0FFED
:012C9E002213
:1018E000E49001C2F0A3F0A3F0900241E0FF24F1E4
:1018F000F9E43401FA7B01C374509FFD122BE4EF2D
:101900007003021A5D900241E02FF0E09001C4F0F4
:10191000E49001C1F0900241E0FF9001C1E0FEC3FC
:101920009F4003021A5D74F12EF582E43401F583C1
:10193000E0642A6003021A33EE7003021A3324F0C3
:10194000F582E43401F583E0FD9001C3F0EE2DFD56
:10195000E433FCD3ED9F7480F86C984003021A3393
:10196000E0FF9001C1E02F24F0F582E43401F5831B
:10197000E064236003021A3374F02EF9E43401FAB0
:101980007B011230E59001C3E0FF9001C1E02FF030
:10199000900241E0FF9001C1E0FEC39F5003021A94
:1019A00054EEB507177B017A0179F19001CFEFF082
:1019B000E4FD12376BE4900241F08077E49001C2BD
:1019C000F09001C1E0FF900241E0FDC39FFFE4946D
:1019D00000CF2401CF3400FE9001C2E0C39FEE642B
:1019E00080F8748098502FE0FF9001C1E0FE2F2412
:1019F000F0F582E43401F583E0FC74F12FF582E424
:101A00003401F583ECF0C3ED9E04900241F09001A7
:101A1000C2E004F080AB900241E0FF24F1F9E4342D
:101A200001FA7B019001C4E0C39F9001CFF0E4FD77
:101A300012376B9001C1E0C3945040187B017A01CA
:101A400079F1900241E09001CFF0E4FD12376BE4B0
:0D1A5000900241F09001C1E004F002191570
:011A5D002266
:0B30E5009001C5EBF0A3EAF0A3E9F0B6
:1030F0001206D4FF9000011206ED642A7068900158
:10310000C5E0FBA3E0FAA3E0F98F82758300120605
:10311000ED642370519000031206EDB441030233B5
:10312000CA9001C5E0FBA3E0FAA3E0F99000031206
:1031300006EDB44403023B5B9001C5E0FBA3E0FA5B
:10314000A3E0F99000031206EDB44503021BC990F9
:1031500001C5E0FBA3E0FAA3E0F99000031206ED3D
:06316000B44903122987A7
:013166002246
:1033CA0078C87C017D017BFF7A3579067E007F1CF7
:1033DA001206AEE4FF90001FE09001CAF09001755A
:1033EA00E0FCA3E0FDE412037290024312084F7F4F
:1033FA00509001CDEFF0900243E09001CEF09002A0
:10340A0044E09001CFF0900245E09001D0F09002A4
:10341A0046E09001D1F0E49001E1F0A3F0A3742317
:0C342A00F07B017A0179C87D1C02388318
:103B5B0078C87C017D017BFF7A3579227E007F0A54
:103B6B001206AE90001FE09001CEF07B017A017936
:063B7B00C87D0A02388338
:0B1BC9009001C8EBF0A3EAF0A3E9F0E4
:101BD400E4A3F078CC7C017D017BFF7A35792CFE7F
:101BE4007F131206AE9001C8E0FBA3E0FAA3E0F96C
:101BF4009000041206ED9001CBF0D3940A40030246
:101C04001C8F90026BE0FFB4010FA3E0700B9001F6
:101C1400CBE0640A6003021D269001CBE014B40AF1
:101C2400004003021CCC901C3875F003A4C5832526
:101C3400F0C58373021C56021C56021C56021C5625
:101C4400021C73021C78021C7D021C82021C8D0281
:101C54001C87EFB4010F90026CE0B4010820170553
:101C640012356580639001CBE0FF123C92805912DB
:101C74003D9A8054123C0A804F123E5D804A123EC7
:101C8400528045200842123C3D803D9001CBE0FF4C
:101C9400C394104045EFD39413503FEF24EF6012E8
:101CA40014601714601C2403701E30171B1238C1F3
:101CB4008016201713123565800E30140B123EACBB
:101CC4008006201403123EA39001C8E0FBA3E0FAAF
:101CD400A3E0F91206D404FD80459001CBE064AF83
:101CE400704090001FE09001CEF0A217E433900101
:101CF400D1F0A214E433A3F090000EE09001D3F0ED
:101D0400A207E433A3F0A206E433A3F0E49001DCD9
:101D1400F0A3F0A37423F07B017A0179CC7D131234
:021D2400388302
:011D2600229A
:0B2987009001C8EBF0A3EAF0A3E9F018
:10299200E4A3F0A312085B000000009001D012082B
:1029A2005B000000009001C8E0FBA3E0FAA3E0F99D
:1029B2009000041206EDFF64037003022A56EFB47E
:1029C20006030212BB9001C8E0FBA3E0FAA3E0F900
:1029D2009000041206EDB40703023BEA9001C8E03E
:1029E200FBA3E0FAA3E0F99000041206ED6408707C
:1029F200639000051206EDB4010920165720045415
:102A0200023D0D9001C8E0FBA3E0FAA3E0F99000BB
:102A1200051206EDB4020630043A023D579001C891
:102A2200E0FBA3E0FAA3E0F99000051206EDB4037F
:102A32000920042020161D023D209001C8E0FBA3BE
:102A4200E0FAA3E0F99000051206EDB40406301690
:042A520003123EE04D
:012A5600225D
:0B12BB009001D4EBF0A3EAF0A3E9F0EF
:1012C600E4A3F0A3F0A312085B000000009001D491
:1012D600E0FBA3E0FAA3E0F99000051206ED900208
:1012E6006BF0701EA3F090027112085B0000000004
:1012F60090027512085B00000000E4900279F0028B
:10130600150F900271E0FCA3E0FDA3E0FEA3E0FF51
:10131600A312084F9001D774A8F0A374C0F09000F0
:10132600061206EDFFEFFBE4FAF9F89001D7E0FEAE
:10133600A3E0FFE4FCFD1207CB90027112084F9068
:1013460001D77405F0A374A0F0900271E0F8A3E051
:10135600F9A3E0FAA3E0FBC000C001C002C00390FD
:1013660001D4E0FBA3E0FAA3E0F99000071206ED32
:10137600FFEFFBE4FAF9F89001D7E0FEA3E0FFE403
:10138600FCFD1207CBD003D002D001D000EB2FFF1B
:10139600EA3EFEE93DFDE83CFC90027112084F90E2
:1013A60001D7E4F0A37464F0900271E0F8A3E0F9C9
:1013B600A3E0FAA3E0FBC000C001C002C003900195
:1013C600D4E0FBA3E0FAA3E0F99000081206EDFFD3
:1013D600EFFBE4FAF9F89001D7E0FEA3E0FFE4FCA6
:1013E600FD1207CBD003D002D001D000EB2FFFEACD
:1013F6003EFEE93DFDE83CFC90027112084F90026A
:1014060071E0F8A3E0F9A3E0FAA3E0FBC000C00195
:10141600C002C0039001D4E0FBA3E0FAA3E0F99078
:1014260000091206EDFFE4FCFDFED003D002D00158
:10143600D000EB2FFFEE3AFEED39FDEC38FC9002C2
:101446007112084F90026BE0B40137E4FFFEFDFC19
:10145600900275E0F8A3E0F9A3E0FAA3E0FBC3125B
:10146600083E701EFFFEFDFC900271E0F8A3E0F955
:10147600A3E0FAA3E0FBD312083E4006900279747B
:1014860001F0E4FFFEFDFC900271E0F8A3E0F9A391
:10149600E0FAA3E0FBC312083E7008900242E004A3
:1014A600F08005E4900242F0E4FFFEFDFC9002713C
:1014B600E0F8A3E0F9A3E0FAA3E0FBC312083E704C
:1014C60010900242E0C394034007E490026CF0805F
:1014D60038E4FFFEFDFC900271E0F8A3E0F9A3E01A
:1014E600FAA3E0FBD312083E401FE4FFFEFDFC908A
:1014F6000275E0F8A3E0F9A3E0FAA3E0FBD3120833
:0F1506003E400690026C7401F090027A7401F07E
:0115150022B3
:103ADD0078C17C017D017BFF7A35793F7E007F08BF
:103AED001206AE90001FE09001C3F07B017A0179C0
:0B3AFD00C17D08123883E490027AF0CB
:013B0800229A
:103B810078977C017D017BFF7A3579477E007F083C
:103B91001206AE90001FE0900199F07B017A017945
:063BA100977D0802388345
:1037B60078DF7C017D017BFF7A35794F7E007F0CB7
:1037C6001206AE90001FE09001E1F090017BE090C0
:1037D60001E5F0900005E0FCA3E0FDA3E0FEA3E018
:1037E600FF1203ABAC06EC9001E6F0A3EFF07B0111
:0937F6007A0179DF7D0C023883B1
:103A280078D47C017D017BFF7A35795B7E007F0A43
:103A38001206AE90001FE09001D6F090017EE09053
:0E3A480001DAF07B017A0179D47D0A0238831D
:103BC90053D4BF53D5BF53D47F53D57FD296D29701
:103BD9007B017A0079719001CF743CF0E4FD0237E2
:013BE9006B70
:0E31E7009001C1EBF0A3EAF0A3E9F0A3EDF034
:1031F500E4A3F090018DE02DFFE433FED3EF94C8F6
:10320500EE648094805058E49001C5F09001C4E0CC
:10321500FFA3E0C39F50339001C1E0FBA3E0FAA3F5
:10322500E0F99001C5E0FEF5827583001206EDFD1B
:1032350090018DE0FCEE2C24ADF582E43400F5839D
:10324500EDF09001C5E004F080C290018DE02FF013
:0F325500200B0C900000740AF09001887403F0B5
:013264002247
:10167D004102C5004102C7004102C6004102C80037
:04168D004102C40052
:0D004600D2A9438920758CC0D2AFD28C2284
:0E3DE6001200469002C67403F09002C8F0224C
:03000B00022DFEC5
:0D2DFE00C0E0C083C082C0D075D000C00707
:102E0B00900000E07003022E95900188E014F070A2
:102E1B00799002C8E0900188F0900000E0FF14F078
:102E2B00EF24F6603A24097055D29690018DE0FF9D
:102E3B0090000DE06F601BE0FF04F074AD2FF58286
:102E4B00E43400F583E09002C4F0900000740AF0C3
:102E5B00803890000DE4F090018DF0C20B802BD2E6
:102E6B000BC29690000DE07021E0FF04F074AD2FC3
:102E7B00F582E43400F583E09002C4F0800C9002FC
:0A2E8B00C4E0FF139296EFC313F0AA
:0B2E9500D007D0D0D082D083D0E03234
:05000E000000000000ED
:101691004B02933F065B4F666D7D077F6F004102F2
:0616A100910041029200DD
:0B3E1B00EF1FAC0670011E4C70F62279
:0D3E020043D43853D5C7D293D294D2952221
:0C3E0F00123E02123E68123C24023E7C6F
:0E38FD00123E727F027E00123E1BC293AF018C
:10390B00E4FDAB07C294EB30E004D2958002C29584
:10391B007F017E00123E1BD2947F017E00123E1B64
:09392B00EBC313FB0DEDB408DB46
:013934002270
:0A3E6800C2937F0212390BD293229D
:0A3E7200C2937F4012390BD2932255
:102B1F009001A8EFF09001AAEBF0A3EAF0A3E9F07F
:052B2F009001A9EDF08A
:102B3400E49001AEF0FAEDC394074003022BE39056
:102B440001A9E0FF7003022BE3C374079FFFE49421
:102B540000FEEF25E0FFEE33FE9001ADE0D39FEEE3
:102B64006480F874809850779001A9E025E024BE31
:102B7400F91238FDE49001AEF09001ADE0FFA3E05E
:102B8400FEC39F50589001A8E0B40126EEB404227D
:102B94009001AAE0FBA3E0FAA3E0F98E827583001A
:102BA4001206ED2493F582E43402F583E04480FABE
:102BB400801E9001AAE0FBA3E0FAA3E0F98E8275DF
:102BC40083001206ED2493F582E43402F583E0FADF
:0F2BD400AF0212390B9001AEE004F0809CD29357
:012BE30022CF
:103C2400E4FA123E72C2937FC012390BE4FF1239D8
:083C34000B0AEAB40CF6D2936E
:013C3C002265
:0A3E7C00C2937F8B12390BD2932200
:0525E00090019BEFF0EB
:1025E500E49001A0F078A17C017D017BFF7A007960
:1025F5000EFE7F051206AEE49001A6F0A3F0900151
:102605009BE0B40134E4FFFE7D207C41A3E0F8A308
:10261500E0F9A3E0FAA3E0FB1202F440028039E4FA
:10262500FFFE7DC87C4290019CE0F8A3E0F9A3E0A1
:10263500FAA3E0FB12014E803990019BE0B4023D04
:10264500E4FFFE7D7A7C44A3E0F8A3E0F9A3E0FA79
:10265500A3E0FB1202F4400C9001A67403F0A374EE
:10266500E7F0801990019CE0FCA3E0FDA3E0FEA348
:10267500E0FF1203AB9001A6EEF0A3EFF09001A6E8
:10268500E0FAA3E0FB7C007D64FFAE0212076090D8
:1026950001A5EFF07C007D64AF03AE021207607EFA
:1026A500007F0ACFCDCFCECCCE1207609001A3EF2D
:1026B500F09001A6E0FEA3E0FF7C007D0A12076012
:1026C5009001A1EDF090019BE0FF7B017A0179A1DA
:0B26D5009001AD7405F07D01022B1F89
:0227CA00AA075C
:1027CC00E4F99001DFF0EAC3940D40030228B0ED68
:1027DC00C3940240030228B0EAD394065048ED6437
:1027EC00017026EAC39402400DEAD3940550079079
:1027FC000291E054C3F0900291E0FF7401A802082A
:10280C008002C333D8FC4F8012900291E0FF740118
:10281C00A802088002C333D8FCF45F900291F079CF
:10282C00C89002918040EAC3940C5041EDB401175A
:10283C00900292E0FFEA24F9FE7401A806088002D7
:10284C00C333D8FC4F8016900292E0FFEA24F9FEC5
:10285C007401A806088002C333D8FCF45F9002927E
:10286C00F079CA900292E09001DFF0801AEAB40C81
:10287C0016ED900291B40107747FF0A3F0800674FA
:10288C0002F0E4A3F079C81238FDEA640C600590FC
:10289C0001DF8009900291E0FF12390BA3E0FF12D7
:0428AC00390BD2937F
:0128B0002205
:050016000000000000E5
:0516A7004202C9000031
:0E3DAA00E4FFFE0FBF00010EEF64024E70F545
:013DB80022E8
:0B3E260053DA9F53DB9FD2B5D2B622C7
:103C6800EF700753DABF43DB4022EFB4010653DAA3
:053C7800BF53DBBF2279
:103C7D00EF700753DADF43DB2022EFB4010653DA8E
:053C8D00DF53DBDF2224
:03001E00D2B62235
:03004000C2B62223
:033F0300D2B52212
:033F0600C2B5221F
:0A3E860030B6047F0180027F0022A5
:1026E00090019B7423F0E4A3F0A3F0789E7C017D1D
:1026F000017BFF7A007916FE7F051206AE90024735
:102700007401F0A374FFF0A3743CF0A37468F0A309
:1027100074FFF0A3743CF0A3747DF0A374FFF0A3E6
:10272000743DF0A374AAF090025474FFF0A37400F7
:10273000F0A3741EF0A374FFF0A37400F0A3744020
:10274000F0A374FFF0A3743FF0A37403F0A374FF2D
:10275000F0A3743FF0A37406F0A374FFF0A3743EDB
:10276000F0A37486F07B017A01799B9001A7E4F0D5
:10277000A304F07F4D122F37EF70137B017A01799C
:102780009E9001A7F0A37405F07F4D122FCB90010E
:102790009EE030E015A3E0FEA3E0FDEDFF90019C7C
:1027A000EEF0A3EFF04E701180009002C9E0FFA39D
:1027B000E090019CCFF0A3EFF090019CE0FEA3E03D
:0927C000FF9002C9EEF0A3EFF056
:0127C90022ED
:103BA700C0BE75BE0353F50FE4F5F975FBC075F29A
:103BB7003F75F1FF75FA91F5D5F5D6F5D7F5C9D06B
:023BC700BE221C
:103B0900C0BE75BE03ED700F04A807088002C33359
:103B1900D8FCF452F58011EDB4010D7401A8070821
:0B3B29008002C333D8FC42F5D0BE225E
:1039C800D3ED94FFEC943F5026C0BE75BE03EF24A0
:1039D800FB600A14601014600D24037010AF058F8B
:1039E800D5ECF5D68007AF058FD7ECF5C9D0BE2248
:03004300023E3149
:0B3E3100C0BE75BE0353BCFED0BE3205
:1016AC004802A223282AF82F44377844029E080DBA
:0216BC00101309
:103CE60090000E7402F0E4900017F0A3F0FDFC7F44
:043CF600070239C8C0
:063EFD00E490000EF0222B
:103C9200EFD39404500E90000EEFF0D21504FF7D86
:053CA200011227CA22F7
:10239900E4900197F0A3F0A312085B00000000127B
:1023A9003DC890019912084F900001E0FCA3E0FD9F
:1023B900A3E0FEA3E02402FFE43EFEE43DFDE43C8D
:1023C900FC900199E0F8A3E0F9A3E0FAA3E0FBC3CC
:1023D90012083E50030224C390000EE0FFC394018B
:1023E9004018EF25E024A0F582E43402F583E0FFEC
:1023F900A3E0900197CFF0A3EFF030177030156D7F
:1024090090000EE0FF900020E06F6006D211EFF01F
:10241900C205301143900197E0FEA3E0FF90001739
:10242900E0FCA3E0FDC39FEC9E500DE02464F09016
:102439000017E03400F0801BD3ED9FEC9E40109014
:102449000018E0249CF0900017E034FFF08004C2EB
:1024590011C215900017803B90000EE0249DF58273
:10246900E43402F583E090018EF0D2052220174A68
:10247900301547C205C3900018E09464900017E036
:1024890094004019300C33A3E0249CF0900017E02D
:1024990034FFF0E0FCA3E0FD7F070239C8300C1AD5
:1024A900C215E4900017F0A3F0FDFC7F071239C8AC
:0A24B900C20C90000EE0900020F02D
:0124C30022F6
:102EA000E4900197F0A3F0300403022F3690000E57
:102EB000E024FE6010146013146016240370777E03
:102EC000237F8C80107E2B7F5C800A7E2F7FA880E2
:102ED000047E377FDC30055990018EE0FD9001774C
:102EE000E0F9D39D401BD3900018E09F900017E0BD
:102EF0009E4031A3E0249CF0900017E034FFF08066
:102F00002390018EE0FDE9C39D5019C3900018E0A5
:102F10009F900017E09E500CA3E02464F0900017EF
:102F2000E03400F0900017E0FCA3E0FD7F071239C9
:062F3000C8E4900177F0F7
:012F36002278
:1016BE004102BC0A4102BD144102BE644202BF0394
:0A16CE00E84202C127104102C300E8
:093E9A00D2AB758902758D472237
:083ED000123E9AD2AFD28E22FD
:03001B00021A5E68
:101A5E00C0E0C0F0C083C082C0D075D000C000C04E
:0D1A6E0001C002C003C004C005C006C007CF
:101A7B009002BCE014F07048D212740AF090018FFF
:101A8B00E0FCA3E0FDA3E0FEA3E02401FFE43EFEA7
:101A9B00E43DFDE43CFC90018F12084F74FFFFFE08
:101AAB00FDFC90018FE0F8A3E0F9A3E0FAA3E0FBC3
:101ABB00C312083E700A90018F12085B00000000F1
:101ACB009002BDE014F07005D2137414F09002BEB6
:101ADB00E014F07005D2007464F09002BF74FFF54F
:101AEB00F01207B545F0700CD2099002BF7403F0E9
:101AFB00A374E8F09002C174FFF5F01207B545F03E
:101B0B007041D2189002C17427F0A37410F0300703
:101B1B0013900179E004F07006900178E004F03046
:101B2B000F02D20E900189E0FCA3E0FDA3E0FEA31F
:101B3B00E02401FFE43EFEE43DFDE43CFC90018922
:101B4B0012084F9002ADE0B4010E9002AFE004F02A
:101B5B0070069002AEE004F0D390001AE09400906F
:101B6B000019E09400403C9002C3E014F0E0700BCD
:101B7B00B28490000BA3E09002C3F090001AE02413
:101B8B00FFF0900019E034FFF0E0FEA3E0FF4E7091
:101B9B000A9002C3F0C285C2848008BE0705BFD07D
:031BAB0002C285EE
:101BAE00D007D006D005D004D003D002D001D0008B
:0B1BBE00D0D0D082D083D0F0D0E03235
:0F3DB90090018FE0FCA3E0FDA3E0FEA3E0FF225A
:0F3DC800900189E0FCA3E0FDA3E0FEA3E0FF2251
:073EE800D2AFD2AAD28A2258
:03001300023CFAB2
:103CFA00C0E0C083C082900177E004F0D082D08314
:033D0A00D0E032D4
:033F1500000000A9
:0816D8004102AA004102AC002E
:073ED800E4FF0FEFB40AFB49
:013EDF0022C0
:0B3E3C0053DAF353DBF3D2B3D2B2220F
:103CA700EF700753DAFB43DB0422EFB4010653DA64
:053CB700FB53DBFB22C2
:103CBC00EF700753DAF743DB0822EFB4010653DA4F
:053CCC00F753DBF722B5
:033F0900D2B2220F
:033F0C00C2B2221C
:033F0F00D2B32208
:033F1200C2B32215
:0A3E900030B2047F0180027F00229F
:0B2D580090019DEBF0A3EAF0A3E9F06E
:102D6300A37417F0E4900247F0A374FFF0A3743C3C
:102D7300F0A374A7F0A374FFF0A3743CF0A374BC96
:102D8300F0A374FFF0A3743EF0A374D8F090025440
:102D930074FFF0A3743FF0A37409F0A374FFF0A3CE
:102DA300743FF0A3740CF0A374FFF0A3743FF0A37B
:102DB300740FF0A374FFF0A3743FF0A37412F0A395
:102DC30074FFF0A3743EF0A37490F07B017A017951
:102DD300A09001A7E4F0A304F07F30122F37EF7027
:102DE3001990019DE0FBA3E0FAA3E0F99001A7E4A9
:0A2DF300F0A37403F07F30122FCB21
:012DFD0022B3
:101D2700E4900197F0900199F0789A7C017D017B0E
:101D3700FF7A3F7915FE7F031206AE3002037FFF5D
:101D4700227B017A01799A122D5890019CE0FF902D
:101D57000198F090019BE0900199F0EF7003E0602B
:101D67000A900198E06015A3E06011E49002ABF0DF
:101D7700A3F09002AAF0123D8A7F0022900198E01A
:101D8700FF601A9002ABE0FEEF6E60119002AD7437
:101D970001F0E4A3F0A3F09002B1F0A3F090019951
:101DA700E0FF60189002ACE0FEEF6E600FA37401D5
:101DB700F0E4A3F0A3F09002B1F0A3F0C39002AF58
:101DC700E094F49002AEE094015003021E6F90017C
:101DD70099E0FF6406600FE49002ADF0A3F0A3F072
:101DE7009002AAF08007E49002AEF0A3F090019869
:101DF700E0601BB4020C9002B17401F0A37404F00C
:101E07008007E49002B1F0A3F0E49002AAF0EF603B
:101E170057900199E0FFB4010C9002B17401F0A34F
:101E27007403F08043EFB4020B9002B17401F0A386
:101E370004F08034EFB404079002B174018026EFF8
:101E4700B4061E9002AAE004F0E0C394284019905B
:101E570002B17401F0A37405F0E49002ADF0A38021
:101E670004E49002B1F0A3F0900198E09002ABF087
:0D1E7700900199E09002ACF09002B2E0FF03
:011E8400223B
:103D8A00E49002ADF0A3F0A3F09002B1F0A3F02208
:1016E000C123C12444027E000000004402820000A5
:1016F00000004202860000C125C126440288000085
:0D170000000041028C0044028D0000001E1C
:0100210022BC
:1036D100E4900197F0209146123DF4900197E0C3E8
:1036E100940A503A3013047F0180027F00EF600595
:1036F100C213122A573018047F0180027F00EF6045
:10370100DAC218900197E004F090000FE0FCA3E00A
:0E371100FDA3E0FEA3E0FFEC4D4E4F70BE2284
:01371F002287
:10356500123DC890000112084F123C0A123E521239
:103575003A56123DC8A804A905AA06AB0790000152
:10358500E0FCA3E0FDA3E0FEA3E02402FFE43EFE91
:10359500E43DFDE43CFCC312083E40D6300806304D
:1035A5000806309103123C3D123CE6D217D20CD2EC
:0F35B50015E4FD7F0B1227CA7D017F030227CA91
:1038C100123DC890001B12084F123A83C217123ED4
:1038D100FD123DF4123D9A123E5D120021D215E413
:1038E100FD7F0C1227CA7D017F0B1227CAC201304E
:0C38F1001403123EAC300403123D5722B9
:102123009002B1E0B4010BA3E0B40506123B8112A7
:102133003D8A20040312343690026BE0B4011AA3E3
:10214300E0B40115900279E0B4010E20170B1235AB
:1021530065E4900279F0123D8A90026BE0B40113BA
:10216300A3E0700F20040C20160920170302226538
:102173000238C19002B1E06401600302225FA3E070
:1021830014700302223914700302222D14602C24CC
:10219300FE700302224504600302224F30160790AB
:1021A300017EE04401F020170612356502224F201C
:1021B300170302224F1238C102224F2017030222B3
:1021C3004F12002690000EE0FFC394045003E080FA
:1021D30008EF6404707690000E04F0D21590000EA0
:1021E300E0FF123C9230163A90000EE0FDB4010974
:1021F30090017EE04402F08029EDB4020990017E53
:10220300E04404F0801C90000EE0FDB4030990014B
:102213007EE04408F0800BEDB4040790017EE044B7
:1022230010F0301427123EAC802230161F90017E2E
:10223300E04420F0801630161390017EE04440F015
:10224300800A30160790017EE04480F09002B1E0EE
:10225300B40109A3E064056003123D8A301403123C
:032263002C9F228B
:1009A60090019712085B00000000123DC890019765
:1009B60012084FE47F02FEFDFC900197E0F8A3E0E9
:1009C600F9A3E0FAA3E0FBD312083E503A74FF7F86
:1009D600FDFEFDFC90027EE0F8A3E0F9A3E0FAA399
:1009E600E0FBC312083E401F900197E0FCA3E0FD28
:1009F600A3E0FEA3E02402FFE43EFEE43DFDE43C6A
:100A0600FC90027E12084F90027EE0FCA3E0FDA35C
:100A1600E0FEA3E0FF900197E0F8A3E0F9A3E0FA77
:100A2600A3E0FBC312083E404A1226E0AC06AD071F
:100A3600E412037290000512084F900197E0FCA3A0
:100A4600E0FDA3E0FEA3E02402FFE43EFEE43DFD5C
:100A5600E43CFC90027E12084F200417900175E0DA
:100A6600FCA3E0FDE412037290019C12084F7F0282
:100A76001225E0201703020B6A202402D224302319
:100A860002C223900001E0FCA3E0FDA3E0FEA3E088
:100A9600243CFFE43EFEE43DFDE43CFC900197E08F
:100AA600F8A3E0F9A3E0FAA3E0FBD312083E5057FF
:100AB600E47FB4FEFDFC900197E0F8A3A3A3E01247
:100AC600083E5040900005E0FCA3E0FDA3E0FEA335
:100AD600E0FF900013E0F8A3E0F9A3E0FAA3E0FB3F
:100AE6001202F4501F900005E0FCA3E0FDA3E0FE17
:100AF600A3E0FF1203ABAD07AC06900175ECF0A3C3
:100B0600EDF08056020BDC900005E0FCA3E0FDA3AF
:100B1600E0FEA3E0FF1203ABAD07AC06E4120372DE
:100B2600900013E0F8A3E0F9A3E0FAA3E0FB1200BB
:100B36005DE4FBFAF978401202571203AB90017597
:100B4600EEF0A3EFF0900005E0FCA3E0FDA3E0FECD
:100B5600A3E0FF1203ABAD07AC06E41203729000EC
:100B660013020E1F301703020E22302403020C1844
:100B7600E47F847E03FDFC900197E0F8A3E0F9A3EF
:100B8600E0FAA3E0FBC312083E505C900005E0FCCF
:100B9600A3E0FDA3E0FEA3E0FF1203ABAD07AC06A6
:100BA600E4120372900013E0F8A3E0F9A3E0FAA3BD
:100BB600E0FB1202F4501F900005E0FCA3E0FDA349
:100BC600E0FEA3E0FF1203ABAD07AC06E41203722E
:100BD60090001312084F900013E0FCA3E0FDA3E081
:100BE600FEA3E0FF020CCFD224D223E4900286F0CB
:100BF600A3F0900197E0FCA3E0FDA3E0FEA3E024B0
:100C060084FFEE3403FEE43DFDE43CFC90028202E8
:100C16000E1F302303020D0690001BE0FCA3E0FD2F
:100C2600A3E0FEA3E02458FFEE3402FEE43DFDE41B
:100C36003CFC900197E0F8A3E0F9A3E0FAA3E0FBFF
:100C4600C312083E4003020CDD900013E0FCA3E053
:100C5600FDA3E0FEA3E0FF900005E0F8A3E0F9A302
:100C6600E0FAA3E0FB1202F45023900175E0FCA326
:100C7600E0FDE4120372900013E0F8A3E0F9A3E0AC
:100C8600FAA3E0FB12005DE4FBFAF9803790000559
:100C9600E0FCA3E0FDA3E0FEA3E0FF1203AB90019E
:100CA60076E02FFD900175E03EFCE41203729000A1
:100CB60013E0F8A3E0F9A3E0FAA3E0FB12005DE479
:100CC600FBFA794078401202571203AB900175EE99
:100CD600F0A3EFF0020E22D223E4900286F0A3F0F6
:100CE600900197E0FCA3E0FDA3E0FEA3E02484FFCF
:100CF600EE3403FEE43DFDE43CFC900282020E1F4E
:100D0600900005E0FCA3E0FDA3E0FEA3E0FF1203D4
:100D1600ABD3900287E09F900286E09E5005EEF0EE
:100D2600A3EFF0900005E0FCA3E0FDA3E0FEA3E046
:100D3600FF1203ABAD07AC06E4120372900013E09A
:100D4600F8A3E0F9A3E0FAA3E0FB1202F450469000
:100D56000005E0FCA3E0FDA3E0FEA3E0FF1203AB69
:100D6600AD07AC06E412037290001312084F900010
:100D760005E0FCA3E0FDA3E0FEA3E0FF1203AB90B9
:100D86000176E02FFF900175E03EC313FEEF13FFDF
:100D9600EEF0A3EFF0900282E0FCA3E0FDA3E0FEFC
:100DA600A3E0FF900197E0F8A3E0F9A3E0FAA3E03F
:100DB600FBC312083E4065900286E0FCA3E0FDE41A
:100DC600120372900013E0F8A3E0F9A3E0FAA3E09F
:100DD600FB12005DE4FBFAF978401202571203ABEE
:100DE600900175EEF0A3EFF0FDAC06E412037290ED
:100DF600001312084FE4900286F0A3F0900282E0FE
:100E0600FCA3E0FDA3E0FEA3E02484FFEE3403FE92
:100E1600E43DFDE43CFC90028212084FC39001764B
:100E2600E09402900175E094005006E4F0A3740289
:010E3600F0CB
:010E37002298
:102C9F00900197740AF0A312085B000000009002E5
:102CAF006BE0B40107A3E07003022D572017030256
:102CBF002D57123DC890019812084F3025389001BA
:102CCF0097E0FFE4FCFDFE900288E0F8A3E0F9A393
:102CDF00E0FAA3E02FFFEE3AFEED39FDEC38FC9061
:102CEF000198E0F8A3E0F9A3E0FAA3E0FBD3120800
:102CFF003E500122C225900175E0FEA3E0FFC39470
:102D0F004BEE9400500C90000EE06401602A7401A9
:102D1F00801FC3EF9496EE9400500C90000EE06469
:102D2F000260157402800A90000EE064046009745A
:102D3F0004F0D215D225D22630260D90000EE004D5
:082D4F00FF7D011227CAC22614
:012D57002259
:1034360090019712085B0000000030175D123DC82E
:1034460090019712084F900001E0FCA3E0FDA3E075
:10345600FEA3E0240AFFE43EFEE43DFDE43CFC90CE
:103466000197E0F8A3E0F9A3E0FAA3E0FBC3120892
:103476003E402730092430910890028CE004F08009
:1034860005E490028CF090028CE0C39414400B305B
:0A34960017081238C1E490028CF010
:0134A0002209
:093EA300D2147D017F0A0227CA36
:093EAC00C214E4FD7F0A0227CADA
:1017310090019712085B00000000900177E0900192
:101741007CF0E4900177F090017AE0701330170596
:101751001238C1D20490017AE004F0C2030218D910
:1017610090017AE0FFB4011F90000FE0F8A3E0F9C7
:10177100A3E0FAA3E0FBE8494A4B60030218D92031
:101781009137D2030218D9EFB402051235658029C9
:1017910090017AE0FDB4032C90000FE0F8A3E0F98A
:1017A100A3E0FAA3E0FBE8494A4B60030218D92001
:1017B100910D90017BE054FEF090017A02185BD20A
:1017C100030218D9ED640460030218D9123DC890D0
:1017D100019712084F900001E0FCA3E0FDA3E0FE99
:1017E100A3E0240AFFE43EFEE43DFDE43CFC90015D
:1017F10097E0F8A3E0F9A3E0FAA3E0FBC312083EE7
:10180100405D90028DE0FCA3E0FDA3E0FEA3E0FFBC
:10181100900001E0F8A3E0F9A3E0FAA3E02FFFEACA
:101821003EFEE93DFDE83CFC900197E0F8A3E0F9BC
:10183100A3E0FAA3E0D312083E502490017CE0FF1C
:10184100C3940C4009EFD3940E50030218D99001B0
:101851007DE0C394FF40030218D9E004F080799041
:10186100028DE0FCA3E0FDA3E0FEA3E0FF900001F8
:10187100E0F8A3E0F9A3E0FAA3E02FFFEA3EFEE9D6
:101881003DFDE83CFC900197E0F8A3E0F9A3E0FA04
:10189100A3E0FBD312083E403F20010790017BE00B
:1018A10054FBF090017DE0C3941E500790017BE052
:1018B10054FDF0900005E0FCA3E0FDA3E0FEA3E0F1
:1018C100FF1203ABD3EF9400EE6480948040079045
:0E18D100017BE054F7F0D203300303123D57C1
:0118DF0022E6
:103D0D00D204C203E490017AF0A374FFF0E49001B1
:033D1D007DF02214
:103D5700C2043003031237B6C2033017031238C147
:013D67002239
:103D2000D216E490017EF0123DC890017F12084F38
:033D3000023BEA69
:1037200090019712085B000000B4123DC8C004C0AD
:1037300005C006AB07900197E0FCA3E0FDA3E0FE07
:10374000A3E0FF90017FE0F8A3E0F9A3E0FAA3E093
:103750002FFFEA3EFEE93DFDE83CFCD002D001D05F
:0A37600000C312083E4003123EE0D1
:01376A00223C
:083EE000C216123A28023BEA67
:0F170D004102B3004802B401030206040C0809AC
:073EEF0053D4FD53D5FD2261
:103D680043D60F53D7F0C2A0C2A1C2A2C2A3023E3B
:013D7800EF5B
:103C3D00D208123DC890018412084F7F247EFF7D6B
:063C4D00FF7CFF02393587
:0E3DF4007FDC7E007D007C00123935C2082283
:103935009001DF12084FE47FEC7E0FFDFC9001DF64
:10394500E0F8A3E0F9A3E0FAA3E0FB1207CBE47BE0
:10395500687A01F9F81237FF90000F12084FD2026A
:01396500223F
:1035C400900197E4F0A3743CF0A312085B000000A0
:1035D40000201746300843123DC890019912084F45
:1035E400900197E0FEA3E0FFE4FCFD900184E0F885
:1035F400A3E0F9A3E0FAA3E02FFFEA3EFEED39FDD4
:10360400EC38FC900199E0F8A3E0F9A3E0FAA3E018
:0A361400FBC312083E4003123DF410
:01361E002289
:102A570090000FE0FCA3E0FDA3E0FEA3E0FFEC4D38
:102A67004E4F7003022B11E4FFFEFDFC90000FE0B8
:102A7700F8A3E0F9A3E0FAA3E0FBD3120828900239
:102A8700B3E0402504F0E05407F090000FE0FCA30A
:102A9700E0FDA3E0FEA3E0FFEF24FFFFEE34FFFE1F
:102AA700ED34FFFDEC34FF802414F0E05407F09080
:102AB700000FE0FCA3E0FDA3E0FEA3E0FFE4FAF9CA
:102AC700F8EF2401FFEA3EFEE93DFDE83CFC9000FB
:102AD7000F12084F9002B3E024B4F582E43402F5F4
:102AE70083E0FF30E004D2A08002C2A0EF30E1040F
:102AF700D2A18002C2A1EF30E204D2A28002C2A218
:102B0700EF30E303D2A322C2A32230020AC2A0C23B
:072B1700A1C2A2C2A3C20289
:012B1E002294
:093EB50053D2DF53D3DFC2852292
:083966007FD27D507C0A7E0037
:10396E00AB05AA047C007D0A12074E900019EEF0FA
:10397E00A3EFF0AC02AD037E137F881207609000B8
:09398E000BEEF0A3EFF0D285224C
:103A5600123966900019E07002A3E070F67D307CA2
:103A6600097FD27E0012396E900019E07002A3E041
:0D3A760070F67D307C087FCD7E0002396E39
:103A83007D307C087FD27E0012396E900019E07081
:103A930002A3E070F6123966900019E07002A3E009
:0D3AA30070F67D407C0C7FCD7E0002396EF8
:100026007FCD123968900019E07002A3E070F67D6A
:0A003600307C087FCD7E0002396E99
:103BEA007D307C087FD27E0012396E900019E07019
:103BFA0002A3E070F67D307C097FD27E0002396E26
:0E376B009001CBEBF0A3EAF0A3E9F0A3EDF0A0
:10377900E4FFA3E0D394FF40020F22E4FEFF90018F
:10378900CFE0FDC3EF9DEE9400501F9001CEE0FD08
:103799009001CBE0FBA3E0FAA3E0F98F828E83EDE1
:0C37A90012072C0FBF00010E80D47F001F
:0137B50022F1
:02171C00C12AE0
:093EBE0053AC7F8FAC43AC8822A9
:0B3E47008FABAF058FAFD2BAD2AF2215
:103D7900E4AFADEF75F004A4FFAEF0ADAEEF4DFFCB
:013D89002217
:03005300023997D8
:10399700C0E0C0F0C083C082C0D075D000C005C0F1
:1039A70006C007123D799002CBEEF0A3EFF0D22AC2
:1039B700D007D006D005D0D0D082D083D0F0D0E0C9
:0139C70032CD
:1039F80061646320646174613A2025640D0A0000E3
:103A080000000000000000000000000000000000AE
:103A1800000000000000000000000000000000009E
:0F3DD70043D61053D7EFC2A47D1F7F01023E4792
:103C0A00D2A4D20790018374FFF0900178E4F0A364
:0A3C1A00740FF07D017F060227CA37
:103D9A00C2A4C207E4FD7F061227CAC22AC20F22A2
:073EF600C22AE4FF023EBEF8
:103D45009002CBE0FEA3E0FFE49002CBF0A3F0C22B
:013D55002A43
:013D5600224A
:1028B10078997C017D017BFF7A3A79077E007F035D
:1028C1001206AE789C7C017D017BFF7A3A790A7E03
:1028D100007F1E1206AE200703022986200F030285
:1028E1002966202A03022966123D45900197EEF0E0
:1028F100A3EFF0C3943CEE94025010900183E0C327
:10290100648094804005D201123D9A900183E004D5
:10291100F0B40306C20FC20EE4F07B017A01799C88
:102921009001CF741EF0E4FD12376B9001C474FF67
:10293100F0A37439F0A374F8F0900197E0FFA3E0DD
:102941009001C7CFF0A3EFF07B017A01799C120EC1
:102951009D7B017A01799C123CD1AD077B017A0103
:10296100799C1231E7300F08300E05123EF6C20E87
:10297100C3900179E09414900178E094004006D26C
:052981000FE4F0A3F0DB
:01298600222E
:093EC70043D62053D7DFC2A52227
:0B3E5200D2A5D2067D017F070227CA1F
:0B3E5D00C2A5C206E4FD7F070227CAD1
:103AB0006C65667474696D653A307825780A000023
:103AC00000000000000000000000000000000000F6
:0D3AD00000000000000000000000000000E9
:10171E00440263000007D0C127C1A844026700003D
:02172E000000B9
:101E850090019712085B0000000090019B12085B0F
:101E9500000007D090019F12085B0000000078A3A6
:101EA5007C017D017BFF7A3A79BF7E007F1E120699
:101EB500AEE490026BF0A3F090027112085B000093
:101EC5000000123DB990019712084F90019BE0FC6C
:101ED500A3E0FDA3E0FEA3E0FF900197E0F8A3E0F7
:101EE500F9A3E0FAA3E02FFFEA3EFEE93DFDE83C59
:101EF500FC90019F12084F123ADD123DB9900197EF
:101F050012084F3000047F0180027F00EF6005C298
:101F1500001218E090019FE0FCA3E0FDA3E0FEA302
:101F2500E0FF900197E0F8A3E0F9A3E0FAA3E0FB56
:101F3500C312083E40C490027AE07005123ADD8073
:101F45006790027AE06401705F7B017A0179A39062
:101F550001CF741EF0E4FD12376B9001C474FFF0DD
:101F6500A3743AF0A374B0F0900271A3A3E0FFA3A9
:101F7500E09001C7CFF0A3EFF07B017A0179A312BE
:101F85000E9D7B017A0179A3123CD1AD077B017AC5
:101F95000179A31231E790026BE0B40108A3E0B424
:101FA5000103123565023D8A90019BE0FCA3E0FD2B
:101FB500A3E0FEA3E0FF900197E0F8A3E0F9A3E01A
:101FC500FAA3E02FFFEA3EFEE93DFDE83CFC900167
:071FD5009F12084F021EFFDE
:1022660090019712085B00000000123DB99001979B
:1022760012084F302822900197E0FCA3E0FDA3E06E
:10228600FEA3E024D0FFEE3407FEE43DFDE43CFC73
:1022960090026312084FC228E47FD07E07FDFC90AF
:1022A6000197E0F8A3E0F9A3E0FAA3E0FBD3120854
:1022B6003E503C7F2F7EF87DFF7CFF900263E0F866
:1022C600A3E0F9A3E0FAA3E0FBC312083E40209086
:1022D6000197E0FCA3E0FDA3E0FEA3E024D0FFEE1F
:1022E6003407FEE43DFDE43CFC90026312084F9087
:1022F6000263E0FCA3E0FDA3E0FEA3E02418FFEEEA
:1023060034FCFEED34FFFDEC34FFFC900197E0F861
:10231600A3E0F9A3E0FAA3E0FBC312083E400820BD
:102326002705123ADDD227900263E0FCA3E0FDA365
:10233600E0FEA3E0FF900197E0F8A3E0F9A3E0FA3E
:10234600A3E0FBC312083E404990027AE0FF7011F9
:10235600A3E004F0E0943C4017A37401F0A3F080DE
:102366000FEFB4010BE490027CF0A3F090027BF037
:10237600C227900197E0FCA3E0FDA3E0FEA3E024C2
:10238600D0FFEE3407FEE43DFDE43CFC9002631210
:02239600084FEE
:012398002222
:101FDC0090019712085B00000000123DB990019728
:101FEC0012084F7F607EEA7DFF7CFF900197E0F83E
:101FFC00A3E0F9A3E0FAA3E0FBD312083E503DE4C2
:10200C007F9F7E15FDFC900267E0F8A3E0F9A3E04A
:10201C00FAA3E0FBC312083E4022900197E0FCA318
:10202C00E0FDA3E0FEA3E02460FFEE34EAFEED3415
:10203C00FFFDEC34FFFC90026712084F90027DE02C
:10204C00B40127900197E0FCA3E0FDA3E0FEA3E020
:10205C002460FFEE34EAFEED34FFFDEC34FFFC901F
:10206C00026712084FE490027DF0900267E0FCA337
:10207C00E0FDA3E0FEA3E0FF900197E0F8A3E0F9F8
:10208C00A3E0FAA3E0FBC312083E50030221229006
:10209C00026BE06401705DA3E0B40158E4FFFEFD47
:1020AC00FC900271E0F8A3E0F9A3E0FAA3E0FBD303
:1020BC0012083E4022900271E0FCA3E0FDA3E0FE7A
:1020CC00A3E09401FFEE9400FEED9400FDEC94006F
:1020DC00FC90027112084FE4FFFEFDFC900271E0CF
:1020EC00F8A3E0F9A3E0FAA3E0FBC312083E7004E6
:1020FC0090026CF0900267E0FCA3E0FDA3E0FEA36D
:10210C00E02460FFEE34EAFEED34FFFDEC34FFFC1E
:06211C0090026712084F5B
:01212200229A
:10005600020417E86480F8E933E83360110460F0BD
:10006600ED33EC337009E8FCE9FDEAFEEBFF220410
:1000760060DED3EB9FEA9EE99DE8C2E78CF0C2F70B
:1000860095F0400CE8CCF8E9CDF9EACEFAEBCFFBD7
:100096001203E285D0F05804700320D5B3E804704B
:1000A600075002B2D502042192D5EC0460F7E4CCE5
:1000B600C0E0C398F8603B94186008400DD0E0FBA0
:1000C6000203F9E4FBFAC9FC8028E830E406E4C937
:1000D600FBE4CAFCE830E305E4C9CACBFCE85407F4
:1000E6006010F8C3E913F9EA13FAEB13FBEC13FCFF
:1000F600D8F130F52FC3E49CFCEF9BFFEE9AFEEDA2
:1001060099FDD0E0FBEF4E4D4C701222DB0302044A
:100116001EEC2CFCEF33FFEE33FEED33FDED30E746
:10012600EB0203F9EF2BFFEE3AFEED39FDD0E0FBD3
:1001360050130BBB0003020421ED13FDEE13FEEF7B
:0801460013FFEC13FC0203F9A6
:10014E00EC4D6011E8497017ED33EC3304600DE4AB
:10015E00FCFFFEFD22E933E8330470F802041712A7
:10016E0003E258046009E4CC2481500628500902A9
:10017E00042128400302041EC0E0EB4A7044B980FB
:10018E0006D0E0FB02040DEF4E701CBD8008EBFFA5
:10019E00EAFEE9FD80EBE98DF0A4FEE5F002023700
:1001AE00E9CDF9EAFEEBFFEF89F0A4FCE5F0CE898C
:1001BE00F0A42EFFE435F0CD89F0A42DFEE435F049
:1001CE008067EF4E7005BD80D780C3EF8BF0A4AC77
:1001DE00F0EE8BF0A42CFCE435F0F8EF8AF0A42CB2
:1001EE00E5F038FCE433CB8DF0A42CFCE5F03BF8C5
:1001FE00EE8AF0A42CFCE5F038F8E433CF89F0A4B5
:10020E002CFCE5F038CF3400CE89F0A42FFFE5F0BA
:10021E003EFEE433C98DF0A42EFEE5F039CD8AF012
:10022E00A42FFFE5F03EFEE43DFD33D0E0FB50078A
:10023E000BBB000F020421EC2CFCEF33FFEE33FE60
:06024E00ED33FD0203F98F
:10025400020421EC5D046005E859047003020417EC
:100264001203E2580460F6EC4860F2EC7004FDFE00
:10027400FF22C860DB2481C85009C398600250067D
:1002840002041E9850CAF582E9294B4A7005AB82D4
:1002940002040D75F0007C1A7880C3EF9BEE9AED92
:1002A40099400DC3EF9BFFEE9AFEED99FDE842F0F5
:1002B400DC23ACF0D0E0FFD0E0FED0E0FDAB822048
:1002C400E7101BEB60BAEC2CFCEF33FFEE33FEEDD2
:1002D40033FD0203F9E803F830E705C0F075F000D8
:1002E400EF2FFFEE33FEED33FD40B830E7C280AAB6
:1002F40074F8CC6480CCC86480C8F58204604FC3B1
:10030400EB9FF5F0EA9E42F0E99D42F0E89C45F04F
:10031400603C501DE5825FFFE582D313CB5BCBF4D9
:100324002B5582FB50280ABA002409B90020088002
:100334001DE5825BFBE582D313CF5FCFF4C3132F9C
:100344005582FF50090EBE00050DBD00010CC3EB24
:100354009FF5F0EA9E42F0E99D42F0E89C45F0608A
:0903640007CC4820E701B3EC22AC
:10036D0075F020800E75F010800575F0087D007E0B
:10037D00007F003392D530D50312081AEC334010AC
:10038D00EF33FFEE33FEED33FDEC33FCD5F0ED2214
:0E039D00E5F0247EA2D513CC92E7CDCEFF2250
:1003AB00EDD2E7CD33EC3392D524814006E4FFFE4A
:1003BB00FDFC22FCE4CFCECDCC24E0501174FF80A9
:1003CB00EDC3CC13CCCD13CDCE13CECF13CF047046
:0703DB00F030D5DE02081A24
:100E3800E50824C4F582E43401F583E0050822902E
:100E480001C13021039001C4E475F00112088C023D
:100E580006D4201AE97F2ED21A8018EF540F249056
:100E6800D43440D4FF301E0BEF24BFB41A00500313
:100E78002461FFE50960021509050CE50C700205FF
:100E88000B30210E9001C1E475F00112088CEF02BD
:100E9800071A023B347403D2218003E4C221F50807
:100EA8009001C11208A3E4F509F50BF50CE50960FA
:100EB800077F20120E7B80F5750AFFC21BC21AC27B
:100EC8001CC21DC21FC220C222120E47FF700D3065
:100ED80021057F00120E8CAF0CAE0B22B4255FC229
:100EE800D5C21E120E47FF24D0B40A00501A75F05E
:100EF8000A780930D50508B6FF0106C6A426F620EB
:100F0800D5047002D21D80D924CFB41A00EF500442
:100F1800C2E5D21E02117ED21B80C6D21A80C0D270
:100F28001C80BCD2D580BAD21F80B47F20120E7B21
:100F3800201C077401B5090040F1120E38FF120E8B
:100F48007B020EB5D222D2208095120E38FB120EEB
:100F580038FA120E38F94A4B7006797C7A127BFF00
:100F6800201C2EE509602A7E008E827583001206F9
:100F7800ED60060EEE650A70F0C2D5EBC0E0EAC07F
:100F8800E0E9C0E0EE1211DFD0E0F9D0E0FAD0E0FD
:100F9800FB1206D4FF60AAEBC0E0EAC0E0E9C0E0BB
:100FA800120E7BD0E02401F9D0E03400FAD0E0FB47
:100FB800E50A0460DCD50AD98087D21C80A2121108
:100FC800C160F7E50A70010412042CA90A600DE556
:100FD8000A600914F50A121269EF60F3EA30E702B1
:100FE800F404C3995079EAF4250A0430E701E404CB
:100FF800F50A800D1211C160C1EA050A250A12041A
:101008002CEA9001F0F030E701E4250A04D50A043F
:10101800201F01141211DFE4C0E01212699001F0E0
:10102800E0601320E70714F0120E63802204F0D06A
:10103800E014C0E07F00120E63E50A6007120E5A42
:10104800150A800B301F03120E5AD0E0020EB5D0DD
:10105800E00480C41211C1609EE50A0412042C90B9
:1010680001F0EAF0E50A201F0260010424041211CD
:01107800DF98
:1010790074FF04C0E0121269120E63E50A201F0210
:101089006003120E5AD0E0B50AE87F45120E6D9042
:1010990001F0E07F2B30E7047F2DF404C0E0120E4D
:1010A9007BD0E075F00A84C0F0120E64D0E0120E15
:1010B90064020EB5791080027908C220C222800824
:1010C900D2D5790A8004790AC2D5E50A047002F5F5
:1010D9000AE4FAFDFEFF120E38FC7B08201B1312EE
:1010E9000E38FD7B10301A0A120E38FE120E38FF28
:1010F9007B20EC3382D592D55013C3E4301A069F76
:10110900FFE49EFEE4201B039DFDE49CFCE4CBF878
:10111900C21BEC700CCFCECDCCE824F8F870F3806C
:1011290017C3EF33FFEE33FEED33FDEC33FCEB3346
:10113900FB994002FB0FD8E9EB301B05F8D0E0C45E
:1011490048B21BC0E00AEC4D4E4F78207B0070C2BC
:10115900EAB50A0040BCC0E01211E1D0F0D0E020AD
:101169001B04C4C0E0C4B21BC0F0120E64D0F0D599
:10117900F0EB020EB51208AC0F525310BD580F23F5
:101189004C0F1F4210C14F10C94410C9490F3843B1
:1011990010CF550FFC46105C450FC647129C500FE7
:1011A900272D0F2B2E0F4E2B0F2F230F4C2012857F
:1011B9002A0EE74800000F46E50AB4FF03750A0640
:1011C900120E38FC120E38FD120E38FE120E38FFC0
:1011D9009001E9020469790AA2D5201D14301F097A
:1011E900B910020404B9080104A2D5202002500153
:1011F90004201C68921CB509005034C0E07F2030DF
:101209001D197F30A21C7220721F500F121238C292
:101219001CC220C21FC2227F30800F301F03E9C0C9
:10122900E0120E7B301F03D0E0F9D0E0B509CC30D5
:101239001F177F30B9100C120E7B7F58301E077FA5
:10124900788003B90803120E7B301C057F2D020E2E
:101259007B7F202022F87F2B2020F322921C80CF35
:101269007F00B40700500B24E9F582E43401F583CB
:10127900E0FF22286E756C6C2900D21B120E3830E3
:101289001BF8C21B780930D50108F6020EE72D506C
:10129900434958120E382403B405004001E4901262
:1012A9009793120E6C743A120E6CD21D75090402D2
:0212B90010BD66
:1003E200E9D2E7C933E833F892D5EDD2E7CD33EC61
:0703F20033FC5002B2D522DA
:1003F900EC30E7100FBF000C0EBE00080DBD000465
:100409000BEB6014A2D5EB13FCED92E7FD2274FF10
:10041900FCFDFEFF22E480F8A2D574FF13FC7D8069
:03042900E480EF7D
:10042C00F920E73624F950037907E4F42402FBE5BC
:10043C0082158270021583DBF6E024FB501BE96009
:10044C0014E4F0E582158270021583E004F0B40A1E
:0D045C0008E4F0D9EE7401F00A22C2D522A6
:10046900ED33EC3392D5FA602AB4FF33EDC2E77B62
:10047900FF60067A04798EE4227A04799720D504FC
:100489007A047992224E614E002B494E46002D493D
:100499004E4600E47A08F0A3DAFC7B00740722C018
:1004A90083C082ECC0E0EDC0E0EEC0E0EFC0E0EA5E
:1004B90075F010A4CAABF075F04DA42BFBE435F030
:1004C900FCEA2410FAEB34C5FBEC34D9FCEDC2E7A5
:1004D900FF75F056A4F42411C5F0F434C58FF0A4C7
:1004E9002AE5F03BE43CF020E71412059ED0E0FF3A
:1004F900D0E0FED0E0FDD0E0FC1202578014F404F5
:1005090012059ED0E0FFD0E0FED0E0FDD0E0FC1265
:10051900014ED082D083E0FAEDD2E7CD33EC33241B
:1005290082FBE4C3CF33CFCE33CECD33CD33DBF330
:100539007B0775F00A846004F0A31B0AE5F0F0A3B9
:100549008FF0740AA4FFACF08EF0740AA42CFEACF0
:10055900F050010C8DF0740AA42CFDE435F0F0A3E1
:05056900DBDE74072237
:10056E003F8000004120000042C80000447A000095
:10057E00461C400047C35000497424004B18968017
:10058E004CBEBC205A0E1BCA6753C21C749DC5AE0E
:10059E00FB60065407601C23231205CCEB54386015
:1005AE00091205B81205C712014EECF8EDF9EEFA74
:1005BE00EFCB22EB1205C780F1543803241C9005B3
:1005CE006EFE93FC0EEE93FD0EEE930ECE93FF2277
:103065000224C4E493A3F8E493A34003F68001F299
:1030750008DFF48029E493A3F85407240CC8C3336C
:10308500C4540F4420C8834004F456800146F6DF3B
:10309500E4800B0102040810204080901516E47EA0
:1030A500019360BCA3FF543F30E509541FFEE49330
:1030B500A360010ECF54C025E060A840B8E493A3F7
:1030C500FAE493A3F8E493A3C8C582C8CAC583CA22
:1030D500F0A3C8C582C8CAC583CADFE9DEE780BEDA
:0117300000B8
:1005DE00E709F608DFFA8046E709F208DFFA803EFF
:1005EE0088828C83E709F0A3DFFA8032E309F608EC
:1005FE00DFFA8078E309F208DFFA807088828C8354
:10060E00E309F0A3DFFA806489828A83E0A3F60807
:10061E00DFFA805889828A83E0A3F208DFFA804CE1
:10062E0080D280FA80C680D4806980F280338010B8
:10063E0080A680EA809A80A880DA80E280CA803321
:10064E0089828A83ECFAE493A3C8C582C8CCC58399
:10065E00CCF0A3C8C582C8CCC583CCDFE9DEE78069
:10066E000D89828A83E493A3F608DFF9ECFAA9F0E8
:10067E00EDFB2289828A83ECFAE0A3C8C582C8CC3E
:10068E00C583CCF0A3C8C582C8CCC583CCDFEADE57
:10069E00E880DB89828A83E493A3F208DFF980CCB9
:1006AE0088F0EF60010E4E60C388F0ED2402B404B2
:1006BE000050B9F582EB2402B4040050AF23234559
:0606CE00822390062E734A
:1006D400BB010689828A83E0225002E722BBFE0224
:0906E400E32289828A83E4932257
:1006ED00BB010CE58229F582E5833AF583E02250C2
:1006FD0006E92582F8E622BBFE06E92582F8E2220C
:0D070D00E58229F582E5833AF583E4932225
:10071A00BB010689828A83F0225002F722BBFE01BE
:02072A00F322B8
:10072C00F8BB010DE58229F582E5833AF583E8F003
:10073C00225006E92582C8F622BBFE05E92582C8AF
:02074C00F22297
:10074E00EF8DF0A4A8F0CF8CF0A428CE8DF0A42EBF
:02075E00FE2279
:10076000BC000BBE0029EF8DF084FFADF022E4CC7D
:10077000F875F008EF2FFFEE33FEEC33FCEE9DEC46
:10078000984005FCEE9DFE0FD5F0E9E4CEFD22ED8C
:10079000F8F5F0EE8420D21CFEADF075F008EF2FD6
:1007A000FFED33FD4007985006D5F0F222C398FDC7
:0507B0000FD5F0EA2264
:1007B500C5F0F8A3E028F0C5F0F8E58215827002CF
:0607C5001583E038F0226C
:1007CB00E88FF0A4CC8BF0A42CFCE98EF0A42CFCCD
:1007DB008AF0EDA42CFCEA8EF0A4CDA8F08BF0A44B
:1007EB002DCC3825F0FDE98FF0A42CCD35F0FCEBAA
:1007FB008EF0A4FEA9F0EB8FF0A4CFC5F02ECD396F
:0F080B00FEE43CFCEAA42DCE35F0FDE43CFC22DB
:1037FF00C2D5E830E70FB2D5E4C39BFBE49AFAE4F5
:10380F0099F9E498F8EC30E717B2D5123835120968
:10381F0014E4C39BFBE49AFAE499F9E498F8800363
:10382F0012091430D50DE4C39FFFE49EFEE49DFD05
:04383F00E49CFC22E7
:0E081A00C3E49FFFE49EFEE49DFDE49CFC22EF
:10082800EB9FF5F0EA9E42F0E99D42F0EC6480C847
:0608380064809845F022E7
:10083E00EB9FF5F0EA9E42F0E99D42F0E89C45F010
:01084E002287
:0C084F00ECF0A3EDF0A3EEF0A3EFF0221C
:10085B00A8828583F0D083D082120872120872129C
:10086B000872120872E473E493A3C583C5F0C583C1
:10087B00C8C582C8F0A3C583C5F0C583C8C582C8E7
:01088B00224A
:10088C00F8E0FBA3A3E0F925F0F0E58215827002F5
:07089C001583E0FA38F02299
:0908A300EBF0A3EAF0A3E9F02256
:1008AC00D083D082F8E4937012740193700DA3A3DB
:1008BC0093F8740193F5828883E4737402936860EF
:0608CC00EFA3A3A380DFEF
:0608D2008A838982E473B1
:103B3400EFB40A07740D123B3F740A309811A89928
:103B4400B8130CC2983098FDA899C298B811F630F1
:073B540099FDC299F59922C9
:103CD100E4FFFE1206D4600C0FEF70010E09E970CB
:053CE100F20A80EF2251
:1008D80075F008758200EF2FFFEE33FECD33CDCCD7
:1008E80033CCC58233C5829BED9AEC99E58298405A
:1008F8000CF582EE9BFEED9AFDEC99FC0FD5F0D637
:10090800E4CEFBE4CDFAE4CCF9A88222B800C1B960
:100918000059BA002DEC8BF084CFCECDFCE5F0CB9E
:10092800F97818EF2FFFEE33FEED33FDEC33FCEBD7
:1009380033FB10D703994004EB99FB0FD8E5E4F992
:10094800FA227818EF2FFFEE33FEED33FDEC33FC7F
:10095800C933C910D7059BE99A4007EC9BFCE99A73
:10096800F90FD8E0E4C9FAE4CCFB2275F010EF2FB8
:10097800FFEE33FEED33FDCC33CCC833C810D707B8
:100988009BEC9AE899400AED9BFDEC9AFCE899F8F3
:0E0998000FD5F0DAE4CDFBE4CCFAE4C8F92286
:00000001FF
