:03000000022F9339
:0C2F9300787FE4F6D8FD758124022FDA67
:1024E0009001A012085B00000000E49001A4F0122B
:1024F0003DA3123DD0123E64123E74123ADA7D01C1
:102500007F07123A3C123CB1123E49123DBA123DCD
:102510005E123BC4123AFC123D4F123E5B1239E28E
:102520009001AA12085B000000007F02122823E439
:10253000FD7F0C1225FE7D017F011225FE7D017FAE
:102540000B1225FE123D0312365F3018047F018006
:10255000027F00EF6044C2189001A0E0FCA3E0FD00
:10256000A3E0FEA3E02401FFE43EFEE43DFDE43CE5
:10257000FC9001A012084F1209A612349E300414D8
:10258000900189E0FCE41203779001AA12084F7FC2
:10259000021228233016031236AE3012047F018057
:1025A000027F00EF6008C21212202A12228D30131F
:1025B000047F0180027F00EF6005C213122AD7302A
:1025C00000047F0180027F00EF6008C200121AB28F
:1025D0001212BB3009047F0180027F00EF600EC23F
:1025E0000930040312176E123CD312336F9002E1CC
:0E25F000E06401600302254A121EEB02254A38
:1015370041002301C112C113C100C109C1184401EF
:101547009600000000C10D44019C0000000041010D
:101557007F0041002800C10541019B0041001200A6
:10156700C117C114C111C115C10C42001B000044B1
:1015770000130000000042001D000042000F0000A1
:10158700605000290000000000000000000000007B
:101597000000000000000000000000000000000044
:1015A7000000000000000000000000000000000034
:1015B7000000000000000000000000000000000024
:1015C7000000000000000000000000000000000014
:1015D7000000000041000D0041000E004100110015
:1015E70041019A004100040041019400C10BC10A66
:1015F700C102C107C101420180000AC10FC10E41EA
:10160700018FFFC106C1084401900000000044009B
:101617000900000000440017000000004401820098
:101627000000004400000000000044002400000007
:1016370000C1104400050000000044001F00000026
:101647000042017D000041019500C104C103C1169C
:103C7C00E4FDFCC3ED9FEC9E50070DBD00010C80D4
:013C8C00F245
:013C8D002214
:1032930090028AA3E0FAA3E0F5828A837F011208F1
:1032A300D6900296A3E0FAA3E0F91208D290029016
:1032B300A3E0FAA3E0F91208D290029CA3E0FAA3D8
:1032C300E0F91208D2900290A3E0FAA3E0F9120801
:1032D300D2900299A3E0FAA3E0F91208D2900290E7
:1032E300A3E0FAA3E0F91208D290029FA3E0FAA3A5
:1032F300E0F91208D2900290A3E0FAA3E0F90208E1
:01330300D2F7
:1035AD0090028AA3E0FAA3E0F5828A837F011208D4
:1035BD00D6900299A3E0FAA3E0F91208D2900290F6
:1035CD00A3E0FAA3E0F91208D290029CA3E0FAA3BB
:1035DD00E0F91208D2900290A3E0FAA3E0F91208E4
:1035ED00D2900296A3E0FAA3E0F91208D2900290CD
:0935FD00A3E0FAA3E0F90208D2F0
:1030A100E49001B7F0900296A3E0FAA3E0F91208C8
:1030B100D290028AA3E0FAA3E0F5828A83E4FF12A8
:1030C10008D6900290A3E0FAA3E0F91208D2900288
:1030D1009CA3E0FAA3E0F91208D2900290A3E0FACF
:1030E100A3E0F91208D29002A2A3E0FAA3E0F91238
:1030F10008D2EF60089001B77401F08005E49001F7
:10310100B7F090029FA3E0FAA3E0F91208D290026F
:0F31110090A3E0FAA3E0F91208D29001B7E0FF13
:01312000228C
:1033DA0090028AA3E0FAA3E0F5828A837F011208A9
:1033EA00D6900299A3E0FAA3E0F91208D2900290CB
:1033FA00A3E0FAA3E0F91208D290029CA3E0FAA390
:10340A00E0F91208D2900290A3E0FAA3E0F91208B8
:10341A00D290029FA3E0FAA3E0F91208D290029098
:10342A00A3E0FAA3E0F91208D2900296A3E0FAA365
:05343A00E0F90208D2D8
:1036060090028AA3E0FAA3E0F5828A837F0112087A
:10361600D6900296A3E0FAA3E0F91208D29002909F
:10362600A3E0FAA3E0F91208D290029CA3E0FAA361
:10363600E0F91208D2900290A3E0FAA3E0F912088A
:10364600D290029FA3E0FAA3E0F91208D29002906A
:09365600A3E0FAA3E0F90208D296
:05319F009001B7EFF004
:1031A40090028AA3E0FAA3E0F5828A837F011208E1
:1031B400D69001B7E0A3F0E4A3F09001B8E0548006
:1031C40070059002998003900296A3E0FAA3E0F9B7
:1031D4001208D290029CA3E0FAA3E0F91208D2905C
:1031E4000290A3E0FAA3E0F91208D290029FA3E0B0
:1031F400FAA3E0F91208D2900290A3E0FAA3E0F94E
:103204001208D29001B8E025E0F0A3E004F0E0C396
:04321400940840A634
:013218002293
:10321900E49001B8F090028AA3E0FAA3E0F5828A6B
:1032290083E4FF1208D6E49001B7F09001B8E025D5
:10323900E0F090029CA3E0FAA3E0F91208D2900210
:1032490090A3E0FAA3E0F91208D29002A2A3E0FA4F
:10325900A3E0F91208D2EF60079001B8E04401F049
:1032690090029FA3E0FAA3E0F91208D2900290A37A
:10327900E0FAA3E0F91208D29001B7E004F0E0C344
:09328900940840A79001B8E0FF91
:013292002219
:0E2F05009001B1EFF0A3EBF0A3EAF0A3E9F026
:102F13001232939001B1E025E04401FF12319F1278
:102F230030A1EF70639001B5E07002A3E0605290AE
:102F33000289E0FB70057F64FE8008EBB401077F24
:102F43000A7E00123C7C1232199001B2E0FBA3E02E
:102F5300FAA3E0F9EF12071A9001B3E475F0011236
:102F630007B59001B6E024FFF09001B5E034FFF01F
:102F7300E07002A3E0700512360680051233DA8092
:0F2F8300A41235ADE4FEFF221235AD7E007F01B2
:012F9200221C
:0E2E71009001B1EFF0A3EBF0A3EAF0A3E9F0BB
:102E7F001235AD1232939001B1E025E0FF12319F70
:102E8F001230A1EF70689001B5E07002A3E06050BE
:102E9F00900289E0FB70057F64FE8008EBB40107A8
:102EAF007F0A7E00123C7C9001B2E0FBA3E0FAA304
:102EBF00E0F91206D4FF12319F1230A1EF702F905C
:102ECF0001B6E024FFF09001B5E034FFF0E07002AE
:102EDF00A3E0600C9001B3E475F0011207B580A672
:102EEF007F3C7E00123C7C1235ADE4FEFF22123592
:052EFF00AD7E007F0123
:012F040022AA
:02165700C126AA
:103BC40075BA0375AAB843918043878043A890755A
:053BD4009850C2992287
:030023000238514F
:10385100C0E0C083C082C0D0309820C29890000DD3
:10386100E0C394505019E02429F582E43400F58333
:10387100E599F090000DE004F08004C226C299D0D1
:08388100D0D082D083D0E032E8
:08000300D2268F992026FD2270
:10271A0067657420646174613A00257820000D0AA7
:10272A000067657420757365722074696D6520652C
:10273A0072726F723A25640D0A00757365725F745E
:10274A00696D65723A25640D0A00000000000000F8
:10275A00000000000000000000000000000000006F
:10276A00000000000000000000000000000000005F
:10277A00000000000000000000000000000000004F
:10278A00000000000000000000000000000000003F
:10279A00000000000000000000001B2A01410400A4
:1027AA00000000000000000000000000000000001F
:1027BA00000000000000092A004400000100002374
:1027CA00112A0145AF0000000000000000000000CF
:1027DA0000000000000000000000000000000000EF
:1027EA0000000000000000000000000000000000DF
:1027FA00072A0149030000230A2A014905000000AB
:10280A000000230B2A0149080100000000002309E7
:09281A002A014908030000002313
:10165900605002340000000000000000000000009B
:101669000000000000000000000000000000000071
:101679000000000000000000000000000000000061
:101689000000000000000000000000000000000051
:101699000000000000000000000000000000000041
:0816A900000000004102840072
:0E381300900212EBF0A3EAF0A3E9F0A3EDF0AF
:10382100E4A3F0F0900215E0FFA3E0FEC39F501F58
:10383100900212E0FBA3E0FAA3E0F98E8275830007
:0F3841001206EDFF120003900216E004F080D58E
:013850002255
:0E2C64009001D2EBF0A3EAF0A3E9F0A3EDF0AB
:102C7200E4A3F0A3F078D87C017D017BFF7A277969
:102C820054FE7F281206AE9001D5E0FF90000DE0C1
:102C9200D39F5006E0C3945040187B017A007929F3
:102CA2009002087450F0E4FD1236F9E490000DF041
:102CB200FF2290000DE06012E06012E02428F5820D
:102CC200E43400F583E0642360037F002290000D6A
:102CD200E0FF9001D6E0FEC39F502874292EF582B2
:102CE200E43400F583E0FF9001D2E0FBA3E0FAA315
:102CF200E0F98E82758300EF12072C9001D6E00472
:102D0200F080CAE490000DF07B017A0079299002EC
:0D2D120008EEF0E4FD1236F99001D6E0FF66
:012D1F002291
:1012BB00E49001A6F0A3F0A3F078A97C017D017B5B
:1012CB00FF7A27797CFE7F281206AEE49001D1F0DD
:1012DB00900284E0FF2434F9E43402FA7B01C374F6
:1012EB00509FFD122C64EF7003021536900284E0C0
:1012FB002FF0E09001A8F07B017A0179A990020808
:10130B007428F0E4FD1236F990020774FFF0A37411
:10131B0027F0A3741AF07B017A0179A9120E9D7B39
:10132B00017A0179A9123C2DAD077B017A0179A9CC
:10133B00123121E49001A5F0900284E0FF9001A509
:10134B00E0C39F505D7B017A0179A9900208742854
:10135B00F0E4FD1236F99001A5E02434F582E43473
:10136B0002F583E0FF9001D1F090020774FFF0A328
:10137B007427F0A37424F0A3E4F0A3EFF07B017ABD
:10138B000179A9120E9D7B017A0179A9123C2DAD31
:10139B00077B017A0179A91231219001A5E004F0B4
:1013AB0080967B017A0179A99002087428F0E4FDFC
:1013BB001236F990020774FFF0A37427F0A3742878
:1013CB00F07B017A0179A9120E9D7B017A0179A933
:1013DB00123C2DAD077B017A0179A9123121E490E2
:1013EB0001A5F0900284E0FF9001A5E0FEC39F40B1
:1013FB000302153674342EF582E43402F583E0646F
:10140B002A600302150CEE700302150C2433F582CF
:10141B00E43402F583E0FD9001A7F0EE2DFDE433FB
:10142B00FCD3ED9F7480F86C98400302150CE0FF21
:10143B009001A5E02F2433F582E43402F583E064B8
:10144B0023600302150C74332EF9E43402FA7B018A
:10145B0012301F9001A7E0FF9001A5E02FF0900242
:10146B0084E0FF9001A5E0FEC39F500302152DEE13
:10147B00B507177B017A027934900208EFF0E4FD8F
:10148B001236F9E4900284F08077E49001A6F09094
:10149B0001A5E0FF900284E0FDC39FFFE49400CF21
:1014AB002401CF3400FE9001A6E0C39FEE6480F8C8
:1014BB00748098502FE0FF9001A5E0FE2F2433F5A8
:1014CB0082E43402F583E0FC74342FF582E43402B9
:1014DB00F583ECF0C3ED9E04900284F09001A6E03E
:1014EB0004F080AB900284E0FF2434F9E43402FA78
:1014FB007B019001A8E0C39F900208F0E4FD123637
:10150B00F99001A5E0C3945040187B017A0279341D
:10151B00900284E0900208F0E4FD1236F9E49002A8
:0B152B0084F09001A5E004F00213EE34
:011536002292
:0B301F009001D2EBF0A3EAF0A3E9F06F
:10302A001206D4FF9000011206ED642A706890011E
:10303A00D2E0FBA3E0FAA3E0F98F827583001206BF
:10304A00ED642370519000031206EDB4410302218E
:10305A00619001D2E0FBA3E0FAA3E0F99000031229
:10306A0006EDB44403023A8E9001D2E0FBA3E0FAE3
:10307A00A3E0F99000031206EDB4450302191D906E
:10308A0001D2E0FBA3E0FAA3E0F99000031206EDF7
:06309A00B44903122A0DE7
:0130A000220D
:1021610078D57C017D017BFF7A2779A47E007F1CD5
:102171001206AEE49001F2F0FF900023E09001D747
:10218100F0E49001F1F09001F1E0FEC3940440030A
:10219100022277EE701690017DE0FCA3E0FDE412CF
:1021A100037290028512084F7F5080599001F1E02F
:1021B100FBB40118900182E0FCA3E0FDA3E0FEA3C3
:1021C100E0FF90028512084F7F5A8039EBB4021864
:1021D100900000E0FCA3E0FDA3E0FEA3E0FF90027D
:1021E1008512084F7F4F801D9001F1E0B4031690D6
:1021F1000024E0FCA3E0FDA3E0FEA3E0FF90028544
:1022010012084F7F4A9001F1E0FE75F005A424DA2F
:10221100F582E43401F583EFF0900285E0FDEE757F
:10222100F005A424DBF582E43401F583EDF090029E
:1022310086E0FDEE75F005A424DCF582E43401F5B9
:1022410083EDF0900287E0FDEE75F005A424DDF545
:1022510082E43401F583EDF0900288E0FDEE75F043
:1022610005A424DEF582E43401F583EDF09001F15B
:10227100E004F0022187E49001EEF0A3F0A37423BF
:0C228100F07B017A0179D57D1C02381336
:103A8E0078D57C017D017BFF7A2779C07E007F0A85
:103A9E001206AE900023E09001DBF07B017A0179F3
:063AAE00D57D0A02381369
:0B191D009001D5EBF0A3EAF0A3E9F085
:10192800E4A3F078D97C017D017BFF7A2779CAFE90
:101938007F121206AE9001D5E0FBA3E0FAA3E0F90E
:101948009000041206ED9001D8F0D3940A506FE08D
:10195800B40B005067901964F8282873021985029F
:10196800198D02198D02198D02198D0219AA0219F1
:10197800AF0219B40219B90219C40219BE30177B93
:101988001237D1807620170512343F806E9001D827
:10199800E0FF123D6C9001D8E004FF7D011225FEA6
:1019A8008059123CF38054123B7B804F123DF180EA
:1019B8004A123DE68045200842123BAE803D900128
:1019C800D8E0FFC394104046EFD394135040EF245F
:1019D800EF601214601714601C2403701E30171B6C
:1019E8001237D1801620171312343F800E30140B93
:1019F800123E408006201403123E379001D5E0FBCA
:101A0800A3E0FAA3E0F91206D404FD021AAE90018D
:101A1800D8E064AF6003021AB1900023E09001DBC4
:101A2800F0A217E4339001DEF0A214E433A3F0909F
:101A38000012E09001E0F0A207E433A3F0A206E46C
:101A480033A3F09002E1E09001E3F09002E2E0FAC3
:101A5800A3E0FB7C007D3CFFAE021207609001E42E
:101A6800EFF07C007D3CAF03AE02120760A3EDF0FF
:101A78009002E4E0FAA3E0FB7C007D3CFFAE02129A
:101A880007609001E6EFF07C007D3CAF03AE0212E8
:101A98000760A3EDF0E4A3F0A3F0A37423F07B01A7
:091AA8007A0179D97D121238137C
:011AB1002212
:0B2A0D009001D5EBF0A3EAF0A3E9F084
:102A1800E4A3F0A312085B000000009001DD120897
:102A28005B000000009001D5E0FBA3E0FAA3E0F909
:102A38009000041206EDFF64037003022AD6EFB477
:102A48000503021DA69001D5E0FBA3E0FAA3E0F977
:102A58009000041206EDB40703023B1D9001D5E077
:102A6800FBA3E0FAA3E0F99000041206ED640870F5
:102A78005D9000051206EDB40106201651023CA037
:102A88009001D5E0FBA3E0FAA3E0F9900005120657
:102A9800EDB40206300437023D7A9001D5E0FBA37D
:102AA800E0FAA3E0F99000051206EDB4030620044D
:102AB8001D023C699001D5E0FBA3E0FAA3E0F99080
:0E2AC80000051206EDB40406301603123E6C33
:012AD60022DD
:0B1DA6009001E1EBF0A3EAF0A3E9F0EC
:101DB100E4A3F0A3F078E67C017D017BFF7A27792B
:101DC100DCFE7F1E1206AE9001E1E0FBA3E0FAA368
:101DD100E04A4B7003021EEA9001E1E0FBA3E0FA46
:101DE100A3E0F99000051206ED7003023984900119
:101DF100E1E0FBA3E0FAA3E0F99000051206ED642F
:101E0100016003021EEA9000061206EDFF7E007CCF
:101E1100007D3C12074E9000071206ED2FFFEC3EAD
:101E2100FE9002E2F0A3EFF09001E4EEF0A3EFF0F8
:101E310064784E60309001E4E07004A3E064F060E7
:101E4100247B017A0179E6900208741EF0E4FD1208
:101E510036F990020774FFF0A37427F0A3742BF0F6
:101E61009001E4805B9001E4E0FEA3E0FF64784E22
:101E7100700790019504F0800CEF64F04E700690AD
:101E810001957402F09001E1E0FBA3E0FAA3E0F90F
:101E91001234F9900195E0FF123553123B1D7B017D
:101EA1007A0179E6900208741EF0E4FD1236F99089
:101EB100020774FFF0A37427F0A37444F09002E2C8
:101EC100E0FFA3E090020ACFF0A3EFF07B017A01DB
:101ED10079E6120E9D7B017A0179E6123C2DAD0760
:091EE1007B017A0179E61231213E
:011EEA0022D5
:103AB40078A57C017D017BFF7A2779FA7E007F0857
:103AC4001206AE900023E09001A7F07B017A017901
:063AD400A57D0802381375
:0B34F900900204EBF0A3EAF0A3E9F05E
:1035040078077C027D017BFF7A2879027E007F0B9D
:103514001206AE900023E0900209F0900204E0FB52
:10352400A3E0FAA3E0F99000051206ED90020CF076
:103534009000061206ED90020DF09000071206EDC1
:0F35440090020EF07B017A0279077D0B0238139B
:1037440078E17C017D017BFF7A28790D7E007F0C76
:103754001206AE900023E09001E3F0900187E09020
:1037640001E7F0900009E0FCA3E0FDA3E0FEA3E084
:10377400FF1203ABAC06EC9001E8F0A3EFF07B0181
:093784007A0179E17D0C02381391
:1039B40078E17C017D017BFF7A2879197E007F0AFA
:1039C4001206AE900023E09001E3F090018AE090AB
:0E39D40001E7F07B017A0179E17D0A023813E8
:103AFC0053D4BF53D5BF53D47F53D57FD296D297CF
:103B0C007B017A007979900208743CF0E4FD02366E
:013B1C00F9AF
:0E312100900204EBF0A3EAF0A3E9F0A3EDF0B6
:10312F00E4A3F090019AE02DFFE433FED3EF94C8AF
:10313F00EE648094805058E4900208F0900207E00B
:10314F00FFA3E0C39F5033900204E0FBA3E0FAA378
:10315F00E0F9900208E0FEF5827583001206EDFD9E
:10316F0090019AE0FCEE2C24B5F582E43400F5834F
:10317F00EDF0900208E004F080C290019AE02FF089
:0F318F00200B0C900004740AF09001947403F06C
:01319E00220E
:1016B1004102F3004102F5004102F4004102F6004B
:1016C1004102EF004102F0004102F1004102F2004B
:0D004600D2A9438920758CC0D2AFD28C2284
:0E3D5E001200469002F47403F09002F6F02278
:03000B000223B815
:0F23B800C0E0C083C082C0D075D000C006C0078F
:1023C70090000EE0C3943C50799002EFE0FF605E0E
:1023D7009002F2E014F0706AEFB409249002EFE47F
:1023E700F0A3E0FF90000EE0FE04F074792EF58272
:1023F700E43400F583EFF09002F0E4F0C20A804283
:102407009002F4E09002F2F09002F0E03097054479
:1024170080F08003547FF09002EFE004F0E064095D
:1024270070030224D39002F0E0C313F080142097C6
:10243700119002EF7401F09002F4E0049002F2F0C0
:10244700D20A900004E070030224D3900194E014B0
:10245700F070799002F6E0900194F0900004E0FFAC
:1024670014F0EF24F6603A24097055D29690019A39
:10247700E0FF900011E06F601BE0FF04F074B52FE0
:10248700F582E43400F583E09002F1F090000474E3
:102497000AF08038900011E4F090019AF0C20B80A6
:1024A7002BD20BC296900011E07021E0FF04F0746C
:1024B700B52FF582E43400F583E09002F1F0800C4B
:0C24C7009002F1E0FF139296EFC313F0B7
:0D24D300D007D006D0D0D082D083D0E03228
:05000E000000000000ED
:1016D1004B02BA3F065B4F666D7D077F6F0041028B
:0616E100B8004102B9004F
:0B3DAF00EF1FAC0670011E4C70F622E6
:0D3D960043D43853D5C7D293D294D295228E
:0C3DA300123D96123DFC123B95023E10B2
:0E388900123E067F027E00123DAFC293AF01D9
:10389700E4FDAB07C294EB30E004D2958002C295F9
:1038A7007F017E00123DAFD2947F017E00123DAFB3
:0938B700EBC313FB0DEDB408DBBB
:0138C00022E5
:0A3DFC00C2937F02123897D293227F
:0A3E0600C2937F40123897D2932236
:102B9F009001B6EFF09001B8EBF0A3EAF0A3E9F0E3
:052BAF009001B7EDF0FC
:102BB400E49001BCF0FAEDC394074003022C639047
:102BC40001B7E0FF7003022C63C374079FFFE49412
:102BD40000FEEF25E0FFEE33FE9001BBE0D39FEE55
:102BE4006480F874809850779001B7E025E024BEA3
:102BF400F9123889E49001BCF09001BBE0FFA3E036
:102C0400FEC39F50589001B6E0B40126EEB40422EE
:102C14009001B8E0FBA3E0FAA3E0F98E827583008B
:102C24001206ED24BAF582E43402F583E04480FA16
:102C3400801E9001B8E0FBA3E0FAA3E0F98E827550
:102C440083001206ED24BAF582E43402F583E0FA37
:0F2C5400AF021238979001BCE004F0809CD2933D
:012C6300224E
:103B9500E4FA123E06C2937FC0123897E4FF12384A
:083BA500970AEAB40CF6D29372
:013BAD0022F5
:0A3E1000C2937F8B123897D29322E1
:052823009001A9EFF097
:10282800E49001AEF078AF7C017D017BFF7A0079FE
:102838000EFE7F051206AEE49001B4F0A3F09001FD
:10284800A9E0B40134E4FFFE7D207C41A3E0F8A3B5
:10285800E0F9A3E0FAA3E0FB1202F440028039E4B5
:10286800FFFE7DC87C429001AAE0F8A3E0F9A3E04E
:10287800FAA3E0FB12014E80399001A9E0B4023DB1
:10288800E4FFFE7D7A7C44A3E0F8A3E0F9A3E0FA34
:10289800A3E0FB1202F4400C9001B47403F0A3749B
:1028A800E7F080199001AAE0FCA3E0FDA3E0FEA3F5
:1028B800E0FF1203AB9001B4EEF0A3EFF09001B487
:1028C800E0FAA3E0FB7C007D64FFAE021207609093
:1028D80001B3EFF07C007D64AF03AE021207607EA7
:1028E800007F0ACFCDCFCECCCE1207609001B1EFDA
:1028F800F09001B4E0FEA3E0FF7C007D0A120760BF
:102908009001AFEDF09001A9E0FF7B017A0179AF6A
:0B2918009001BB7405F07D01022B9FB5
:0225FE00AA072A
:10260000E4F9900205F0EAC3940D4003022719EDA6
:10261000C394024003022719EAD394065048ED649C
:10262000017026EAC39402400DEAD3940550079046
:1026300002B8E054C3F09002B8E0FF7401A80208A9
:102640008002C333D8FC4F80129002B8E0FF7401BF
:10265000A802088002C333D8FCF45F9002B8F07976
:10266000C89002B88075EAC3940C5076ED6401708E
:102670004B9002B9E0FFEA24F9FE7401A806088035
:1026800002C333D8FC4F9002B9F0EAB40813E0FF5C
:10269000EA24FAFE7401A806088002C333D8FC803D
:1026A0002FEA640970309002B9E0FFEA24F8FE7462
:1026B00001A806088002C333D8FC80149002B9E058
:1026C000FFEA24F9FE7401A806088002C333D8FC8F
:1026D000F45F9002B9F079CA9002B9E0900205F077
:1026E000801AEAB40C16ED9002B8B40107747FF0BA
:1026F000A3F080067402F0E4A3F079C8123889EAE6
:10270000640C600590020580099002B8E0FF123861
:0927100097A3E0FF123897D29361
:01271900229D
:050016000000000000E5
:0516E7004202FF0000BB
:0E3D1300E4FFFE0FBF00010EEF64024E70F5DC
:013D2100227F
:0B3DBA0053DA9F53DB9FD2B5D2B62234
:103BD900EF700753DABF43DB4022EFB4010653DA33
:053BE900BF53DBBF2209
:103BEE00EF700753DADF43DB2022EFB4010653DA1E
:053BFE00DF53DBDF22B4
:03001E00D2B62235
:03004000C2B62223
:033E8F00D2B52287
:033E9200C2B52294
:0A3E1A0030B6047F0180027F002211
:102923009001A97423F0E4A3F0A3F078AC7C017DBB
:10293300017BFF7A007916FE7F051206AE900289AD
:102943007401F0A374FFF0A3743BF0A374D9F0A354
:1029530074FFF0A3743BF0A374EEF0A374FFF0A331
:10296300743DF0A37413F090029674FFF0A3740007
:10297300F0A3741EF0A374FFF0A37400F0A37440DB
:10298300F0A374FFF0A3743EF0A3748FF0A374FF5D
:10299300F0A3743EF0A37492F0A374FFF0A3743E0B
:1029A300F0A3741AF07B017A0179A99001B5E4F0E0
:1029B300A304F07F4D122E71EF70137B017A01791E
:1029C300AC9001B5F0A37405F07F4D122F05900173
:1029D300ACE030E015A3E0FEA3E0FDEDFF9001AA1B
:1029E300EEF0A3EFF04E701180009002FFE0FFA322
:1029F300E09001AACFF0A3EFF09001AAE0FEA3E0DC
:092A0300FF9002FFEEF0A3EFF0DA
:012A0C0022A7
:103ADA00C0BE75BE0353F50FE4F5F975FBC075F268
:103AEA003F75F1FF75FA91F5D5F5D6F5D7F5C9D039
:023AFA00BE22EA
:103A3C00C0BE75BE03ED700F04A807088002C33327
:103A4C00D8FCF452F58011EDB4010D7401A80708EF
:0B3A5C008002C333D8FC42F5D0BE222C
:10395400D3ED94FFEC943F5026C0BE75BE03EF2414
:10396400FB600A14601014600D24037010AF058FFF
:10397400D5ECF5D68007AF058FD7ECF5C9D0BE22BC
:03004300023DC5B6
:0B3DC500C0BE75BE0353BCFED0BE3272
:1016EC004802C923282AF82F4437784402C5080C2D
:0216FC000F13CA
:103C42009000127402F0E490001BF0A3F0FDFC7FE0
:043C520007023954D8
:063E8900E4900012F0229B
:0E3D6C00EFD394045007900012EFF0D215220E
:10228D00E49001A5F0A3F0A312085B00000000127A
:10229D003D319001A712084F900005E0FCA3E0FD31
:1022AD00A3E0FEA3E02402FFE43EFEE43DFDE43C9A
:1022BD00FC9001A7E0F8A3E0F9A3E0FAA3E0FBC3CB
:1022CD0012083E50030223B7900012E0FFC39401A1
:1022DD004018EF25E024C7F582E43402F583E0FFD2
:1022ED00A3E09001A5CFF0A3EFF030177030156D7E
:1022FD00900012E0FF900028E06F6006D211EFF021
:10230D00C2053011439001A5E0FEA3E0FF90001B34
:10231D00E0FCA3E0FDC39FEC9E500DE02464F09023
:10232D00001BE03400F0801BD3ED9FEC9E4010901D
:10233D00001CE0249CF090001BE034FFF08004C2F0
:10234D0011C21590001B803B900012E024C4F58251
:10235D00E43402F583E090019BF0D2052220174A68
:10236D00301547C205C390001CE0946490001BE03B
:10237D0094004019300C33A3E0249CF090001BE036
:10238D0034FFF0E0FCA3E0FD7F07023954300C1A56
:10239D00C215E490001BF0A3F0FDFC7F0712395429
:0A23AD00C20C900012E0900028F02E
:0123B7002203
:0F3CD300E49001A5F0A3F0A3F0A3F090017FF01F
:013CE20022BF
:1016FE004102F70A4102F8144102F9644202FA0368
:0A170E00E84202FC27104102FE0031
:093E2E00D2AB758902758D4722A3
:083E6400123E2ED2AFD28E22D5
:03001B00021C3B89
:101C3B00C0E0C0F0C083C082C0D075D000C000C06F
:0D1C4B0001C002C003C004C005C006C007F0
:101C58009002F7E014F07048D212740AF090019CD8
:101C6800E0FCA3E0FDA3E0FEA3E02401FFE43EFEC8
:101C7800E43DFDE43CFC90019C12084F74FFFFFE1C
:101C8800FDFC90019CE0F8A3E0F9A3E0FAA3E0FBD7
:101C9800C312083E700A90019C12085B0000000005
:101CA8009002F8E014F07005D2137414F09002F961
:101CB800E014F07005D2007464F09002FA74FFF535
:101CC800F01207B545F0700CD2099002FA7403F0CF
:101CD800A374E8F09002FC74FFF5F01207B545F024
:101CE8007041D2189002FC7427F0A37410F03007EA
:101CF80013900181E004F07006900180E004F03058
:101D08000F02D20E900196E0FCA3E0FDA3E0FEA333
:101D1800E02401FFE43EFEE43DFDE43CFC90019636
:101D280012084F9002D6E0B4010E9002D8E004F0F9
:101D380070069002D7E004F0D390001EE094009063
:101D4800001DE09400403C9002FEE014F0E0700BAF
:101D5800B28490000FA3E09002FEF090001EE024F1
:101D6800FFF090001DE034FFF0E0FEA3E0FF4E70AE
:101D78000A9002FEF0C285C2848008BE0705BFD063
:031D880002C2850F
:101D8B00D007D006D005D004D003D002D001D000AC
:0B1D9B00D0D0D082D083D0F0D0E03256
:0F3D220090019CE0FCA3E0FDA3E0FEA3E0FF22E4
:0F3D3100900196E0FCA3E0FDA3E0FEA3E0FF22DB
:073E7400D2AFD2AAD28A22CC
:03001300023C5656
:103C5600C0E0C083C08290017FE004F0D082D083B0
:033C6600D0E03279
:033EA1000000001E
:101718004102D1004102D2004102D3004102D5006A
:0E3D4000E4FFFE0FBF00010EEF640A4E70F5A7
:013D4E002252
:0B3DD00053DAF353DBF3D2B3D2B2227C
:103C0300EF700753DAFB43DB0422EFB4010653DA08
:053C1300FB53DBFB2266
:103C1800EF700753DAF743DB0822EFB4010653DAF3
:053C2800F753DBF72259
:033E9500D2B22284
:033E9800C2B22291
:033E9B00D2B3227D
:033E9E00C2B3228A
:0A3E240030B2047F0180027F00220B
:0B2DCB009001ABEBF0A3EAF0A3E9F0ED
:102DD600A37417F0E4900289F0A374FFF0A3743C87
:102DE600F0A37403F0A374FFF0A3743CF0A374186B
:102DF600F0A374FFF0A3743DF0A37440F090029624
:102E060074FFF0A3743EF0A37495F0A374FFF0A3CF
:102E1600743EF0A37498F0A374FFF0A3743EF0A37D
:102E2600749BF0A374FFF0A3743EF0A3749EF0A30A
:102E360074FFF0A3743EF0A37424F07B017A017949
:102E4600AE9001B5E4F0A304F07F30122E71EF705E
:102E5600199001ABE0FBA3E0FAA3E0F99001B5E419
:0A2E6600F0A37403F07F30122F0573
:012E7000223F
:101AB200E49001A5F09001A7F078A87C017D017B5C
:101AC200FF7A3E79A1FE7F031206AE3002037FFF4A
:101AD200227B017A0179A8122DCB9001AAE0FF9016
:101AE20001A6F09001A9E09001A7F0EF7003E06079
:101AF2000A9001A6E06019A3E06015E49002D4F018
:101B0200A3F09002D1F0A3F0A3F0123CE37F0022F5
:101B12009001A6E0FF601A9002D4E0FEEF6E601121
:101B22009002D67401F0E4A3F0A3F09002DAF0A3DD
:101B3200F09001A7E0FF60189002D5E0FEEF6E6022
:101B42000FA37401F0E4A3F0A3F09002DAF0A3F083
:101B5200C39002D8E094F49002D7E09401500302BB
:101B62001C259001A7E0FF6406601AEF640260156D
:101B7200EF64046010E49002D6F0A3F0A3F09002A8
:101B8200D1F0A38004E49002D7F0A3F09001A6E084
:101B9200601BB4020C9002DA7401F0A37404F080AA
:101BA20007E49002DAF0A3F0E49002D1F09001A7EA
:101BB200E0FF606FB4010C9002DA7401F0A37403C9
:101BC200F08060EFB402169002D2E004F0E0C39419
:101BD2001440509002DA7401F0A30480369001A7F9
:101BE200E0FFB404159002D3E004F0E0C394144083
:101BF200329002DA7401F0A38019EFB4061E90024B
:101C0200D1E004F0E0C3942840199002DA7401F0A4
:101C1200A37405F0E49002D6F0A38004E49002DA03
:101C2200F0A3F09001A6E09002D4F09001A7E0901A
:081C320002D5F09002DBE0FF97
:011C3A002287
:103CE300E49002D6F0A3F0A3F09002DAF0A3F0225E
:10172800C122C1234402A5000000004402A9000010
:1017380000004202AD0000C124C1254402AF0000F0
:0D17480000004102B3004402B40000001E86
:0100210022BC
:10365F00E49001A5F0209146123D889001A5E0C3AA
:10366F00940A503A3013047F0180027F00EF600507
:10367F00C213122AD73018047F0180027F00EF6037
:10368F00DAC2189001A5E004F0900013E0FCA3E06B
:0E369F00FDA3E0FEA3E0FFEC4D4E4F70BE22F7
:0136AD0022FA
:10343F00123D3190000512084F123B7B123DE612F0
:10344F0039E2123D31A804A905AA06AB0790000581
:10345F00E0FCA3E0FDA3E0FEA3E02401FFE43EFEB9
:10346F00E43DFDE43CFCC312083E40D63008063074
:10347F000806309103123BAE123C42D217D20CD247
:0F348F0015E4FD7F0B1225FE7D017F030225FE54
:1037D100123D3190001F12084F123A0FC217123ECC
:1037E10089123D88123CF3123DF1120021D215C21B
:1037F10008E4FD7F0C1225FE7D017F0B1225FEC220
:10380100019002E1E0B40103123984301403123E45
:02381100402253
:10202A009002DAE0B4010BA3E0B40506123AB41246
:10203A003CE31233049002DAE06401600302215A9D
:10204A00A3E01470030221211470030220FC14601F
:10205A002C24FE700302214004600302214A301638
:10206A000790018AE04401F020170612343F02214A
:10207A004A20170302214A1237D102214A201703A4
:10208A0002214A120026900012E0FFC39404500372
:10209A00E0800BEF6404600302214A90001204F00E
:1020AA00D215900012E004FF7D011225FE30163A87
:1020BA00900012E0FDB4010990018AE04402F08028
:1020CA0029EDB4020990018AE04404F0801C9000D2
:1020DA0012E0FDB4030990018AE04408F0800BED98
:1020EA00B4040790018AE04410F0301453123E40C1
:1020FA00804E30160790018AE04420F03017419054
:10210A000195E0C39402500AE004F0E0FF1235534F
:10211A00801F123984801A30160790018AE04440E1
:10212A00F030171CB214201405123E408003123EF0
:10213A0037123B3D800A30160790018AE04480F04E
:10214A009002DAE0B40109A3E064056003123CE3FB
:07215A00301403122D2022B6
:1009A6009001A512085B00000000123D319001A5E0
:1009B60012084FE47F02FEFDFC9001A5E0F8A3E0DB
:1009C600F9A3E0FAA3E0FBD312083E503A74FF7F86
:1009D600FDFEFDFC9002A5E0F8A3E0F9A3E0FAA372
:1009E600E0FBC312083E401F9001A5E0FCA3E0FD1A
:1009F600A3E0FEA3E02402FFE43EFEE43DFDE43C6A
:100A0600FC9002A512084F9002A5E0FCA3E0FDA30E
:100A1600E0FEA3E0FF9001A5E0F8A3E0F9A3E0FA69
:100A2600A3E0FBC312083E404A122923AC06AD07D9
:100A3600E412037290000912084F9001A5E0FCA38E
:100A4600E0FDA3E0FEA3E02402FFE43EFEE43DFD5C
:100A5600E43CFC9002A512084F20041790017DE0AB
:100A6600FCA3E0FDE41203729001AA12084F7F0274
:100A7600122823201703020B6A202302D2233022D6
:100A860002C222900005E0FCA3E0FDA3E0FEA3E085
:100A9600243CFFE43EFEE43DFDE43CFC9001A5E081
:100AA600F8A3E0F9A3E0FAA3E0FBD312083E5057FF
:100AB600E47FB4FEFDFC9001A5E0F8A3A3A3E01239
:100AC600083E5040900009E0FCA3E0FDA3E0FEA331
:100AD600E0FF900017E0F8A3E0F9A3E0FAA3E0FB3B
:100AE6001202F4501F900009E0FCA3E0FDA3E0FE13
:100AF600A3E0FF1203ABAD07AC0690017DECF0A3BB
:100B0600EDF08056020BDC900009E0FCA3E0FDA3AB
:100B1600E0FEA3E0FF1203ABAD07AC06E4120372DE
:100B2600900017E0F8A3E0F9A3E0FAA3E0FB1200B7
:100B36005DE4FBFAF978401202571203AB90017D8F
:100B4600EEF0A3EFF0900009E0FCA3E0FDA3E0FEC9
:100B5600A3E0FF1203ABAD07AC06E41203729000EC
:100B660017020E1F301703020E22302303020C1841
:100B7600E47F847E03FDFC9001A5E0F8A3E0F9A3E1
:100B8600E0FAA3E0FBC312083E505C900009E0FCCB
:100B9600A3E0FDA3E0FEA3E0FF1203ABAD07AC06A6
:100BA600E4120372900017E0F8A3E0F9A3E0FAA3B9
:100BB600E0FB1202F4501F900009E0FCA3E0FDA345
:100BC600E0FEA3E0FF1203ABAD07AC06E41203722E
:100BD60090001712084F900017E0FCA3E0FDA3E079
:100BE600FEA3E0FF020CCFD223D222E49002ADF0A6
:100BF600A3F09001A5E0FCA3E0FDA3E0FEA3E024A2
:100C060084FFEE3403FEE43DFDE43CFC9002A902C1
:100C16000E1F302203020D0690001FE0FCA3E0FD2C
:100C2600A3E0FEA3E02458FFEE3402FEE43DFDE41B
:100C36003CFC9001A5E0F8A3E0F9A3E0FAA3E0FBF1
:100C4600C312083E4003020CDD900017E0FCA3E04F
:100C5600FDA3E0FEA3E0FF900009E0F8A3E0F9A3FE
:100C6600E0FAA3E0FB1202F4502390017DE0FCA31E
:100C7600E0FDE4120372900017E0F8A3E0F9A3E0A8
:100C8600FAA3E0FB12005DE4FBFAF9803790000955
:100C9600E0FCA3E0FDA3E0FEA3E0FF1203AB90019E
:100CA6007EE02FFD90017DE03EFCE4120372900091
:100CB60017E0F8A3E0F9A3E0FAA3E0FB12005DE475
:100CC600FBFA794078401202571203AB90017DEE91
:100CD600F0A3EFF0020E22D222E49002ADF0A3F0D0
:100CE6009001A5E0FCA3E0FDA3E0FEA3E02484FFC1
:100CF600EE3403FEE43DFDE43CFC9002A9020E1F27
:100D0600900009E0FCA3E0FDA3E0FEA3E0FF1203D0
:100D1600ABD39002AEE09F9002ADE09E5005EEF0A0
:100D2600A3EFF0900009E0FCA3E0FDA3E0FEA3E042
:100D3600FF1203ABAD07AC06E4120372900017E096
:100D4600F8A3E0F9A3E0FAA3E0FB1202F450469000
:100D56000009E0FCA3E0FDA3E0FEA3E0FF1203AB65
:100D6600AD07AC06E412037290001712084F90000C
:100D760009E0FCA3E0FDA3E0FEA3E0FF1203AB90B5
:100D8600017EE02FFF90017DE03EC313FEEF13FFCF
:100D9600EEF0A3EFF09002A9E0FCA3E0FDA3E0FED5
:100DA600A3E0FF9001A5E0F8A3E0F9A3E0FAA3E031
:100DB600FBC312083E40659002ADE0FCA3E0FDE4F3
:100DC600120372900017E0F8A3E0F9A3E0FAA3E09B
:100DD600FB12005DE4FBFAF978401202571203ABEE
:100DE60090017DEEF0A3EFF0FDAC06E412037290E5
:100DF600001712084FE49002ADF0A3F09002A9E0AC
:100E0600FCA3E0FDA3E0FEA3E02484FFEE3403FE92
:100E1600E43DFDE43CFC9002A912084FC390017E1C
:100E2600E0940290017DE094005006E4F0A3740281
:010E3600F0CB
:010E37002298
:102D20009001A5740AF0A312085B000000002017B0
:102D300003022DCA123D319001A612084F302438EB
:102D40009001A5E0FFE4FCFDFE9002AFE0F8A3E0F7
:102D5000F9A3E0FAA3E02FFFEE3AFEED39FDEC38DF
:102D6000FC9001A6E0F8A3E0F9A3E0FAA3E0FBD30E
:102D700012083E500122C22490017DE0FEA3E0FF34
:102D8000C3944BEE9400500C900012E06401602A52
:102D90007401801FC3EF9496EE9400500C900012C3
:102DA000E0640260157402800A900012E06404601E
:102DB000097404F0D215D224D22530250D900012CA
:0A2DC000E004FF7D011225FEC2258C
:012DCA0022E6
:103304009001A512085B0000000030175D123D31EA
:103314009001A512084F900005E0FCA3E0FDA3E096
:10332400FEA3E0240AFFE43EFEE43DFDE43CFC9001
:1033340001A5E0F8A3E0F9A3E0FAA3E0FBC31208B7
:103344003E40273009243091089002B3E004F08015
:1033540005E49002B3F09002B3E0C39414400B3040
:0A33640017081237D1E49002B3F00D
:01336E00223C
:093E3700D2147D017F0A0225FE70
:093E4000C214E4FD7F0A0225FE14
:10176E009001A512085B0000000090017FE090013F
:10177E0088F0E490017FF0900186E0701330170539
:10178E001237D1D204900186E004F0C2030219167A
:10179E00900186E0FFB4011F900013E0F8A3E0F97A
:1017AE00A3E0FAA3E0FBE8494A4B600302191620B6
:1017BE009137D203021916EFB4020512343F802975
:1017CE00900186E0FDB4032C900013E0F8A3E0F93D
:1017DE00A3E0FAA3E0FBE8494A4B60030219162086
:1017EE00910D900187E054FEF0900186021898D278
:1017FE0003021916ED64046003021916123D3190AE
:10180E0001A512084F900005E0FCA3E0FDA3E0FE49
:10181E00A3E0240AFFE43EFEE43DFDE43CFC90011F
:10182E00A5E0F8A3E0F9A3E0FAA3E0FBC312083E9B
:10183E00405D9002B4E0FCA3E0FDA3E0FEA3E0FF58
:10184E00900005E0F8A3E0F9A3E0FAA3E02FFFEA89
:10185E003EFEE93DFDE83CFC9001A5E0F8A3E0F971
:10186E00A3E0FAA3E0D312083E5024900188E0FFD3
:10187E00C3940B4009EFD3940D5003021916900137
:10188E0089E0C394FF4003021916E004F0807990BA
:10189E0002B4E0FCA3E0FDA3E0FEA3E0FF90000590
:1018AE00E0F8A3E0F9A3E0FAA3E02FFFEA3EFEE999
:1018BE003DFDE83CFC9001A5E0F8A3E0F9A3E0FAB9
:1018CE00A3E0FBD312083E403F200107900187E0C2
:1018DE0054FBF0900189E0C3941E5007900187E0FD
:1018EE0054FDF0900009E0FCA3E0FDA3E0FEA3E0B0
:1018FE00FF1203ABD3EF9400EE6480948040079008
:0E190E000187E054F7F0D203300303123D7A54
:01191C0022A8
:103CA000D204E4900186F0A374FFF0E4900189F05F
:013CB00022F1
:0E3D7A00C204C2031237443017031237D1229D
:103C6900D216E490018AF0123D3190018B12084F6F
:033C7900023B1DEE
:1036AE009001A512085B000000B4123D31C004C0A9
:1036BE0005C006AB079001A5E0FCA3E0FDA3E0FE6C
:1036CE00A3E0FF90018BE0F8A3E0F9A3E0FAA3E0FA
:1036DE002FFFEA3EFEE93DFDE83CFCD002D001D0D2
:0A36EE0000C312083E4003123E6CB8
:0136F80022AF
:083E6C00C2161239B4023B1D1D
:0F1755004102E6004802E701030206040C0809FE
:073E7B0053D4FD53D5FD22D5
:103CB10043D60F53D7F0C2A0C2A1C2A2C2A3023EF3
:013CC1007B87
:103BAE00D208123D3190019012084F7F247EFF7D86
:063BBE00FF7CFF0238C18C
:0E3D88007FDC7E007D007C001238C1C2082264
:1038C1009001EB12084FE47FEC7E0FFDFC9001EBC1
:1038D100E0F8A3E0F9A3E0FAA3E0FB1207CBE47B55
:1038E100687A01F9F812378D90001312084FD2024D
:0138F10022B4
:10349E009001A5E4F0A3743CF0A312085B000000B9
:1034AE0000201746300843123D319001A712084FF5
:1034BE009001A5E0FEA3E0FFE4FCFD900190E0F892
:1034CE00A3E0F9A3E0FAA3E02FFFEA3EFEED39FDFB
:1034DE00EC38FC9001A7E0F8A3E0F9A3E0FAA3E032
:0A34EE00FBC312083E4003123D88A4
:0134F80022B1
:102AD700900013E0FCA3E0FDA3E0FEA3E0FFEC4DB4
:102AE7004E4F7003022B91E4FFFEFDFC900013E0B4
:102AF700F8A3E0F9A3E0FAA3E0FBD31208289002B9
:102B0700E6E0402504F0E05407F0900013E0FCA352
:102B1700E0FDA3E0FEA3E0FFEF24FFFFEE34FFFE9E
:102B2700ED34FFFDEC34FF802414F0E05407F090FF
:102B37000013E0FCA3E0FDA3E0FEA3E0FFE4FAF945
:102B4700F8EF2401FFEA3EFEE93DFDE83CFC90007A
:102B57001312084F9002E6E024E7F582E43402F509
:102B670083E0FF30E004D2A08002C2A0EF30E1048E
:102B7700D2A18002C2A1EF30E204D2A28002C2A297
:102B8700EF30E303D2A322C2A32230020AC2A0C2BB
:072B9700A1C2A2C2A3C20209
:012B9E002214
:093E490053D2DF53D3DFC28522FE
:0838F2007FD27D507C0A7E00AC
:1038FA00AB05AA047C007D0A12074E90001DEEF06B
:10390A00A3EFF0AC02AD037E137F8812076090002C
:09391A000FEEF0A3EFF0D28522BC
:1039E2001238F290001DE07002A3E070F67D307C88
:1039F200097FD27E001238FA90001DE07002A3E027
:0D3A020070F67D307C087FCD7E000238FA22
:103A0F007D307C087FD27E001238FA90001DE07066
:103A1F0002A3E070F61238F290001DE07002A3E0EE
:0D3A2F0070F67D407C0C7FCD7E000238FAE1
:100026007FCD1238F490001DE07002A3E070F67DDB
:0A003600307C087FCD7E000238FA0E
:103B1D007D307C087FD27E001238FA90001DE07057
:103B2D0002A3E070F67D307C097FD27E000238FA68
:103B3D007D307C087FD27E001238FA90001DE07037
:103B4D0002A3E070F67D307C087FD27E000238FA49
:0E36F900900204EBF0A3EAF0A3E9F0A3EDF0D9
:10370700E4FFA3E0D394FF40020F22E4FEFF900200
:1037170008E0FDC3EF9DEE9400501F900207E0FD07
:10372700900204E0FBA3E0FAA3E0F98F828E83ED19
:0C37370012072C0FBF00010E80D47F0091
:013743002263
:02176400C1279B
:093E520053AC7F8FAC43AC882215
:0B3DDB008FABAF058FAFD2BAD2AF2282
:103CC200E4AFADEF75F004A4FFAEF0ADAEEF4DFF83
:013CD20022CF
:030053000239234C
:10392300C0E0C0F0C083C082C0D075D000C005C065
:1039330006C007123CC2900301EEF0A3EFF0D227BA
:10394300D007D006D005D0D0D082D083D0F0D0E03D
:013953003241
:033EA4000000001B
:0F3D4F0043D61053D7EFC2A47D1F7F01023DDB87
:103B7B00D2A4D20790018F74FFF0900180E4F0A3E0
:0A3B8B00740FF07D017F060225FE95
:103CF300C2A4C207E4FD7F061225FEC227C20F221B
:073E8200C227E4FF023E52DB
:103C8E00900301E0FEA3E0FFE4900301F0A3F0C275
:013C9E0027FE
:013C9F002202
:10336F0078A57C017D017BFF7A3E79A47E007F03E7
:10337F001206AE300754300F2B302728123C8EC365
:10338F00EF943CEE9402500D90018FE0C364809453
:10339F00804002D20190018FE004F0B40306C20F07
:1033AF00C20EE4F0300F08300E05123E82C20EC37B
:1033BF00900181E09414900180E094004006D20FB8
:0A33CF00E4F0A3F0300103123CF318
:0133D90022D1
:093E5B0043D62053D7DFC2A52293
:0B3DE600D2A5D2067D017F070225FE5A
:0B3DF100C2A5C206E4FD7F070225FE0C
:103B5D000000000000000000000000000000000058
:0E3B6D0000000000000000000000000000004A
:071766004402DC000000005A
:103D0300E49002E0F0A3F0A3F0A3F0A3F0A3F02269
:101EEB009001A512085B0000EA609001A912085B43
:101EFB000000000078AD7C017D017BFF7A3B795DB2
:101F0B007E007F1E1206AE123D229001A912084FD1
:101F1B00E4FFFEFD7CF09001A9E0F8A3E0F9A3E05B
:101F2B00FAA3E0FBD312083E5043E4FFFEFD7CF026
:101F3B009002DCE0F8A3E0F9A3E0FAA3E0FB1208BF
:101F4B003E402A9001A5E0FCA3E0FDA3E0FEA3E048
:101F5B00FFA3E0F8A3E0F9A3E0FAA3E02FFFEA3E2A
:101F6B00FEE93DFDE83CFC9002DC12084F9002E0DC
:101F7B00E0B4012F9001A5E0FCA3E0FDA3E0FEA3DC
:101F8B00E0FFA3E0F8A3E0F9A3E0FAA3E02FFFEA58
:101F9B003EFEE93DFDE83CFC9002DC12084FE4906C
:101FAB0002E0F09002DCE0FCA3E0FDA3E0FEA3E086
:101FBB00FF9001A9E0F8A3E0F9A3E0FAA3E0FBC3CB
:101FCB0012083E4059D39002E5E094009002E4E001
:101FDB009400400CA3E024FFF09002E4E034FFF007
:101FEB009002E4E07002A3E070063017031237D1C1
:101FFB009002DCE0FCA3E0FDA3E0FEA3E0FF900178
:10200B00A5E0F8A3E0F9A3E0FAA3E0FBEF2BFFEECA
:0E201B003AFEED39FDEC38FC9002DC12084F65
:012029002294
:10398400E49002E0F0A3F0A3F0A3F0A3F0A3F0907E
:103994000195E0B40106E4FD7F08800B900195E0F9
:1039A400B40207E4FD7F091225FEE4900195F0229C
:10355300900204EFF0D39402504FE0FFC394004075
:1035630048EF70030239849002E07401F0A3F090F5
:103573000204E0B4010F9002E2E4F0A37478F07D5A
:10358300017F088014900204E0B402109002E2E488
:10359300F0A374F0F07D017F091225FE9002E2E0B2
:0A35A300FFA3E0A3CFF0A3EFF02296
:10005600020417E86480F8E933E83360110460F0BD
:10006600ED33EC337009E8FCE9FDEAFEEBFF220410
:1000760060DED3EB9FEA9EE99DE8C2E78CF0C2F70B
:1000860095F0400CE8CCF8E9CDF9EACEFAEBCFFBD7
:100096001203E285D0F05804700320D5B3E804704B
:1000A600075002B2D502042192D5EC0460F7E4CCE5
:1000B600C0E0C398F8603B94186008400DD0E0FBA0
:1000C6000203F9E4FBFAC9FC8028E830E406E4C937
:1000D600FBE4CAFCE830E305E4C9CACBFCE85407F4
:1000E6006010F8C3E913F9EA13FAEB13FBEC13FCFF
:1000F600D8F130F52FC3E49CFCEF9BFFEE9AFEEDA2
:1001060099FDD0E0FBEF4E4D4C701222DB0302044A
:100116001EEC2CFCEF33FFEE33FEED33FDED30E746
:10012600EB0203F9EF2BFFEE3AFEED39FDD0E0FBD3
:1001360050130BBB0003020421ED13FDEE13FEEF7B
:0801460013FFEC13FC0203F9A6
:10014E00EC4D6011E8497017ED33EC3304600DE4AB
:10015E00FCFFFEFD22E933E8330470F802041712A7
:10016E0003E258046009E4CC2481500628500902A9
:10017E00042128400302041EC0E0EB4A7044B980FB
:10018E0006D0E0FB02040DEF4E701CBD8008EBFFA5
:10019E00EAFEE9FD80EBE98DF0A4FEE5F002023700
:1001AE00E9CDF9EAFEEBFFEF89F0A4FCE5F0CE898C
:1001BE00F0A42EFFE435F0CD89F0A42DFEE435F049
:1001CE008067EF4E7005BD80D780C3EF8BF0A4AC77
:1001DE00F0EE8BF0A42CFCE435F0F8EF8AF0A42CB2
:1001EE00E5F038FCE433CB8DF0A42CFCE5F03BF8C5
:1001FE00EE8AF0A42CFCE5F038F8E433CF89F0A4B5
:10020E002CFCE5F038CF3400CE89F0A42FFFE5F0BA
:10021E003EFEE433C98DF0A42EFEE5F039CD8AF012
:10022E00A42FFFE5F03EFEE43DFD33D0E0FB50078A
:10023E000BBB000F020421EC2CFCEF33FFEE33FE60
:06024E00ED33FD0203F98F
:10025400020421EC5D046005E859047003020417EC
:100264001203E2580460F6EC4860F2EC7004FDFE00
:10027400FF22C860DB2481C85009C398600250067D
:1002840002041E9850CAF582E9294B4A7005AB82D4
:1002940002040D75F0007C1A7880C3EF9BEE9AED92
:1002A40099400DC3EF9BFFEE9AFEED99FDE842F0F5
:1002B400DC23ACF0D0E0FFD0E0FED0E0FDAB822048
:1002C400E7101BEB60BAEC2CFCEF33FFEE33FEEDD2
:1002D40033FD0203F9E803F830E705C0F075F000D8
:1002E400EF2FFFEE33FEED33FD40B830E7C280AAB6
:1002F40074F8CC6480CCC86480C8F58204604FC3B1
:10030400EB9FF5F0EA9E42F0E99D42F0E89C45F04F
:10031400603C501DE5825FFFE582D313CB5BCBF4D9
:100324002B5582FB50280ABA002409B90020088002
:100334001DE5825BFBE582D313CF5FCFF4C3132F9C
:100344005582FF50090EBE00050DBD00010CC3EB24
:100354009FF5F0EA9E42F0E99D42F0E89C45F0608A
:0903640007CC4820E701B3EC22AC
:10036D0075F020800E75F010800575F0087D007E0B
:10037D00007F003392D530D50312081AEC334010AC
:10038D00EF33FFEE33FEED33FDEC33FCD5F0ED2214
:0E039D00E5F0247EA2D513CC92E7CDCEFF2250
:1003AB00EDD2E7CD33EC3392D524814006E4FFFE4A
:1003BB00FDFC22FCE4CFCECDCC24E0501174FF80A9
:1003CB00EDC3CC13CCCD13CDCE13CECF13CF047046
:0703DB00F030D5DE02081A24
:100E3800E5082407F582E43402F583E005082290EA
:100E48000204302003900207E475F00112088C02B6
:100E580006D42019E97F2ED2198018EF540F249058
:100E6800D43440D4FF301D0BEF24BFB41A00500314
:100E78002461FFE50960021509050CE50C700205FF
:100E88000B30200E900204E475F00112088CEF027A
:100E9800071A023A677403D2208003E4C220F508D7
:100EA8009002041208A3E4F509F50BF50CE50960B6
:100EB800077F20120E7B80F5750AFFC21AC219C27D
:100EC8001BC21CC21EC21FC221120E47FF700D306A
:100ED80020057F00120E8CAF0CAE0B22B4255FC22A
:100EE800D5C21D120E47FF24D0B40A00501A75F05F
:100EF8000A780930D50508B6FF0106C6A426F620EB
:100F0800D5047002D21C80D924CFB41A00EF500443
:100F1800C2E5D21D02117ED21A80C6D21980C0D273
:100F28001B80BCD2D580BAD21E80B47F20120E7B23
:100F3800201B077401B5090040F1120E38FF120E8C
:100F48007B020EB5D221D21F8095120E38FB120EED
:100F580038FA120E38F94A4B7006797C7A127BFF00
:100F6800201B2EE509602A7E008E827583001206FA
:100F7800ED60060EEE650A70F0C2D5EBC0E0EAC07F
:100F8800E0E9C0E0EE1211DFD0E0F9D0E0FAD0E0FD
:100F9800FB1206D4FF60AAEBC0E0EAC0E0E9C0E0BB
:100FA800120E7BD0E02401F9D0E03400FAD0E0FB47
:100FB800E50A0460DCD50AD98087D21B80A2121109
:100FC800C160F7E50A70010412042CA90A600DE556
:100FD8000A600914F50A121269EF60F3EA30E702B1
:100FE800F404C3995079EAF4250A0430E701E404CB
:100FF800F50A800D1211C160C1EA050A250A12041A
:101008002CEA900233F030E701E4250A04D50A04FB
:10101800201E01141211DFE4C0E01212699002339D
:10102800E0601320E70714F0120E63802204F0D06A
:10103800E014C0E07F00120E63E50A6007120E5A42
:10104800150A800B301E03120E5AD0E0020EB5D0DE
:10105800E00480C41211C1609EE50A0412042C90B9
:101068000233EAF0E50A201E02600104240412118A
:01107800DF98
:1010790074FF04C0E0121269120E63E50A201E0211
:101089006003120E5AD0E0B50AE87F45120E6D9042
:101099000233E07F2B30E7047F2DF404C0E0120E09
:1010A9007BD0E075F00A84C0F0120E64D0E0120E15
:1010B90064020EB5791080027908C21FC221800826
:1010C900D2D5790A8004790AC2D5E50A047002F5F5
:1010D9000AE4FAFDFEFF120E38FC7B08201A1312EF
:1010E9000E38FD7B1030190A120E38FE120E38FF29
:1010F9007B20EC3382D592D55013C3E43019069F77
:10110900FFE49EFEE4201A039DFDE49CFCE4CBF879
:10111900C21AEC700CCFCECDCCE824F8F870F3806D
:1011290017C3EF33FFEE33FEED33FDEC33FCEB3346
:10113900FB994002FB0FD8E9EB301A05F8D0E0C45F
:1011490048B21AC0E00AEC4D4E4F78207B0070C2BD
:10115900EAB50A0040BCC0E01211E1D0F0D0E020AD
:101169001A04C4C0E0C4B21AC0F0120E64D0F0D59B
:10117900F0EB020EB51208AC0F525310BD580F23F5
:101189004C0F1F4210C14F10C94410C9490F3843B1
:1011990010CF550FFC46105C450FC647129C500FE7
:1011A900272D0F2B2E0F4E2B0F2F230F4C2012857F
:1011B9002A0EE74800000F46E50AB4FF03750A0640
:1011C900120E38FC120E38FD120E38FE120E38FFC0
:1011D90090022C020469790AA2D5201C14301E0938
:1011E900B910020404B9080104A2D5201F02500154
:1011F90004201B68921BB509005034C0E07F2030E1
:101209001C197F30A21B721F721E500F121238C296
:101219001BC21FC21EC2217F30800F301E03E9C0CE
:10122900E0120E7B301E03D0E0F9D0E0B509CC30D6
:101239001E177F30B9100C120E7B7F58301D077FA7
:10124900788003B90803120E7B301B057F2D020E2F
:101259007B7F202021F87F2B201FF322921B80CF38
:101269007F00B40700500B242CF582E43402F58387
:10127900E0FF22286E756C6C2900D21A120E3830E4
:101289001AF8C21A780930D50108F6020EE72D506E
:10129900434958120E382403B405004001E4901262
:1012A9009793120E6C743A120E6CD21C75090402D3
:0212B90010BD66
:1003E200E9D2E7C933E833F892D5EDD2E7CD33EC61
:0703F20033FC5002B2D522DA
:1003F900EC30E7100FBF000C0EBE00080DBD000465
:100409000BEB6014A2D5EB13FCED92E7FD2274FF10
:10041900FCFDFEFF22E480F8A2D574FF13FC7D8069
:03042900E480EF7D
:10042C00F920E73624F950037907E4F42402FBE5BC
:10043C0082158270021583DBF6E024FB501BE96009
:10044C0014E4F0E582158270021583E004F0B40A1E
:0D045C0008E4F0D9EE7401F00A22C2D522A6
:10046900ED33EC3392D5FA602AB4FF33EDC2E77B62
:10047900FF60067A04798EE4227A04799720D504FC
:100489007A047992224E614E002B494E46002D493D
:100499004E4600E47A08F0A3DAFC7B00740722C018
:1004A90083C082ECC0E0EDC0E0EEC0E0EFC0E0EA5E
:1004B90075F010A4CAABF075F04DA42BFBE435F030
:1004C900FCEA2410FAEB34C5FBEC34D9FCEDC2E7A5
:1004D900FF75F056A4F42411C5F0F434C58FF0A4C7
:1004E9002AE5F03BE43CF020E71412059ED0E0FF3A
:1004F900D0E0FED0E0FDD0E0FC1202578014F404F5
:1005090012059ED0E0FFD0E0FED0E0FDD0E0FC1265
:10051900014ED082D083E0FAEDD2E7CD33EC33241B
:1005290082FBE4C3CF33CFCE33CECD33CD33DBF330
:100539007B0775F00A846004F0A31B0AE5F0F0A3B9
:100549008FF0740AA4FFACF08EF0740AA42CFEACF0
:10055900F050010C8DF0740AA42CFDE435F0F0A3E1
:05056900DBDE74072237
:10056E003F8000004120000042C80000447A000095
:10057E00461C400047C35000497424004B18968017
:10058E004CBEBC205A0E1BCA6753C21C749DC5AE0E
:10059E00FB60065407601C23231205CCEB54386015
:1005AE00091205B81205C712014EECF8EDF9EEFA74
:1005BE00EFCB22EB1205C780F1543803241C9005B3
:1005CE006EFE93FC0EEE93FD0EEE930ECE93FF2277
:102F9F000224E0E493A3F8E493A34003F68001F244
:102FAF0008DFF48029E493A3F85407240CC8C33333
:102FBF00C4540F4420C8834004F456800146F6DF02
:102FCF00E4800B0102040810204080901537E47E46
:102FDF00019360BCA3FF543F30E509541FFEE493F7
:102FEF00A360010ECF54C025E060A840B8E493A3BE
:102FFF00FAE493A3F8E493A3C8C582C8CAC583CAE9
:10300F00F0A3C8C582C8CAC583CADFE9DEE780BEA0
:01176D00007B
:1005DE00E709F608DFFA8046E709F208DFFA803EFF
:1005EE0088828C83E709F0A3DFFA8032E309F608EC
:1005FE00DFFA8078E309F208DFFA807088828C8354
:10060E00E309F0A3DFFA806489828A83E0A3F60807
:10061E00DFFA805889828A83E0A3F208DFFA804CE1
:10062E0080D280FA80C680D4806980F280338010B8
:10063E0080A680EA809A80A880DA80E280CA803321
:10064E0089828A83ECFAE493A3C8C582C8CCC58399
:10065E00CCF0A3C8C582C8CCC583CCDFE9DEE78069
:10066E000D89828A83E493A3F608DFF9ECFAA9F0E8
:10067E00EDFB2289828A83ECFAE0A3C8C582C8CC3E
:10068E00C583CCF0A3C8C582C8CCC583CCDFEADE57
:10069E00E880DB89828A83E493A3F208DFF980CCB9
:1006AE0088F0EF60010E4E60C388F0ED2402B404B2
:1006BE000050B9F582EB2402B4040050AF23234559
:0606CE00822390062E734A
:1006D400BB010689828A83E0225002E722BBFE0224
:0906E400E32289828A83E4932257
:1006ED00BB010CE58229F582E5833AF583E02250C2
:1006FD0006E92582F8E622BBFE06E92582F8E2220C
:0D070D00E58229F582E5833AF583E4932225
:10071A00BB010689828A83F0225002F722BBFE01BE
:02072A00F322B8
:10072C00F8BB010DE58229F582E5833AF583E8F003
:10073C00225006E92582C8F622BBFE05E92582C8AF
:02074C00F22297
:10074E00EF8DF0A4A8F0CF8CF0A428CE8DF0A42EBF
:02075E00FE2279
:10076000BC000BBE0029EF8DF084FFADF022E4CC7D
:10077000F875F008EF2FFFEE33FEEC33FCEE9DEC46
:10078000984005FCEE9DFE0FD5F0E9E4CEFD22ED8C
:10079000F8F5F0EE8420D21CFEADF075F008EF2FD6
:1007A000FFED33FD4007985006D5F0F222C398FDC7
:0507B0000FD5F0EA2264
:1007B500C5F0F8A3E028F0C5F0F8E58215827002CF
:0607C5001583E038F0226C
:1007CB00E88FF0A4CC8BF0A42CFCE98EF0A42CFCCD
:1007DB008AF0EDA42CFCEA8EF0A4CDA8F08BF0A44B
:1007EB002DCC3825F0FDE98FF0A42CCD35F0FCEBAA
:1007FB008EF0A4FEA9F0EB8FF0A4CFC5F02ECD396F
:0F080B00FEE43CFCEAA42DCE35F0FDE43CFC22DB
:10378D00C2D5E830E70FB2D5E4C39BFBE49AFAE467
:10379D0099F9E498F8EC30E717B2D51237C312094E
:1037AD0014E4C39BFBE49AFAE499F9E498F88003D6
:1037BD0012091430D50DE4C39FFFE49EFEE49DFD78
:0437CD00E49CFC225A
:0E081A00C3E49FFFE49EFEE49DFDE49CFC22EF
:10082800EB9FF5F0EA9E42F0E99D42F0EC6480C847
:0608380064809845F022E7
:10083E00EB9FF5F0EA9E42F0E99D42F0E89C45F010
:01084E002287
:0C084F00ECF0A3EDF0A3EEF0A3EFF0221C
:10085B00A8828583F0D083D082120872120872129C
:10086B000872120872E473E493A3C583C5F0C583C1
:10087B00C8C582C8F0A3C583C5F0C583C8C582C8E7
:01088B00224A
:10088C00F8E0FBA3A3E0F925F0F0E58215827002F5
:07089C001583E0FA38F02299
:0908A300EBF0A3EAF0A3E9F02256
:1008AC00D083D082F8E4937012740193700DA3A3DB
:1008BC0093F8740193F5828883E4737402936860EF
:0608CC00EFA3A3A380DFEF
:0608D2008A838982E473B1
:103A6700EFB40A07740D123A72740A309811A899C4
:103A7700B8130CC2983098FDA899C298B811F630BF
:073A870099FDC299F5992297
:103C2D00E4FFFE1206D4600C0FEF70010E09E9706F
:053C3D00F20A80EF22F5
:1008D80075F008758200EF2FFFEE33FECD33CDCCD7
:1008E80033CCC58233C5829BED9AEC99E58298405A
:1008F8000CF582EE9BFEED9AFDEC99FC0FD5F0D637
:10090800E4CEFBE4CDFAE4CCF9A88222B800C1B960
:100918000059BA002DEC8BF084CFCECDFCE5F0CB9E
:10092800F97818EF2FFFEE33FEED33FDEC33FCEBD7
:1009380033FB10D703994004EB99FB0FD8E5E4F992
:10094800FA227818EF2FFFEE33FEED33FDEC33FC7F
:10095800C933C910D7059BE99A4007EC9BFCE99A73
:10096800F90FD8E0E4C9FAE4CCFB2275F010EF2FB8
:10097800FFEE33FEED33FDCC33CCC833C810D707B8
:100988009BEC9AE899400AED9BFDEC9AFCE899F8F3
:0E0998000FD5F0DAE4CDFBE4CCFAE4C8F92286
:00000001FF
